{
  "_format": "hh-sol-artifact-1",
  "contractName": "ReputationBadge",
  "sourceName": "contracts/ReputationBadge.sol",
  "abi": [
    {
      "anonymous": false,
      "inputs": [
        {
          "indexed": true,
          "internalType": "address",
          "name": "owner",
          "type": "address"
        },
        {
          "indexed": true,
          "internalType": "address",
          "name": "approved",
          "type": "address"
        },
        {
          "indexed": true,
          "internalType": "uint256",
          "name": "tokenId",
          "type": "uint256"
        }
      ],
      "name": "Approval",
      "type": "event"
    },
    {
      "anonymous": false,
      "inputs": [
        {
          "indexed": true,
          "internalType": "address",
          "name": "owner",
          "type": "address"
        },
        {
          "indexed": true,
          "internalType": "address",
          "name": "operator",
          "type": "address"
        },
        {
          "indexed": false,
          "internalType": "bool",
          "name": "approved",
          "type": "bool"
        }
      ],
      "name": "ApprovalForAll",
      "type": "event"
    },
    {
      "anonymous": false,
      "inputs": [
        {
          "indexed": true,
          "internalType": "address",
          "name": "previousOwner",
          "type": "address"
        },
        {
          "indexed": true,
          "internalType": "address",
          "name": "newOwner",
          "type": "address"
        }
      ],
      "name": "OwnershipTransferred",
      "type": "event"
    },
    {
      "anonymous": false,
      "inputs": [
        {
          "indexed": false,
          "internalType": "address",
          "name": "account",
          "type": "address"
        }
      ],
      "name": "Paused",
      "type": "event"
    },
    {
      "anonymous": false,
      "inputs": [
        {
          "indexed": true,
          "internalType": "address",
          "name": "from",
          "type": "address"
        },
        {
          "indexed": true,
          "internalType": "address",
          "name": "to",
          "type": "address"
        },
        {
          "indexed": true,
          "internalType": "uint256",
          "name": "tokenId",
          "type": "uint256"
        }
      ],
      "name": "Transfer",
      "type": "event"
    },
    {
      "anonymous": false,
      "inputs": [
        {
          "indexed": false,
          "internalType": "address",
          "name": "account",
          "type": "address"
        }
      ],
      "name": "Unpaused",
      "type": "event"
    },
    {
      "inputs": [
        {
          "internalType": "address",
          "name": "to",
          "type": "address"
        },
        {
          "internalType": "uint256",
          "name": "tokenId",
          "type": "uint256"
        }
      ],
      "name": "approve",
      "outputs": [],
      "stateMutability": "nonpayable",
      "type": "function"
    },
    {
      "inputs": [],
      "name": "backendAddress",
      "outputs": [
        {
          "internalType": "address",
          "name": "",
          "type": "address"
        }
      ],
      "stateMutability": "view",
      "type": "function"
    },
    {
      "inputs": [
        {
          "internalType": "address",
          "name": "owner",
          "type": "address"
        }
      ],
      "name": "balanceOf",
      "outputs": [
        {
          "internalType": "uint256",
          "name": "",
          "type": "uint256"
        }
      ],
      "stateMutability": "view",
      "type": "function"
    },
    {
      "inputs": [
        {
          "components": [
            {
              "internalType": "address",
              "name": "to",
              "type": "address"
            },
            {
              "internalType": "uint256",
              "name": "tokenId",
              "type": "uint256"
            }
          ],
          "internalType": "struct ReputationBadge.MintParameters[]",
          "name": "tokensToMint",
          "type": "tuple[]"
        }
      ],
      "name": "batchMint",
      "outputs": [],
      "stateMutability": "nonpayable",
      "type": "function"
    },
    {
      "inputs": [
        {
          "internalType": "uint256",
          "name": "tokenId",
          "type": "uint256"
        }
      ],
      "name": "burn",
      "outputs": [],
      "stateMutability": "nonpayable",
      "type": "function"
    },
    {
      "inputs": [
        {
          "internalType": "address",
          "name": "newBackendAddress",
          "type": "address"
        }
      ],
      "name": "changeBackendAddress",
      "outputs": [],
      "stateMutability": "nonpayable",
      "type": "function"
    },
    {
      "inputs": [
        {
          "internalType": "string",
          "name": "baseURI",
          "type": "string"
        }
      ],
      "name": "changeBaseURI",
      "outputs": [],
      "stateMutability": "nonpayable",
      "type": "function"
    },
    {
      "inputs": [
        {
          "internalType": "uint256",
          "name": "tokenId",
          "type": "uint256"
        }
      ],
      "name": "exists",
      "outputs": [
        {
          "internalType": "bool",
          "name": "",
          "type": "bool"
        }
      ],
      "stateMutability": "view",
      "type": "function"
    },
    {
      "inputs": [
        {
          "internalType": "uint256",
          "name": "tokenId",
          "type": "uint256"
        }
      ],
      "name": "getApproved",
      "outputs": [
        {
          "internalType": "address",
          "name": "",
          "type": "address"
        }
      ],
      "stateMutability": "view",
      "type": "function"
    },
    {
      "inputs": [
        {
          "internalType": "string",
          "name": "name_",
          "type": "string"
        },
        {
          "internalType": "string",
          "name": "symbol_",
          "type": "string"
        },
        {
          "internalType": "address",
          "name": "backendAddress_",
          "type": "address"
        }
      ],
      "name": "initialize",
      "outputs": [],
      "stateMutability": "nonpayable",
      "type": "function"
    },
    {
      "inputs": [
        {
          "internalType": "address",
          "name": "owner",
          "type": "address"
        },
        {
          "internalType": "address",
          "name": "operator",
          "type": "address"
        }
      ],
      "name": "isApprovedForAll",
      "outputs": [
        {
          "internalType": "bool",
          "name": "",
          "type": "bool"
        }
      ],
      "stateMutability": "view",
      "type": "function"
    },
    {
      "inputs": [],
      "name": "name",
      "outputs": [
        {
          "internalType": "string",
          "name": "",
          "type": "string"
        }
      ],
      "stateMutability": "view",
      "type": "function"
    },
    {
      "inputs": [],
      "name": "owner",
      "outputs": [
        {
          "internalType": "address",
          "name": "",
          "type": "address"
        }
      ],
      "stateMutability": "view",
      "type": "function"
    },
    {
      "inputs": [
        {
          "internalType": "uint256",
          "name": "tokenId",
          "type": "uint256"
        }
      ],
      "name": "ownerOf",
      "outputs": [
        {
          "internalType": "address",
          "name": "",
          "type": "address"
        }
      ],
      "stateMutability": "view",
      "type": "function"
    },
    {
      "inputs": [],
      "name": "pause",
      "outputs": [],
      "stateMutability": "nonpayable",
      "type": "function"
    },
    {
      "inputs": [],
      "name": "paused",
      "outputs": [
        {
          "internalType": "bool",
          "name": "",
          "type": "bool"
        }
      ],
      "stateMutability": "view",
      "type": "function"
    },
    {
      "inputs": [],
      "name": "renounceOwnership",
      "outputs": [],
      "stateMutability": "nonpayable",
      "type": "function"
    },
    {
      "inputs": [
        {
          "internalType": "address",
          "name": "to",
          "type": "address"
        },
        {
          "internalType": "uint256",
          "name": "tokenId",
          "type": "uint256"
        }
      ],
      "name": "safeMint",
      "outputs": [],
      "stateMutability": "nonpayable",
      "type": "function"
    },
    {
      "inputs": [
        {
          "internalType": "address",
          "name": "from",
          "type": "address"
        },
        {
          "internalType": "address",
          "name": "to",
          "type": "address"
        },
        {
          "internalType": "uint256",
          "name": "tokenId",
          "type": "uint256"
        }
      ],
      "name": "safeTransferFrom",
      "outputs": [],
      "stateMutability": "nonpayable",
      "type": "function"
    },
    {
      "inputs": [
        {
          "internalType": "address",
          "name": "from",
          "type": "address"
        },
        {
          "internalType": "address",
          "name": "to",
          "type": "address"
        },
        {
          "internalType": "uint256",
          "name": "tokenId",
          "type": "uint256"
        },
        {
          "internalType": "bytes",
          "name": "_data",
          "type": "bytes"
        }
      ],
      "name": "safeTransferFrom",
      "outputs": [],
      "stateMutability": "nonpayable",
      "type": "function"
    },
    {
      "inputs": [
        {
          "internalType": "address",
          "name": "operator",
          "type": "address"
        },
        {
          "internalType": "bool",
          "name": "approved",
          "type": "bool"
        }
      ],
      "name": "setApprovalForAll",
      "outputs": [],
      "stateMutability": "nonpayable",
      "type": "function"
    },
    {
      "inputs": [
        {
          "internalType": "bytes4",
          "name": "interfaceId",
          "type": "bytes4"
        }
      ],
      "name": "supportsInterface",
      "outputs": [
        {
          "internalType": "bool",
          "name": "",
          "type": "bool"
        }
      ],
      "stateMutability": "view",
      "type": "function"
    },
    {
      "inputs": [],
      "name": "symbol",
      "outputs": [
        {
          "internalType": "string",
          "name": "",
          "type": "string"
        }
      ],
      "stateMutability": "view",
      "type": "function"
    },
    {
      "inputs": [
        {
          "internalType": "uint256",
          "name": "tokenId",
          "type": "uint256"
        }
      ],
      "name": "tokenURI",
      "outputs": [
        {
          "internalType": "string",
          "name": "",
          "type": "string"
        }
      ],
      "stateMutability": "view",
      "type": "function"
    },
    {
      "inputs": [
        {
          "internalType": "address",
          "name": "from",
          "type": "address"
        },
        {
          "internalType": "address",
          "name": "to",
          "type": "address"
        },
        {
          "internalType": "uint256",
          "name": "tokenId",
          "type": "uint256"
        }
      ],
      "name": "transferFrom",
      "outputs": [],
      "stateMutability": "nonpayable",
      "type": "function"
    },
    {
      "inputs": [
        {
          "internalType": "address",
          "name": "newOwner",
          "type": "address"
        }
      ],
      "name": "transferOwnership",
      "outputs": [],
      "stateMutability": "nonpayable",
      "type": "function"
    },
    {
      "inputs": [],
      "name": "unpause",
      "outputs": [],
      "stateMutability": "nonpayable",
      "type": "function"
    }
  ],
  "bytecode": "0x608060405234801561001057600080fd5b50614128806100206000396000f3fe608060405234801561001057600080fd5b50600436106101a95760003560e01c80636352211e116100f9578063a144819411610097578063b88d4fde11610071578063b88d4fde1461046a578063c87b56dd14610486578063e985e9c5146104b6578063f2fde38b146104e6576101a9565b8063a144819414610416578063a22cb46514610432578063b7f0295c1461044e576101a9565b80638456cb59116100d35780638456cb59146103b45780638da5cb5b146103be5780639386e197146103dc57806395d89b41146103f8576101a9565b80636352211e1461034a57806370a082311461037a578063715018a6146103aa576101a9565b806323b872dd1161016657806342842e0e1161014057806342842e0e146102c457806342966c68146102e05780634f558e79146102fc5780635c975abb1461032c576101a9565b806323b872dd1461028257806339a0c6f91461029e5780633f4ba83a146102ba576101a9565b806301ffc9a7146101ae57806306fdde03146101de578063077f224a146101fc578063081812fc14610218578063095ea7b3146102485780630d72d57f14610264575b600080fd5b6101c860048036038101906101c39190612fca565b610502565b6040516101d591906139b4565b60405180910390f35b6101e66105e4565b6040516101f391906139cf565b60405180910390f35b6102166004803603810190610211919061305d565b610676565b005b610232600480360381019061022d91906130dc565b6107c6565b60405161023f919061394d565b60405180910390f35b610262600480360381019061025d9190612f4d565b61084b565b005b61026c610963565b604051610279919061394d565b60405180910390f35b61029c60048036038101906102979190612e47565b61098e565b005b6102b860048036038101906102b3919061301c565b6109ee565b005b6102c2610a85565b005b6102de60048036038101906102d99190612e47565b610b0b565b005b6102fa60048036038101906102f591906130dc565b610b2b565b005b610316600480360381019061031191906130dc565b610b87565b60405161032391906139b4565b60405180910390f35b610334610b99565b60405161034191906139b4565b60405180910390f35b610364600480360381019061035f91906130dc565b610bb0565b604051610371919061394d565b60405180910390f35b610394600480360381019061038f9190612de2565b610c62565b6040516103a19190613c91565b60405180910390f35b6103b2610d1a565b005b6103bc610e57565b005b6103c6610edd565b6040516103d3919061394d565b60405180910390f35b6103f660048036038101906103f19190612f89565b610f07565b005b61040061104d565b60405161040d91906139cf565b60405180910390f35b610430600480360381019061042b9190612f4d565b6110df565b005b61044c60048036038101906104479190612f11565b61117e565b005b61046860048036038101906104639190612de2565b6112ff565b005b610484600480360381019061047f9190612e96565b6113c0565b005b6104a0600480360381019061049b91906130dc565b611422565b6040516104ad91906139cf565b60405180910390f35b6104d060048036038101906104cb9190612e0b565b6114c9565b6040516104dd91906139b4565b60405180910390f35b61050060048036038101906104fb9190612de2565b61155d565b005b60007f80ac58cd000000000000000000000000000000000000000000000000000000007bffffffffffffffffffffffffffffffffffffffffffffffffffffffff1916827bffffffffffffffffffffffffffffffffffffffffffffffffffffffff191614806105cd57507f5b5e139f000000000000000000000000000000000000000000000000000000007bffffffffffffffffffffffffffffffffffffffffffffffffffffffff1916827bffffffffffffffffffffffffffffffffffffffffffffffffffffffff1916145b806105dd57506105dc82611709565b5b9050919050565b6060606580546105f390613f1d565b80601f016020809104026020016040519081016040528092919081815260200182805461061f90613f1d565b801561066c5780601f106106415761010080835404028352916020019161066c565b820191906000526020600020905b81548152906001019060200180831161064f57829003601f168201915b5050505050905090565b600060019054906101000a900460ff168061069c575060008054906101000a900460ff16155b6106db576040517f08c379a00000000000000000000000000000000000000000000000000000000081526004016106d290613b71565b60405180910390fd5b60008060019054906101000a900460ff16159050801561072b576001600060016101000a81548160ff02191690831515021790555060016000806101000a81548160ff0219169083151502179055505b610733611773565b61073b61184c565b610743611940565b61074b611ac2565b6107558484611b9b565b61075d611ca4565b8161012d60006101000a81548173ffffffffffffffffffffffffffffffffffffffff021916908373ffffffffffffffffffffffffffffffffffffffff16021790555080156107c05760008060016101000a81548160ff0219169083151502179055505b50505050565b60006107d182611d7d565b610810576040517f08c379a000000000000000000000000000000000000000000000000000000000815260040161080790613bb1565b60405180910390fd5b6069600083815260200190815260200160002060009054906101000a900473ffffffffffffffffffffffffffffffffffffffff169050919050565b600061085682610bb0565b90508073ffffffffffffffffffffffffffffffffffffffff168373ffffffffffffffffffffffffffffffffffffffff1614156108c7576040517f08c379a00000000000000000000000000000000000000000000000000000000081526004016108be90613c31565b60405180910390fd5b8073ffffffffffffffffffffffffffffffffffffffff166108e6611de9565b73ffffffffffffffffffffffffffffffffffffffff16148061091557506109148161090f611de9565b6114c9565b5b610954576040517f08c379a000000000000000000000000000000000000000000000000000000000815260040161094b90613b11565b60405180910390fd5b61095e8383611df1565b505050565b600061012d60009054906101000a900473ffffffffffffffffffffffffffffffffffffffff16905090565b61099f610999611de9565b82611eaa565b6109de576040517f08c379a00000000000000000000000000000000000000000000000000000000081526004016109d590613c51565b60405180910390fd5b6109e9838383611f88565b505050565b6109f6611de9565b73ffffffffffffffffffffffffffffffffffffffff16610a14610edd565b73ffffffffffffffffffffffffffffffffffffffff1614610a6a576040517f08c379a0000000000000000000000000000000000000000000000000000000008152600401610a6190613bd1565b60405180910390fd5b8061012e9080519060200190610a81929190612b24565b5050565b610a8d611de9565b73ffffffffffffffffffffffffffffffffffffffff16610aab610edd565b73ffffffffffffffffffffffffffffffffffffffff1614610b01576040517f08c379a0000000000000000000000000000000000000000000000000000000008152600401610af890613bd1565b60405180910390fd5b610b096121e4565b565b610b26838383604051806020016040528060008152506113c0565b505050565b610b3c610b36611de9565b82611eaa565b610b7b576040517f08c379a0000000000000000000000000000000000000000000000000000000008152600401610b7290613c71565b60405180910390fd5b610b8481612286565b50565b6000610b9282611d7d565b9050919050565b6000609760009054906101000a900460ff16905090565b6000806067600084815260200190815260200160002060009054906101000a900473ffffffffffffffffffffffffffffffffffffffff169050600073ffffffffffffffffffffffffffffffffffffffff168173ffffffffffffffffffffffffffffffffffffffff161415610c59576040517f08c379a0000000000000000000000000000000000000000000000000000000008152600401610c5090613b51565b60405180910390fd5b80915050919050565b60008073ffffffffffffffffffffffffffffffffffffffff168273ffffffffffffffffffffffffffffffffffffffff161415610cd3576040517f08c379a0000000000000000000000000000000000000000000000000000000008152600401610cca90613b31565b60405180910390fd5b606860008373ffffffffffffffffffffffffffffffffffffffff1673ffffffffffffffffffffffffffffffffffffffff168152602001908152602001600020549050919050565b610d22611de9565b73ffffffffffffffffffffffffffffffffffffffff16610d40610edd565b73ffffffffffffffffffffffffffffffffffffffff1614610d96576040517f08c379a0000000000000000000000000000000000000000000000000000000008152600401610d8d90613bd1565b60405180910390fd5b600073ffffffffffffffffffffffffffffffffffffffff1660c960009054906101000a900473ffffffffffffffffffffffffffffffffffffffff1673ffffffffffffffffffffffffffffffffffffffff167f8be0079c531659141344cd1fd0a4f28419497f9722a3daafe3b4186f6b6457e060405160405180910390a3600060c960006101000a81548173ffffffffffffffffffffffffffffffffffffffff021916908373ffffffffffffffffffffffffffffffffffffffff160217905550565b610e5f611de9565b73ffffffffffffffffffffffffffffffffffffffff16610e7d610edd565b73ffffffffffffffffffffffffffffffffffffffff1614610ed3576040517f08c379a0000000000000000000000000000000000000000000000000000000008152600401610eca90613bd1565b60405180910390fd5b610edb612397565b565b600060c960009054906101000a900473ffffffffffffffffffffffffffffffffffffffff16905090565b61012d60009054906101000a900473ffffffffffffffffffffffffffffffffffffffff1673ffffffffffffffffffffffffffffffffffffffff163373ffffffffffffffffffffffffffffffffffffffff1614610f98576040517f08c379a0000000000000000000000000000000000000000000000000000000008152600401610f8f90613a11565b60405180910390fd5b60005b815181101561104957611036828281518110610fe0577f4e487b7100000000000000000000000000000000000000000000000000000000600052603260045260246000fd5b602002602001015160000151838381518110611025577f4e487b7100000000000000000000000000000000000000000000000000000000600052603260045260246000fd5b60200260200101516020015161243a565b808061104190613f4f565b915050610f9b565b5050565b60606066805461105c90613f1d565b80601f016020809104026020016040519081016040528092919081815260200182805461108890613f1d565b80156110d55780601f106110aa576101008083540402835291602001916110d5565b820191906000526020600020905b8154815290600101906020018083116110b857829003601f168201915b5050505050905090565b61012d60009054906101000a900473ffffffffffffffffffffffffffffffffffffffff1673ffffffffffffffffffffffffffffffffffffffff163373ffffffffffffffffffffffffffffffffffffffff1614611170576040517f08c379a000000000000000000000000000000000000000000000000000000000815260040161116790613a11565b60405180910390fd5b61117a828261243a565b5050565b611186611de9565b73ffffffffffffffffffffffffffffffffffffffff168273ffffffffffffffffffffffffffffffffffffffff1614156111f4576040517f08c379a00000000000000000000000000000000000000000000000000000000081526004016111eb90613ab1565b60405180910390fd5b80606a6000611201611de9565b73ffffffffffffffffffffffffffffffffffffffff1673ffffffffffffffffffffffffffffffffffffffff16815260200190815260200160002060008473ffffffffffffffffffffffffffffffffffffffff1673ffffffffffffffffffffffffffffffffffffffff16815260200190815260200160002060006101000a81548160ff0219169083151502179055508173ffffffffffffffffffffffffffffffffffffffff166112ae611de9565b73ffffffffffffffffffffffffffffffffffffffff167f17307eab39ab6107e8899845ad3d59bd9653f200f220920489ca2b5937696c31836040516112f391906139b4565b60405180910390a35050565b611307611de9565b73ffffffffffffffffffffffffffffffffffffffff16611325610edd565b73ffffffffffffffffffffffffffffffffffffffff161461137b576040517f08c379a000000000000000000000000000000000000000000000000000000000815260040161137290613bd1565b60405180910390fd5b8061012d60006101000a81548173ffffffffffffffffffffffffffffffffffffffff021916908373ffffffffffffffffffffffffffffffffffffffff16021790555050565b6113d16113cb611de9565b83611eaa565b611410576040517f08c379a000000000000000000000000000000000000000000000000000000000815260040161140790613c51565b60405180910390fd5b61141c84848484612458565b50505050565b606061142d82611d7d565b61146c576040517f08c379a000000000000000000000000000000000000000000000000000000000815260040161146390613c11565b60405180910390fd5b60006114766124b4565b9050600081511161149657604051806020016040528060008152506114c1565b806114a084612547565b6040516020016114b1929190613929565b6040516020818303038152906040525b915050919050565b6000606a60008473ffffffffffffffffffffffffffffffffffffffff1673ffffffffffffffffffffffffffffffffffffffff16815260200190815260200160002060008373ffffffffffffffffffffffffffffffffffffffff1673ffffffffffffffffffffffffffffffffffffffff16815260200190815260200160002060009054906101000a900460ff16905092915050565b611565611de9565b73ffffffffffffffffffffffffffffffffffffffff16611583610edd565b73ffffffffffffffffffffffffffffffffffffffff16146115d9576040517f08c379a00000000000000000000000000000000000000000000000000000000081526004016115d090613bd1565b60405180910390fd5b600073ffffffffffffffffffffffffffffffffffffffff168173ffffffffffffffffffffffffffffffffffffffff161415611649576040517f08c379a000000000000000000000000000000000000000000000000000000000815260040161164090613a51565b60405180910390fd5b8073ffffffffffffffffffffffffffffffffffffffff1660c960009054906101000a900473ffffffffffffffffffffffffffffffffffffffff1673ffffffffffffffffffffffffffffffffffffffff167f8be0079c531659141344cd1fd0a4f28419497f9722a3daafe3b4186f6b6457e060405160405180910390a38060c960006101000a81548173ffffffffffffffffffffffffffffffffffffffff021916908373ffffffffffffffffffffffffffffffffffffffff16021790555050565b60007f01ffc9a7000000000000000000000000000000000000000000000000000000007bffffffffffffffffffffffffffffffffffffffffffffffffffffffff1916827bffffffffffffffffffffffffffffffffffffffffffffffffffffffff1916149050919050565b600060019054906101000a900460ff1680611799575060008054906101000a900460ff16155b6117d8576040517f08c379a00000000000000000000000000000000000000000000000000000000081526004016117cf90613b71565b60405180910390fd5b60008060019054906101000a900460ff161590508015611828576001600060016101000a81548160ff02191690831515021790555060016000806101000a81548160ff0219169083151502179055505b80156118495760008060016101000a81548160ff0219169083151502179055505b50565b600060019054906101000a900460ff1680611872575060008054906101000a900460ff16155b6118b1576040517f08c379a00000000000000000000000000000000000000000000000000000000081526004016118a890613b71565b60405180910390fd5b60008060019054906101000a900460ff161590508015611901576001600060016101000a81548160ff02191690831515021790555060016000806101000a81548160ff0219169083151502179055505b6000609760006101000a81548160ff021916908315150217905550801561193d5760008060016101000a81548160ff0219169083151502179055505b50565b600060019054906101000a900460ff1680611966575060008054906101000a900460ff16155b6119a5576040517f08c379a000000000000000000000000000000000000000000000000000000000815260040161199c90613b71565b60405180910390fd5b60008060019054906101000a900460ff1615905080156119f5576001600060016101000a81548160ff02191690831515021790555060016000806101000a81548160ff0219169083151502179055505b60006119ff611de9565b90508060c960006101000a81548173ffffffffffffffffffffffffffffffffffffffff021916908373ffffffffffffffffffffffffffffffffffffffff1602179055508073ffffffffffffffffffffffffffffffffffffffff16600073ffffffffffffffffffffffffffffffffffffffff167f8be0079c531659141344cd1fd0a4f28419497f9722a3daafe3b4186f6b6457e060405160405180910390a3508015611abf5760008060016101000a81548160ff0219169083151502179055505b50565b600060019054906101000a900460ff1680611ae8575060008054906101000a900460ff16155b611b27576040517f08c379a0000000000000000000000000000000000000000000000000000000008152600401611b1e90613b71565b60405180910390fd5b60008060019054906101000a900460ff161590508015611b77576001600060016101000a81548160ff02191690831515021790555060016000806101000a81548160ff0219169083151502179055505b8015611b985760008060016101000a81548160ff0219169083151502179055505b50565b600060019054906101000a900460ff1680611bc1575060008054906101000a900460ff16155b611c00576040517f08c379a0000000000000000000000000000000000000000000000000000000008152600401611bf790613b71565b60405180910390fd5b60008060019054906101000a900460ff161590508015611c50576001600060016101000a81548160ff02191690831515021790555060016000806101000a81548160ff0219169083151502179055505b8260659080519060200190611c66929190612b24565b508160669080519060200190611c7d929190612b24565b508015611c9f5760008060016101000a81548160ff0219169083151502179055505b505050565b600060019054906101000a900460ff1680611cca575060008054906101000a900460ff16155b611d09576040517f08c379a0000000000000000000000000000000000000000000000000000000008152600401611d0090613b71565b60405180910390fd5b60008060019054906101000a900460ff161590508015611d59576001600060016101000a81548160ff02191690831515021790555060016000806101000a81548160ff0219169083151502179055505b8015611d7a5760008060016101000a81548160ff0219169083151502179055505b50565b60008073ffffffffffffffffffffffffffffffffffffffff166067600084815260200190815260200160002060009054906101000a900473ffffffffffffffffffffffffffffffffffffffff1673ffffffffffffffffffffffffffffffffffffffff1614159050919050565b600033905090565b816069600083815260200190815260200160002060006101000a81548173ffffffffffffffffffffffffffffffffffffffff021916908373ffffffffffffffffffffffffffffffffffffffff160217905550808273ffffffffffffffffffffffffffffffffffffffff16611e6483610bb0565b73ffffffffffffffffffffffffffffffffffffffff167f8c5be1e5ebec7d5bd14f71427d1e84f3dd0314c0f7b2291e5b200ac8c7c3b92560405160405180910390a45050565b6000611eb582611d7d565b611ef4576040517f08c379a0000000000000000000000000000000000000000000000000000000008152600401611eeb90613ad1565b60405180910390fd5b6000611eff83610bb0565b90508073ffffffffffffffffffffffffffffffffffffffff168473ffffffffffffffffffffffffffffffffffffffff161480611f6e57508373ffffffffffffffffffffffffffffffffffffffff16611f56846107c6565b73ffffffffffffffffffffffffffffffffffffffff16145b80611f7f5750611f7e81856114c9565b5b91505092915050565b8273ffffffffffffffffffffffffffffffffffffffff16611fa882610bb0565b73ffffffffffffffffffffffffffffffffffffffff1614611ffe576040517f08c379a0000000000000000000000000000000000000000000000000000000008152600401611ff590613bf1565b60405180910390fd5b600073ffffffffffffffffffffffffffffffffffffffff168273ffffffffffffffffffffffffffffffffffffffff16141561206e576040517f08c379a000000000000000000000000000000000000000000000000000000000815260040161206590613a91565b60405180910390fd5b6120798383836126f4565b612084600082611df1565b6001606860008573ffffffffffffffffffffffffffffffffffffffff1673ffffffffffffffffffffffffffffffffffffffff16815260200190815260200160002060008282546120d49190613e33565b925050819055506001606860008473ffffffffffffffffffffffffffffffffffffffff1673ffffffffffffffffffffffffffffffffffffffff168152602001908152602001600020600082825461212b9190613dac565b92505081905550816067600083815260200190815260200160002060006101000a81548173ffffffffffffffffffffffffffffffffffffffff021916908373ffffffffffffffffffffffffffffffffffffffff160217905550808273ffffffffffffffffffffffffffffffffffffffff168473ffffffffffffffffffffffffffffffffffffffff167fddf252ad1be2c89b69c2b068fc378daa952ba7f163c4a11628f55a4df523b3ef60405160405180910390a4505050565b6121ec610b99565b61222b576040517f08c379a0000000000000000000000000000000000000000000000000000000008152600401612222906139f1565b60405180910390fd5b6000609760006101000a81548160ff0219169083151502179055507f5db9ee0a495bf2e6ff9c91a7834c1ba4fdd244a5e8aa4e537bd38aeae4b073aa61226f611de9565b60405161227c919061394d565b60405180910390a1565b600061229182610bb0565b905061229f816000846126f4565b6122aa600083611df1565b6001606860008373ffffffffffffffffffffffffffffffffffffffff1673ffffffffffffffffffffffffffffffffffffffff16815260200190815260200160002060008282546122fa9190613e33565b925050819055506067600083815260200190815260200160002060006101000a81549073ffffffffffffffffffffffffffffffffffffffff021916905581600073ffffffffffffffffffffffffffffffffffffffff168273ffffffffffffffffffffffffffffffffffffffff167fddf252ad1be2c89b69c2b068fc378daa952ba7f163c4a11628f55a4df523b3ef60405160405180910390a45050565b61239f610b99565b156123df576040517f08c379a00000000000000000000000000000000000000000000000000000000081526004016123d690613af1565b60405180910390fd5b6001609760006101000a81548160ff0219169083151502179055507f62e78cea01bee320cd4e420270b5ea74000d11b0c9f74754ebdbfc544b05a258612423611de9565b604051612430919061394d565b60405180910390a1565b61245482826040518060200160405280600081525061274c565b5050565b612463848484611f88565b61246f848484846127a7565b6124ae576040517f08c379a00000000000000000000000000000000000000000000000000000000081526004016124a590613a31565b60405180910390fd5b50505050565b606061012e80546124c490613f1d565b80601f01602080910402602001604051908101604052809291908181526020018280546124f090613f1d565b801561253d5780601f106125125761010080835404028352916020019161253d565b820191906000526020600020905b81548152906001019060200180831161252057829003601f168201915b5050505050905090565b6060600082141561258f576040518060400160405280600181526020017f300000000000000000000000000000000000000000000000000000000000000081525090506126ef565b600082905060005b600082146125c15780806125aa90613f4f565b915050600a826125ba9190613e02565b9150612597565b60008167ffffffffffffffff811115612603577f4e487b7100000000000000000000000000000000000000000000000000000000600052604160045260246000fd5b6040519080825280601f01601f1916602001820160405280156126355781602001600182028036833780820191505090505b5090505b600085146126e85760018261264e9190613e33565b9150600a8561265d9190613f98565b60306126699190613dac565b60f81b8183815181106126a5577f4e487b7100000000000000000000000000000000000000000000000000000000600052603260045260246000fd5b60200101907effffffffffffffffffffffffffffffffffffffffffffffffffffffffffffff1916908160001a905350600a856126e19190613e02565b9450612639565b8093505050505b919050565b6126fc610b99565b1561273c576040517f08c379a000000000000000000000000000000000000000000000000000000000815260040161273390613af1565b60405180910390fd5b61274783838361293e565b505050565b6127568383612943565b61276360008484846127a7565b6127a2576040517f08c379a000000000000000000000000000000000000000000000000000000000815260040161279990613a31565b60405180910390fd5b505050565b60006127c88473ffffffffffffffffffffffffffffffffffffffff16612b11565b15612931578373ffffffffffffffffffffffffffffffffffffffff1663150b7a026127f1611de9565b8786866040518563ffffffff1660e01b81526004016128139493929190613968565b602060405180830381600087803b15801561282d57600080fd5b505af192505050801561285e57506040513d601f19601f8201168201806040525081019061285b9190612ff3565b60015b6128e1573d806000811461288e576040519150601f19603f3d011682016040523d82523d6000602084013e612893565b606091505b506000815114156128d9576040517f08c379a00000000000000000000000000000000000000000000000000000000081526004016128d090613a31565b60405180910390fd5b805181602001fd5b63150b7a0260e01b7bffffffffffffffffffffffffffffffffffffffffffffffffffffffff1916817bffffffffffffffffffffffffffffffffffffffffffffffffffffffff191614915050612936565b600190505b949350505050565b505050565b600073ffffffffffffffffffffffffffffffffffffffff168273ffffffffffffffffffffffffffffffffffffffff1614156129b3576040517f08c379a00000000000000000000000000000000000000000000000000000000081526004016129aa90613b91565b60405180910390fd5b6129bc81611d7d565b156129fc576040517f08c379a00000000000000000000000000000000000000000000000000000000081526004016129f390613a71565b60405180910390fd5b612a08600083836126f4565b6001606860008473ffffffffffffffffffffffffffffffffffffffff1673ffffffffffffffffffffffffffffffffffffffff1681526020019081526020016000206000828254612a589190613dac565b92505081905550816067600083815260200190815260200160002060006101000a81548173ffffffffffffffffffffffffffffffffffffffff021916908373ffffffffffffffffffffffffffffffffffffffff160217905550808273ffffffffffffffffffffffffffffffffffffffff16600073ffffffffffffffffffffffffffffffffffffffff167fddf252ad1be2c89b69c2b068fc378daa952ba7f163c4a11628f55a4df523b3ef60405160405180910390a45050565b600080823b905060008111915050919050565b828054612b3090613f1d565b90600052602060002090601f016020900481019282612b525760008555612b99565b82601f10612b6b57805160ff1916838001178555612b99565b82800160010185558215612b99579182015b82811115612b98578251825591602001919060010190612b7d565b5b509050612ba69190612baa565b5090565b5b80821115612bc3576000816000905550600101612bab565b5090565b6000612bda612bd584613cdd565b613cac565b90508083825260208201905082856040860282011115612bf957600080fd5b60005b85811015612c295781612c0f8882612d81565b845260208401935060408301925050600181019050612bfc565b5050509392505050565b6000612c46612c4184613d09565b613cac565b905082815260208101848484011115612c5e57600080fd5b612c69848285613edb565b509392505050565b6000612c84612c7f84613d39565b613cac565b905082815260208101848484011115612c9c57600080fd5b612ca7848285613edb565b509392505050565b600081359050612cbe81614096565b92915050565b600082601f830112612cd557600080fd5b8135612ce5848260208601612bc7565b91505092915050565b600081359050612cfd816140ad565b92915050565b600081359050612d12816140c4565b92915050565b600081519050612d27816140c4565b92915050565b600082601f830112612d3e57600080fd5b8135612d4e848260208601612c33565b91505092915050565b600082601f830112612d6857600080fd5b8135612d78848260208601612c71565b91505092915050565b600060408284031215612d9357600080fd5b612d9d6040613cac565b90506000612dad84828501612caf565b6000830152506020612dc184828501612dcd565b60208301525092915050565b600081359050612ddc816140db565b92915050565b600060208284031215612df457600080fd5b6000612e0284828501612caf565b91505092915050565b60008060408385031215612e1e57600080fd5b6000612e2c85828601612caf565b9250506020612e3d85828601612caf565b9150509250929050565b600080600060608486031215612e5c57600080fd5b6000612e6a86828701612caf565b9350506020612e7b86828701612caf565b9250506040612e8c86828701612dcd565b9150509250925092565b60008060008060808587031215612eac57600080fd5b6000612eba87828801612caf565b9450506020612ecb87828801612caf565b9350506040612edc87828801612dcd565b925050606085013567ffffffffffffffff811115612ef957600080fd5b612f0587828801612d2d565b91505092959194509250565b60008060408385031215612f2457600080fd5b6000612f3285828601612caf565b9250506020612f4385828601612cee565b9150509250929050565b60008060408385031215612f6057600080fd5b6000612f6e85828601612caf565b9250506020612f7f85828601612dcd565b9150509250929050565b600060208284031215612f9b57600080fd5b600082013567ffffffffffffffff811115612fb557600080fd5b612fc184828501612cc4565b91505092915050565b600060208284031215612fdc57600080fd5b6000612fea84828501612d03565b91505092915050565b60006020828403121561300557600080fd5b600061301384828501612d18565b91505092915050565b60006020828403121561302e57600080fd5b600082013567ffffffffffffffff81111561304857600080fd5b61305484828501612d57565b91505092915050565b60008060006060848603121561307257600080fd5b600084013567ffffffffffffffff81111561308c57600080fd5b61309886828701612d57565b935050602084013567ffffffffffffffff8111156130b557600080fd5b6130c186828701612d57565b92505060406130d286828701612caf565b9150509250925092565b6000602082840312156130ee57600080fd5b60006130fc84828501612dcd565b91505092915050565b61310e81613e67565b82525050565b61311d81613e79565b82525050565b600061312e82613d69565b6131388185613d7f565b9350613148818560208601613eea565b61315181614085565b840191505092915050565b600061316782613d74565b6131718185613d90565b9350613181818560208601613eea565b61318a81614085565b840191505092915050565b60006131a082613d74565b6131aa8185613da1565b93506131ba818560208601613eea565b80840191505092915050565b60006131d3601483613d90565b91507f5061757361626c653a206e6f74207061757365640000000000000000000000006000830152602082019050919050565b6000613213600c83613d90565b91507f556e617574686f72697a656400000000000000000000000000000000000000006000830152602082019050919050565b6000613253603283613d90565b91507f4552433732313a207472616e7366657220746f206e6f6e20455243373231526560008301527f63656976657220696d706c656d656e74657200000000000000000000000000006020830152604082019050919050565b60006132b9602683613d90565b91507f4f776e61626c653a206e6577206f776e657220697320746865207a65726f206160008301527f64647265737300000000000000000000000000000000000000000000000000006020830152604082019050919050565b600061331f601c83613d90565b91507f4552433732313a20746f6b656e20616c7265616479206d696e746564000000006000830152602082019050919050565b600061335f602483613d90565b91507f4552433732313a207472616e7366657220746f20746865207a65726f2061646460008301527f72657373000000000000000000000000000000000000000000000000000000006020830152604082019050919050565b60006133c5601983613d90565b91507f4552433732313a20617070726f766520746f2063616c6c6572000000000000006000830152602082019050919050565b6000613405602c83613d90565b91507f4552433732313a206f70657261746f7220717565727920666f72206e6f6e657860008301527f697374656e7420746f6b656e00000000000000000000000000000000000000006020830152604082019050919050565b600061346b601083613d90565b91507f5061757361626c653a20706175736564000000000000000000000000000000006000830152602082019050919050565b60006134ab603883613d90565b91507f4552433732313a20617070726f76652063616c6c6572206973206e6f74206f7760008301527f6e6572206e6f7220617070726f76656420666f7220616c6c00000000000000006020830152604082019050919050565b6000613511602a83613d90565b91507f4552433732313a2062616c616e636520717565727920666f7220746865207a6560008301527f726f2061646472657373000000000000000000000000000000000000000000006020830152604082019050919050565b6000613577602983613d90565b91507f4552433732313a206f776e657220717565727920666f72206e6f6e657869737460008301527f656e7420746f6b656e00000000000000000000000000000000000000000000006020830152604082019050919050565b60006135dd602e83613d90565b91507f496e697469616c697a61626c653a20636f6e747261637420697320616c72656160008301527f647920696e697469616c697a65640000000000000000000000000000000000006020830152604082019050919050565b6000613643602083613d90565b91507f4552433732313a206d696e7420746f20746865207a65726f20616464726573736000830152602082019050919050565b6000613683602c83613d90565b91507f4552433732313a20617070726f76656420717565727920666f72206e6f6e657860008301527f697374656e7420746f6b656e00000000000000000000000000000000000000006020830152604082019050919050565b60006136e9602083613d90565b91507f4f776e61626c653a2063616c6c6572206973206e6f7420746865206f776e65726000830152602082019050919050565b6000613729602983613d90565b91507f4552433732313a207472616e73666572206f6620746f6b656e2074686174206960008301527f73206e6f74206f776e00000000000000000000000000000000000000000000006020830152604082019050919050565b600061378f602f83613d90565b91507f4552433732314d657461646174613a2055524920717565727920666f72206e6f60008301527f6e6578697374656e7420746f6b656e00000000000000000000000000000000006020830152604082019050919050565b60006137f5602183613d90565b91507f4552433732313a20617070726f76616c20746f2063757272656e74206f776e6560008301527f72000000000000000000000000000000000000000000000000000000000000006020830152604082019050919050565b600061385b603183613d90565b91507f4552433732313a207472616e736665722063616c6c6572206973206e6f74206f60008301527f776e6572206e6f7220617070726f7665640000000000000000000000000000006020830152604082019050919050565b60006138c1603083613d90565b91507f4552433732314275726e61626c653a2063616c6c6572206973206e6f74206f7760008301527f6e6572206e6f7220617070726f766564000000000000000000000000000000006020830152604082019050919050565b61392381613ed1565b82525050565b60006139358285613195565b91506139418284613195565b91508190509392505050565b60006020820190506139626000830184613105565b92915050565b600060808201905061397d6000830187613105565b61398a6020830186613105565b613997604083018561391a565b81810360608301526139a98184613123565b905095945050505050565b60006020820190506139c96000830184613114565b92915050565b600060208201905081810360008301526139e9818461315c565b905092915050565b60006020820190508181036000830152613a0a816131c6565b9050919050565b60006020820190508181036000830152613a2a81613206565b9050919050565b60006020820190508181036000830152613a4a81613246565b9050919050565b60006020820190508181036000830152613a6a816132ac565b9050919050565b60006020820190508181036000830152613a8a81613312565b9050919050565b60006020820190508181036000830152613aaa81613352565b9050919050565b60006020820190508181036000830152613aca816133b8565b9050919050565b60006020820190508181036000830152613aea816133f8565b9050919050565b60006020820190508181036000830152613b0a8161345e565b9050919050565b60006020820190508181036000830152613b2a8161349e565b9050919050565b60006020820190508181036000830152613b4a81613504565b9050919050565b60006020820190508181036000830152613b6a8161356a565b9050919050565b60006020820190508181036000830152613b8a816135d0565b9050919050565b60006020820190508181036000830152613baa81613636565b9050919050565b60006020820190508181036000830152613bca81613676565b9050919050565b60006020820190508181036000830152613bea816136dc565b9050919050565b60006020820190508181036000830152613c0a8161371c565b9050919050565b60006020820190508181036000830152613c2a81613782565b9050919050565b60006020820190508181036000830152613c4a816137e8565b9050919050565b60006020820190508181036000830152613c6a8161384e565b9050919050565b60006020820190508181036000830152613c8a816138b4565b9050919050565b6000602082019050613ca6600083018461391a565b92915050565b6000604051905081810181811067ffffffffffffffff82111715613cd357613cd2614056565b5b8060405250919050565b600067ffffffffffffffff821115613cf857613cf7614056565b5b602082029050602081019050919050565b600067ffffffffffffffff821115613d2457613d23614056565b5b601f19601f8301169050602081019050919050565b600067ffffffffffffffff821115613d5457613d53614056565b5b601f19601f8301169050602081019050919050565b600081519050919050565b600081519050919050565b600082825260208201905092915050565b600082825260208201905092915050565b600081905092915050565b6000613db782613ed1565b9150613dc283613ed1565b9250827fffffffffffffffffffffffffffffffffffffffffffffffffffffffffffffffff03821115613df757613df6613fc9565b5b828201905092915050565b6000613e0d82613ed1565b9150613e1883613ed1565b925082613e2857613e27613ff8565b5b828204905092915050565b6000613e3e82613ed1565b9150613e4983613ed1565b925082821015613e5c57613e5b613fc9565b5b828203905092915050565b6000613e7282613eb1565b9050919050565b60008115159050919050565b60007fffffffff0000000000000000000000000000000000000000000000000000000082169050919050565b600073ffffffffffffffffffffffffffffffffffffffff82169050919050565b6000819050919050565b82818337600083830152505050565b60005b83811015613f08578082015181840152602081019050613eed565b83811115613f17576000848401525b50505050565b60006002820490506001821680613f3557607f821691505b60208210811415613f4957613f48614027565b5b50919050565b6000613f5a82613ed1565b91507fffffffffffffffffffffffffffffffffffffffffffffffffffffffffffffffff821415613f8d57613f8c613fc9565b5b600182019050919050565b6000613fa382613ed1565b9150613fae83613ed1565b925082613fbe57613fbd613ff8565b5b828206905092915050565b7f4e487b7100000000000000000000000000000000000000000000000000000000600052601160045260246000fd5b7f4e487b7100000000000000000000000000000000000000000000000000000000600052601260045260246000fd5b7f4e487b7100000000000000000000000000000000000000000000000000000000600052602260045260246000fd5b7f4e487b7100000000000000000000000000000000000000000000000000000000600052604160045260246000fd5b6000601f19601f8301169050919050565b61409f81613e67565b81146140aa57600080fd5b50565b6140b681613e79565b81146140c157600080fd5b50565b6140cd81613e85565b81146140d857600080fd5b50565b6140e481613ed1565b81146140ef57600080fd5b5056fea26469706673582212209daf8b750d919bf21acb447d5ff61a19d09ca85b460bf4bac09dabe267d72dce64736f6c63430008000033",
  "linkReferences": {},
  "deployedLinkReferences": {}
}