{
  "_format": "hh-sol-artifact-1",
  "contractName": "ReputationBadge",
  "sourceName": "contracts/ReputationBadge.sol",
  "abi": [
    {
      "anonymous": false,
      "inputs": [
        {
          "indexed": true,
          "internalType": "address",
          "name": "owner",
          "type": "address"
        },
        {
          "indexed": true,
          "internalType": "address",
          "name": "approved",
          "type": "address"
        },
        {
          "indexed": true,
          "internalType": "uint256",
          "name": "tokenId",
          "type": "uint256"
        }
      ],
      "name": "Approval",
      "type": "event"
    },
    {
      "anonymous": false,
      "inputs": [
        {
          "indexed": true,
          "internalType": "address",
          "name": "owner",
          "type": "address"
        },
        {
          "indexed": true,
          "internalType": "address",
          "name": "operator",
          "type": "address"
        },
        {
          "indexed": false,
          "internalType": "bool",
          "name": "approved",
          "type": "bool"
        }
      ],
      "name": "ApprovalForAll",
      "type": "event"
    },
    {
      "anonymous": false,
      "inputs": [
        {
          "indexed": true,
          "internalType": "address",
          "name": "previousOwner",
          "type": "address"
        },
        {
          "indexed": true,
          "internalType": "address",
          "name": "newOwner",
          "type": "address"
        }
      ],
      "name": "OwnershipTransferred",
      "type": "event"
    },
    {
      "anonymous": false,
      "inputs": [
        {
          "indexed": false,
          "internalType": "address",
          "name": "account",
          "type": "address"
        }
      ],
      "name": "Paused",
      "type": "event"
    },
    {
      "anonymous": false,
      "inputs": [
        {
          "indexed": true,
          "internalType": "address",
          "name": "from",
          "type": "address"
        },
        {
          "indexed": true,
          "internalType": "address",
          "name": "to",
          "type": "address"
        },
        {
          "indexed": true,
          "internalType": "uint256",
          "name": "tokenId",
          "type": "uint256"
        }
      ],
      "name": "Transfer",
      "type": "event"
    },
    {
      "anonymous": false,
      "inputs": [
        {
          "indexed": false,
          "internalType": "address",
          "name": "account",
          "type": "address"
        }
      ],
      "name": "Unpaused",
      "type": "event"
    },
    {
      "inputs": [
        {
          "internalType": "address",
          "name": "to",
          "type": "address"
        },
        {
          "internalType": "uint256",
          "name": "tokenId",
          "type": "uint256"
        }
      ],
      "name": "approve",
      "outputs": [],
      "stateMutability": "nonpayable",
      "type": "function"
    },
    {
      "inputs": [],
      "name": "backendAddress",
      "outputs": [
        {
          "internalType": "address",
          "name": "",
          "type": "address"
        }
      ],
      "stateMutability": "view",
      "type": "function"
    },
    {
      "inputs": [
        {
          "internalType": "address",
          "name": "owner",
          "type": "address"
        }
      ],
      "name": "balanceOf",
      "outputs": [
        {
          "internalType": "uint256",
          "name": "",
          "type": "uint256"
        }
      ],
      "stateMutability": "view",
      "type": "function"
    },
    {
      "inputs": [
        {
          "components": [
            {
              "internalType": "address",
              "name": "to",
              "type": "address"
            },
            {
              "internalType": "uint256",
              "name": "tokenId",
              "type": "uint256"
            }
          ],
          "internalType": "struct ReputationBadge.MintParameters[]",
          "name": "tokensToMint",
          "type": "tuple[]"
        }
      ],
      "name": "batchMint",
      "outputs": [],
      "stateMutability": "nonpayable",
      "type": "function"
    },
    {
      "inputs": [
        {
          "internalType": "uint256",
          "name": "tokenId",
          "type": "uint256"
        }
      ],
      "name": "burn",
      "outputs": [],
      "stateMutability": "nonpayable",
      "type": "function"
    },
    {
      "inputs": [
        {
          "internalType": "address",
          "name": "newBackendAddress",
          "type": "address"
        }
      ],
      "name": "changeBackendAddress",
      "outputs": [],
      "stateMutability": "nonpayable",
      "type": "function"
    },
    {
      "inputs": [
        {
          "internalType": "string",
          "name": "baseURI",
          "type": "string"
        }
      ],
      "name": "changeBaseURI",
      "outputs": [],
      "stateMutability": "nonpayable",
      "type": "function"
    },
    {
      "inputs": [
        {
          "internalType": "uint256",
          "name": "tokenId",
          "type": "uint256"
        }
      ],
      "name": "exists",
      "outputs": [
        {
          "internalType": "bool",
          "name": "",
          "type": "bool"
        }
      ],
      "stateMutability": "view",
      "type": "function"
    },
    {
      "inputs": [
        {
          "internalType": "uint256",
          "name": "tokenId",
          "type": "uint256"
        }
      ],
      "name": "getApproved",
      "outputs": [
        {
          "internalType": "address",
          "name": "",
          "type": "address"
        }
      ],
      "stateMutability": "view",
      "type": "function"
    },
    {
      "inputs": [
        {
          "internalType": "string",
          "name": "name_",
          "type": "string"
        },
        {
          "internalType": "string",
          "name": "symbol_",
          "type": "string"
        },
        {
          "internalType": "address",
          "name": "backendAddress_",
          "type": "address"
        }
      ],
      "name": "initialize",
      "outputs": [],
      "stateMutability": "nonpayable",
      "type": "function"
    },
    {
      "inputs": [
        {
          "internalType": "address",
          "name": "owner",
          "type": "address"
        },
        {
          "internalType": "address",
          "name": "operator",
          "type": "address"
        }
      ],
      "name": "isApprovedForAll",
      "outputs": [
        {
          "internalType": "bool",
          "name": "",
          "type": "bool"
        }
      ],
      "stateMutability": "view",
      "type": "function"
    },
    {
      "inputs": [],
      "name": "name",
      "outputs": [
        {
          "internalType": "string",
          "name": "",
          "type": "string"
        }
      ],
      "stateMutability": "view",
      "type": "function"
    },
    {
      "inputs": [],
      "name": "owner",
      "outputs": [
        {
          "internalType": "address",
          "name": "",
          "type": "address"
        }
      ],
      "stateMutability": "view",
      "type": "function"
    },
    {
      "inputs": [
        {
          "internalType": "uint256",
          "name": "tokenId",
          "type": "uint256"
        }
      ],
      "name": "ownerOf",
      "outputs": [
        {
          "internalType": "address",
          "name": "",
          "type": "address"
        }
      ],
      "stateMutability": "view",
      "type": "function"
    },
    {
      "inputs": [],
      "name": "pause",
      "outputs": [],
      "stateMutability": "nonpayable",
      "type": "function"
    },
    {
      "inputs": [],
      "name": "paused",
      "outputs": [
        {
          "internalType": "bool",
          "name": "",
          "type": "bool"
        }
      ],
      "stateMutability": "view",
      "type": "function"
    },
    {
      "inputs": [],
      "name": "renounceOwnership",
      "outputs": [],
      "stateMutability": "nonpayable",
      "type": "function"
    },
    {
      "inputs": [
        {
          "internalType": "address",
          "name": "to",
          "type": "address"
        },
        {
          "internalType": "uint256",
          "name": "tokenId",
          "type": "uint256"
        }
      ],
      "name": "safeMint",
      "outputs": [],
      "stateMutability": "nonpayable",
      "type": "function"
    },
    {
      "inputs": [
        {
          "internalType": "address",
          "name": "from",
          "type": "address"
        },
        {
          "internalType": "address",
          "name": "to",
          "type": "address"
        },
        {
          "internalType": "uint256",
          "name": "tokenId",
          "type": "uint256"
        }
      ],
      "name": "safeTransferFrom",
      "outputs": [],
      "stateMutability": "nonpayable",
      "type": "function"
    },
    {
      "inputs": [
        {
          "internalType": "address",
          "name": "from",
          "type": "address"
        },
        {
          "internalType": "address",
          "name": "to",
          "type": "address"
        },
        {
          "internalType": "uint256",
          "name": "tokenId",
          "type": "uint256"
        },
        {
          "internalType": "bytes",
          "name": "_data",
          "type": "bytes"
        }
      ],
      "name": "safeTransferFrom",
      "outputs": [],
      "stateMutability": "nonpayable",
      "type": "function"
    },
    {
      "inputs": [
        {
          "internalType": "address",
          "name": "operator",
          "type": "address"
        },
        {
          "internalType": "bool",
          "name": "approved",
          "type": "bool"
        }
      ],
      "name": "setApprovalForAll",
      "outputs": [],
      "stateMutability": "nonpayable",
      "type": "function"
    },
    {
      "inputs": [
        {
          "internalType": "bytes4",
          "name": "interfaceId",
          "type": "bytes4"
        }
      ],
      "name": "supportsInterface",
      "outputs": [
        {
          "internalType": "bool",
          "name": "",
          "type": "bool"
        }
      ],
      "stateMutability": "view",
      "type": "function"
    },
    {
      "inputs": [],
      "name": "symbol",
      "outputs": [
        {
          "internalType": "string",
          "name": "",
          "type": "string"
        }
      ],
      "stateMutability": "view",
      "type": "function"
    },
    {
      "inputs": [
        {
          "internalType": "uint256",
          "name": "tokenId",
          "type": "uint256"
        }
      ],
      "name": "tokenURI",
      "outputs": [
        {
          "internalType": "string",
          "name": "",
          "type": "string"
        }
      ],
      "stateMutability": "view",
      "type": "function"
    },
    {
      "inputs": [
        {
          "internalType": "address",
          "name": "from",
          "type": "address"
        },
        {
          "internalType": "address",
          "name": "to",
          "type": "address"
        },
        {
          "internalType": "uint256",
          "name": "tokenId",
          "type": "uint256"
        }
      ],
      "name": "transferFrom",
      "outputs": [],
      "stateMutability": "nonpayable",
      "type": "function"
    },
    {
      "inputs": [
        {
          "internalType": "address",
          "name": "newOwner",
          "type": "address"
        }
      ],
      "name": "transferOwnership",
      "outputs": [],
      "stateMutability": "nonpayable",
      "type": "function"
    },
    {
      "inputs": [],
      "name": "unpause",
      "outputs": [],
      "stateMutability": "nonpayable",
      "type": "function"
    }
  ],
  "bytecode": "0x608060405234801561001057600080fd5b50613fec806100206000396000f3fe608060405234801561001057600080fd5b50600436106101a95760003560e01c80636352211e116100f9578063a144819411610097578063b88d4fde11610071578063b88d4fde1461046a578063c87b56dd14610486578063e985e9c5146104b6578063f2fde38b146104e6576101a9565b8063a144819414610416578063a22cb46514610432578063b7f0295c1461044e576101a9565b80638456cb59116100d35780638456cb59146103b45780638da5cb5b146103be5780639386e197146103dc57806395d89b41146103f8576101a9565b80636352211e1461034a57806370a082311461037a578063715018a6146103aa576101a9565b806323b872dd1161016657806342842e0e1161014057806342842e0e146102c457806342966c68146102e05780634f558e79146102fc5780635c975abb1461032c576101a9565b806323b872dd1461028257806339a0c6f91461029e5780633f4ba83a146102ba576101a9565b806301ffc9a7146101ae57806306fdde03146101de578063077f224a146101fc578063081812fc14610218578063095ea7b3146102485780630d72d57f14610264575b600080fd5b6101c860048036038101906101c39190612e8e565b610502565b6040516101d59190613878565b60405180910390f35b6101e66105e4565b6040516101f39190613893565b60405180910390f35b61021660048036038101906102119190612f21565b610676565b005b610232600480360381019061022d9190612fa0565b6107c6565b60405161023f9190613811565b60405180910390f35b610262600480360381019061025d9190612e11565b61084b565b005b61026c610963565b6040516102799190613811565b60405180910390f35b61029c60048036038101906102979190612d0b565b61098e565b005b6102b860048036038101906102b39190612ee0565b6109ee565b005b6102c2610a85565b005b6102de60048036038101906102d99190612d0b565b610b0b565b005b6102fa60048036038101906102f59190612fa0565b610b2b565b005b61031660048036038101906103119190612fa0565b610b87565b6040516103239190613878565b60405180910390f35b610334610b99565b6040516103419190613878565b60405180910390f35b610364600480360381019061035f9190612fa0565b610bb0565b6040516103719190613811565b60405180910390f35b610394600480360381019061038f9190612ca6565b610c62565b6040516103a19190613b55565b60405180910390f35b6103b2610d1a565b005b6103bc610da2565b005b6103c6610e28565b6040516103d39190613811565b60405180910390f35b6103f660048036038101906103f19190612e4d565b610e52565b005b610400610f98565b60405161040d9190613893565b60405180910390f35b610430600480360381019061042b9190612e11565b61102a565b005b61044c60048036038101906104479190612dd5565b6110c9565b005b61046860048036038101906104639190612ca6565b61124a565b005b610484600480360381019061047f9190612d5a565b61130b565b005b6104a0600480360381019061049b9190612fa0565b61136d565b6040516104ad9190613893565b60405180910390f35b6104d060048036038101906104cb9190612ccf565b611414565b6040516104dd9190613878565b60405180910390f35b61050060048036038101906104fb9190612ca6565b6114a8565b005b60007f80ac58cd000000000000000000000000000000000000000000000000000000007bffffffffffffffffffffffffffffffffffffffffffffffffffffffff1916827bffffffffffffffffffffffffffffffffffffffffffffffffffffffff191614806105cd57507f5b5e139f000000000000000000000000000000000000000000000000000000007bffffffffffffffffffffffffffffffffffffffffffffffffffffffff1916827bffffffffffffffffffffffffffffffffffffffffffffffffffffffff1916145b806105dd57506105dc826115a0565b5b9050919050565b6060606580546105f390613de1565b80601f016020809104026020016040519081016040528092919081815260200182805461061f90613de1565b801561066c5780601f106106415761010080835404028352916020019161066c565b820191906000526020600020905b81548152906001019060200180831161064f57829003601f168201915b5050505050905090565b600060019054906101000a900460ff168061069c575060008054906101000a900460ff16155b6106db576040517f08c379a00000000000000000000000000000000000000000000000000000000081526004016106d290613a35565b60405180910390fd5b60008060019054906101000a900460ff16159050801561072b576001600060016101000a81548160ff02191690831515021790555060016000806101000a81548160ff0219169083151502179055505b61073361160a565b61073b6116e3565b6107436117d7565b61074b6118c0565b6107558484611999565b61075d611aa2565b8161012d60006101000a81548173ffffffffffffffffffffffffffffffffffffffff021916908373ffffffffffffffffffffffffffffffffffffffff16021790555080156107c05760008060016101000a81548160ff0219169083151502179055505b50505050565b60006107d182611b7b565b610810576040517f08c379a000000000000000000000000000000000000000000000000000000000815260040161080790613a75565b60405180910390fd5b6069600083815260200190815260200160002060009054906101000a900473ffffffffffffffffffffffffffffffffffffffff169050919050565b600061085682610bb0565b90508073ffffffffffffffffffffffffffffffffffffffff168373ffffffffffffffffffffffffffffffffffffffff1614156108c7576040517f08c379a00000000000000000000000000000000000000000000000000000000081526004016108be90613af5565b60405180910390fd5b8073ffffffffffffffffffffffffffffffffffffffff166108e6611be7565b73ffffffffffffffffffffffffffffffffffffffff16148061091557506109148161090f611be7565b611414565b5b610954576040517f08c379a000000000000000000000000000000000000000000000000000000000815260040161094b906139d5565b60405180910390fd5b61095e8383611bef565b505050565b600061012d60009054906101000a900473ffffffffffffffffffffffffffffffffffffffff16905090565b61099f610999611be7565b82611ca8565b6109de576040517f08c379a00000000000000000000000000000000000000000000000000000000081526004016109d590613b15565b60405180910390fd5b6109e9838383611d86565b505050565b6109f6611be7565b73ffffffffffffffffffffffffffffffffffffffff16610a14610e28565b73ffffffffffffffffffffffffffffffffffffffff1614610a6a576040517f08c379a0000000000000000000000000000000000000000000000000000000008152600401610a6190613a95565b60405180910390fd5b8061012e9080519060200190610a819291906129e8565b5050565b610a8d611be7565b73ffffffffffffffffffffffffffffffffffffffff16610aab610e28565b73ffffffffffffffffffffffffffffffffffffffff1614610b01576040517f08c379a0000000000000000000000000000000000000000000000000000000008152600401610af890613a95565b60405180910390fd5b610b09611fe2565b565b610b268383836040518060200160405280600081525061130b565b505050565b610b3c610b36611be7565b82611ca8565b610b7b576040517f08c379a0000000000000000000000000000000000000000000000000000000008152600401610b7290613b35565b60405180910390fd5b610b8481612084565b50565b6000610b9282611b7b565b9050919050565b6000609760009054906101000a900460ff16905090565b6000806067600084815260200190815260200160002060009054906101000a900473ffffffffffffffffffffffffffffffffffffffff169050600073ffffffffffffffffffffffffffffffffffffffff168173ffffffffffffffffffffffffffffffffffffffff161415610c59576040517f08c379a0000000000000000000000000000000000000000000000000000000008152600401610c5090613a15565b60405180910390fd5b80915050919050565b60008073ffffffffffffffffffffffffffffffffffffffff168273ffffffffffffffffffffffffffffffffffffffff161415610cd3576040517f08c379a0000000000000000000000000000000000000000000000000000000008152600401610cca906139f5565b60405180910390fd5b606860008373ffffffffffffffffffffffffffffffffffffffff1673ffffffffffffffffffffffffffffffffffffffff168152602001908152602001600020549050919050565b610d22611be7565b73ffffffffffffffffffffffffffffffffffffffff16610d40610e28565b73ffffffffffffffffffffffffffffffffffffffff1614610d96576040517f08c379a0000000000000000000000000000000000000000000000000000000008152600401610d8d90613a95565b60405180910390fd5b610da06000612195565b565b610daa611be7565b73ffffffffffffffffffffffffffffffffffffffff16610dc8610e28565b73ffffffffffffffffffffffffffffffffffffffff1614610e1e576040517f08c379a0000000000000000000000000000000000000000000000000000000008152600401610e1590613a95565b60405180910390fd5b610e2661225b565b565b600060c960009054906101000a900473ffffffffffffffffffffffffffffffffffffffff16905090565b61012d60009054906101000a900473ffffffffffffffffffffffffffffffffffffffff1673ffffffffffffffffffffffffffffffffffffffff163373ffffffffffffffffffffffffffffffffffffffff1614610ee3576040517f08c379a0000000000000000000000000000000000000000000000000000000008152600401610eda906138d5565b60405180910390fd5b60005b8151811015610f9457610f81828281518110610f2b577f4e487b7100000000000000000000000000000000000000000000000000000000600052603260045260246000fd5b602002602001015160000151838381518110610f70577f4e487b7100000000000000000000000000000000000000000000000000000000600052603260045260246000fd5b6020026020010151602001516122fe565b8080610f8c90613e13565b915050610ee6565b5050565b606060668054610fa790613de1565b80601f0160208091040260200160405190810160405280929190818152602001828054610fd390613de1565b80156110205780601f10610ff557610100808354040283529160200191611020565b820191906000526020600020905b81548152906001019060200180831161100357829003601f168201915b5050505050905090565b61012d60009054906101000a900473ffffffffffffffffffffffffffffffffffffffff1673ffffffffffffffffffffffffffffffffffffffff163373ffffffffffffffffffffffffffffffffffffffff16146110bb576040517f08c379a00000000000000000000000000000000000000000000000000000000081526004016110b2906138d5565b60405180910390fd5b6110c582826122fe565b5050565b6110d1611be7565b73ffffffffffffffffffffffffffffffffffffffff168273ffffffffffffffffffffffffffffffffffffffff16141561113f576040517f08c379a000000000000000000000000000000000000000000000000000000000815260040161113690613975565b60405180910390fd5b80606a600061114c611be7565b73ffffffffffffffffffffffffffffffffffffffff1673ffffffffffffffffffffffffffffffffffffffff16815260200190815260200160002060008473ffffffffffffffffffffffffffffffffffffffff1673ffffffffffffffffffffffffffffffffffffffff16815260200190815260200160002060006101000a81548160ff0219169083151502179055508173ffffffffffffffffffffffffffffffffffffffff166111f9611be7565b73ffffffffffffffffffffffffffffffffffffffff167f17307eab39ab6107e8899845ad3d59bd9653f200f220920489ca2b5937696c318360405161123e9190613878565b60405180910390a35050565b611252611be7565b73ffffffffffffffffffffffffffffffffffffffff16611270610e28565b73ffffffffffffffffffffffffffffffffffffffff16146112c6576040517f08c379a00000000000000000000000000000000000000000000000000000000081526004016112bd90613a95565b60405180910390fd5b8061012d60006101000a81548173ffffffffffffffffffffffffffffffffffffffff021916908373ffffffffffffffffffffffffffffffffffffffff16021790555050565b61131c611316611be7565b83611ca8565b61135b576040517f08c379a000000000000000000000000000000000000000000000000000000000815260040161135290613b15565b60405180910390fd5b6113678484848461231c565b50505050565b606061137882611b7b565b6113b7576040517f08c379a00000000000000000000000000000000000000000000000000000000081526004016113ae90613ad5565b60405180910390fd5b60006113c1612378565b905060008151116113e1576040518060200160405280600081525061140c565b806113eb8461240b565b6040516020016113fc9291906137ed565b6040516020818303038152906040525b915050919050565b6000606a60008473ffffffffffffffffffffffffffffffffffffffff1673ffffffffffffffffffffffffffffffffffffffff16815260200190815260200160002060008373ffffffffffffffffffffffffffffffffffffffff1673ffffffffffffffffffffffffffffffffffffffff16815260200190815260200160002060009054906101000a900460ff16905092915050565b6114b0611be7565b73ffffffffffffffffffffffffffffffffffffffff166114ce610e28565b73ffffffffffffffffffffffffffffffffffffffff1614611524576040517f08c379a000000000000000000000000000000000000000000000000000000000815260040161151b90613a95565b60405180910390fd5b600073ffffffffffffffffffffffffffffffffffffffff168173ffffffffffffffffffffffffffffffffffffffff161415611594576040517f08c379a000000000000000000000000000000000000000000000000000000000815260040161158b90613915565b60405180910390fd5b61159d81612195565b50565b60007f01ffc9a7000000000000000000000000000000000000000000000000000000007bffffffffffffffffffffffffffffffffffffffffffffffffffffffff1916827bffffffffffffffffffffffffffffffffffffffffffffffffffffffff1916149050919050565b600060019054906101000a900460ff1680611630575060008054906101000a900460ff16155b61166f576040517f08c379a000000000000000000000000000000000000000000000000000000000815260040161166690613a35565b60405180910390fd5b60008060019054906101000a900460ff1615905080156116bf576001600060016101000a81548160ff02191690831515021790555060016000806101000a81548160ff0219169083151502179055505b80156116e05760008060016101000a81548160ff0219169083151502179055505b50565b600060019054906101000a900460ff1680611709575060008054906101000a900460ff16155b611748576040517f08c379a000000000000000000000000000000000000000000000000000000000815260040161173f90613a35565b60405180910390fd5b60008060019054906101000a900460ff161590508015611798576001600060016101000a81548160ff02191690831515021790555060016000806101000a81548160ff0219169083151502179055505b6000609760006101000a81548160ff02191690831515021790555080156117d45760008060016101000a81548160ff0219169083151502179055505b50565b600060019054906101000a900460ff16806117fd575060008054906101000a900460ff16155b61183c576040517f08c379a000000000000000000000000000000000000000000000000000000000815260040161183390613a35565b60405180910390fd5b60008060019054906101000a900460ff16159050801561188c576001600060016101000a81548160ff02191690831515021790555060016000806101000a81548160ff0219169083151502179055505b61189c611897611be7565b612195565b80156118bd5760008060016101000a81548160ff0219169083151502179055505b50565b600060019054906101000a900460ff16806118e6575060008054906101000a900460ff16155b611925576040517f08c379a000000000000000000000000000000000000000000000000000000000815260040161191c90613a35565b60405180910390fd5b60008060019054906101000a900460ff161590508015611975576001600060016101000a81548160ff02191690831515021790555060016000806101000a81548160ff0219169083151502179055505b80156119965760008060016101000a81548160ff0219169083151502179055505b50565b600060019054906101000a900460ff16806119bf575060008054906101000a900460ff16155b6119fe576040517f08c379a00000000000000000000000000000000000000000000000000000000081526004016119f590613a35565b60405180910390fd5b60008060019054906101000a900460ff161590508015611a4e576001600060016101000a81548160ff02191690831515021790555060016000806101000a81548160ff0219169083151502179055505b8260659080519060200190611a649291906129e8565b508160669080519060200190611a7b9291906129e8565b508015611a9d5760008060016101000a81548160ff0219169083151502179055505b505050565b600060019054906101000a900460ff1680611ac8575060008054906101000a900460ff16155b611b07576040517f08c379a0000000000000000000000000000000000000000000000000000000008152600401611afe90613a35565b60405180910390fd5b60008060019054906101000a900460ff161590508015611b57576001600060016101000a81548160ff02191690831515021790555060016000806101000a81548160ff0219169083151502179055505b8015611b785760008060016101000a81548160ff0219169083151502179055505b50565b60008073ffffffffffffffffffffffffffffffffffffffff166067600084815260200190815260200160002060009054906101000a900473ffffffffffffffffffffffffffffffffffffffff1673ffffffffffffffffffffffffffffffffffffffff1614159050919050565b600033905090565b816069600083815260200190815260200160002060006101000a81548173ffffffffffffffffffffffffffffffffffffffff021916908373ffffffffffffffffffffffffffffffffffffffff160217905550808273ffffffffffffffffffffffffffffffffffffffff16611c6283610bb0565b73ffffffffffffffffffffffffffffffffffffffff167f8c5be1e5ebec7d5bd14f71427d1e84f3dd0314c0f7b2291e5b200ac8c7c3b92560405160405180910390a45050565b6000611cb382611b7b565b611cf2576040517f08c379a0000000000000000000000000000000000000000000000000000000008152600401611ce990613995565b60405180910390fd5b6000611cfd83610bb0565b90508073ffffffffffffffffffffffffffffffffffffffff168473ffffffffffffffffffffffffffffffffffffffff161480611d6c57508373ffffffffffffffffffffffffffffffffffffffff16611d54846107c6565b73ffffffffffffffffffffffffffffffffffffffff16145b80611d7d5750611d7c8185611414565b5b91505092915050565b8273ffffffffffffffffffffffffffffffffffffffff16611da682610bb0565b73ffffffffffffffffffffffffffffffffffffffff1614611dfc576040517f08c379a0000000000000000000000000000000000000000000000000000000008152600401611df390613ab5565b60405180910390fd5b600073ffffffffffffffffffffffffffffffffffffffff168273ffffffffffffffffffffffffffffffffffffffff161415611e6c576040517f08c379a0000000000000000000000000000000000000000000000000000000008152600401611e6390613955565b60405180910390fd5b611e778383836125b8565b611e82600082611bef565b6001606860008573ffffffffffffffffffffffffffffffffffffffff1673ffffffffffffffffffffffffffffffffffffffff1681526020019081526020016000206000828254611ed29190613cf7565b925050819055506001606860008473ffffffffffffffffffffffffffffffffffffffff1673ffffffffffffffffffffffffffffffffffffffff1681526020019081526020016000206000828254611f299190613c70565b92505081905550816067600083815260200190815260200160002060006101000a81548173ffffffffffffffffffffffffffffffffffffffff021916908373ffffffffffffffffffffffffffffffffffffffff160217905550808273ffffffffffffffffffffffffffffffffffffffff168473ffffffffffffffffffffffffffffffffffffffff167fddf252ad1be2c89b69c2b068fc378daa952ba7f163c4a11628f55a4df523b3ef60405160405180910390a4505050565b611fea610b99565b612029576040517f08c379a0000000000000000000000000000000000000000000000000000000008152600401612020906138b5565b60405180910390fd5b6000609760006101000a81548160ff0219169083151502179055507f5db9ee0a495bf2e6ff9c91a7834c1ba4fdd244a5e8aa4e537bd38aeae4b073aa61206d611be7565b60405161207a9190613811565b60405180910390a1565b600061208f82610bb0565b905061209d816000846125b8565b6120a8600083611bef565b6001606860008373ffffffffffffffffffffffffffffffffffffffff1673ffffffffffffffffffffffffffffffffffffffff16815260200190815260200160002060008282546120f89190613cf7565b925050819055506067600083815260200190815260200160002060006101000a81549073ffffffffffffffffffffffffffffffffffffffff021916905581600073ffffffffffffffffffffffffffffffffffffffff168273ffffffffffffffffffffffffffffffffffffffff167fddf252ad1be2c89b69c2b068fc378daa952ba7f163c4a11628f55a4df523b3ef60405160405180910390a45050565b600060c960009054906101000a900473ffffffffffffffffffffffffffffffffffffffff1690508160c960006101000a81548173ffffffffffffffffffffffffffffffffffffffff021916908373ffffffffffffffffffffffffffffffffffffffff1602179055508173ffffffffffffffffffffffffffffffffffffffff168173ffffffffffffffffffffffffffffffffffffffff167f8be0079c531659141344cd1fd0a4f28419497f9722a3daafe3b4186f6b6457e060405160405180910390a35050565b612263610b99565b156122a3576040517f08c379a000000000000000000000000000000000000000000000000000000000815260040161229a906139b5565b60405180910390fd5b6001609760006101000a81548160ff0219169083151502179055507f62e78cea01bee320cd4e420270b5ea74000d11b0c9f74754ebdbfc544b05a2586122e7611be7565b6040516122f49190613811565b60405180910390a1565b612318828260405180602001604052806000815250612610565b5050565b612327848484611d86565b6123338484848461266b565b612372576040517f08c379a0000000000000000000000000000000000000000000000000000000008152600401612369906138f5565b60405180910390fd5b50505050565b606061012e805461238890613de1565b80601f01602080910402602001604051908101604052809291908181526020018280546123b490613de1565b80156124015780601f106123d657610100808354040283529160200191612401565b820191906000526020600020905b8154815290600101906020018083116123e457829003601f168201915b5050505050905090565b60606000821415612453576040518060400160405280600181526020017f300000000000000000000000000000000000000000000000000000000000000081525090506125b3565b600082905060005b6000821461248557808061246e90613e13565b915050600a8261247e9190613cc6565b915061245b565b60008167ffffffffffffffff8111156124c7577f4e487b7100000000000000000000000000000000000000000000000000000000600052604160045260246000fd5b6040519080825280601f01601f1916602001820160405280156124f95781602001600182028036833780820191505090505b5090505b600085146125ac576001826125129190613cf7565b9150600a856125219190613e5c565b603061252d9190613c70565b60f81b818381518110612569577f4e487b7100000000000000000000000000000000000000000000000000000000600052603260045260246000fd5b60200101907effffffffffffffffffffffffffffffffffffffffffffffffffffffffffffff1916908160001a905350600a856125a59190613cc6565b94506124fd565b8093505050505b919050565b6125c0610b99565b15612600576040517f08c379a00000000000000000000000000000000000000000000000000000000081526004016125f7906139b5565b60405180910390fd5b61260b838383612802565b505050565b61261a8383612807565b612627600084848461266b565b612666576040517f08c379a000000000000000000000000000000000000000000000000000000000815260040161265d906138f5565b60405180910390fd5b505050565b600061268c8473ffffffffffffffffffffffffffffffffffffffff166129d5565b156127f5578373ffffffffffffffffffffffffffffffffffffffff1663150b7a026126b5611be7565b8786866040518563ffffffff1660e01b81526004016126d7949392919061382c565b602060405180830381600087803b1580156126f157600080fd5b505af192505050801561272257506040513d601f19601f8201168201806040525081019061271f9190612eb7565b60015b6127a5573d8060008114612752576040519150601f19603f3d011682016040523d82523d6000602084013e612757565b606091505b5060008151141561279d576040517f08c379a0000000000000000000000000000000000000000000000000000000008152600401612794906138f5565b60405180910390fd5b805181602001fd5b63150b7a0260e01b7bffffffffffffffffffffffffffffffffffffffffffffffffffffffff1916817bffffffffffffffffffffffffffffffffffffffffffffffffffffffff1916149150506127fa565b600190505b949350505050565b505050565b600073ffffffffffffffffffffffffffffffffffffffff168273ffffffffffffffffffffffffffffffffffffffff161415612877576040517f08c379a000000000000000000000000000000000000000000000000000000000815260040161286e90613a55565b60405180910390fd5b61288081611b7b565b156128c0576040517f08c379a00000000000000000000000000000000000000000000000000000000081526004016128b790613935565b60405180910390fd5b6128cc600083836125b8565b6001606860008473ffffffffffffffffffffffffffffffffffffffff1673ffffffffffffffffffffffffffffffffffffffff168152602001908152602001600020600082825461291c9190613c70565b92505081905550816067600083815260200190815260200160002060006101000a81548173ffffffffffffffffffffffffffffffffffffffff021916908373ffffffffffffffffffffffffffffffffffffffff160217905550808273ffffffffffffffffffffffffffffffffffffffff16600073ffffffffffffffffffffffffffffffffffffffff167fddf252ad1be2c89b69c2b068fc378daa952ba7f163c4a11628f55a4df523b3ef60405160405180910390a45050565b600080823b905060008111915050919050565b8280546129f490613de1565b90600052602060002090601f016020900481019282612a165760008555612a5d565b82601f10612a2f57805160ff1916838001178555612a5d565b82800160010185558215612a5d579182015b82811115612a5c578251825591602001919060010190612a41565b5b509050612a6a9190612a6e565b5090565b5b80821115612a87576000816000905550600101612a6f565b5090565b6000612a9e612a9984613ba1565b613b70565b90508083825260208201905082856040860282011115612abd57600080fd5b60005b85811015612aed5781612ad38882612c45565b845260208401935060408301925050600181019050612ac0565b5050509392505050565b6000612b0a612b0584613bcd565b613b70565b905082815260208101848484011115612b2257600080fd5b612b2d848285613d9f565b509392505050565b6000612b48612b4384613bfd565b613b70565b905082815260208101848484011115612b6057600080fd5b612b6b848285613d9f565b509392505050565b600081359050612b8281613f5a565b92915050565b600082601f830112612b9957600080fd5b8135612ba9848260208601612a8b565b91505092915050565b600081359050612bc181613f71565b92915050565b600081359050612bd681613f88565b92915050565b600081519050612beb81613f88565b92915050565b600082601f830112612c0257600080fd5b8135612c12848260208601612af7565b91505092915050565b600082601f830112612c2c57600080fd5b8135612c3c848260208601612b35565b91505092915050565b600060408284031215612c5757600080fd5b612c616040613b70565b90506000612c7184828501612b73565b6000830152506020612c8584828501612c91565b60208301525092915050565b600081359050612ca081613f9f565b92915050565b600060208284031215612cb857600080fd5b6000612cc684828501612b73565b91505092915050565b60008060408385031215612ce257600080fd5b6000612cf085828601612b73565b9250506020612d0185828601612b73565b9150509250929050565b600080600060608486031215612d2057600080fd5b6000612d2e86828701612b73565b9350506020612d3f86828701612b73565b9250506040612d5086828701612c91565b9150509250925092565b60008060008060808587031215612d7057600080fd5b6000612d7e87828801612b73565b9450506020612d8f87828801612b73565b9350506040612da087828801612c91565b925050606085013567ffffffffffffffff811115612dbd57600080fd5b612dc987828801612bf1565b91505092959194509250565b60008060408385031215612de857600080fd5b6000612df685828601612b73565b9250506020612e0785828601612bb2565b9150509250929050565b60008060408385031215612e2457600080fd5b6000612e3285828601612b73565b9250506020612e4385828601612c91565b9150509250929050565b600060208284031215612e5f57600080fd5b600082013567ffffffffffffffff811115612e7957600080fd5b612e8584828501612b88565b91505092915050565b600060208284031215612ea057600080fd5b6000612eae84828501612bc7565b91505092915050565b600060208284031215612ec957600080fd5b6000612ed784828501612bdc565b91505092915050565b600060208284031215612ef257600080fd5b600082013567ffffffffffffffff811115612f0c57600080fd5b612f1884828501612c1b565b91505092915050565b600080600060608486031215612f3657600080fd5b600084013567ffffffffffffffff811115612f5057600080fd5b612f5c86828701612c1b565b935050602084013567ffffffffffffffff811115612f7957600080fd5b612f8586828701612c1b565b9250506040612f9686828701612b73565b9150509250925092565b600060208284031215612fb257600080fd5b6000612fc084828501612c91565b91505092915050565b612fd281613d2b565b82525050565b612fe181613d3d565b82525050565b6000612ff282613c2d565b612ffc8185613c43565b935061300c818560208601613dae565b61301581613f49565b840191505092915050565b600061302b82613c38565b6130358185613c54565b9350613045818560208601613dae565b61304e81613f49565b840191505092915050565b600061306482613c38565b61306e8185613c65565b935061307e818560208601613dae565b80840191505092915050565b6000613097601483613c54565b91507f5061757361626c653a206e6f74207061757365640000000000000000000000006000830152602082019050919050565b60006130d7600c83613c54565b91507f556e617574686f72697a656400000000000000000000000000000000000000006000830152602082019050919050565b6000613117603283613c54565b91507f4552433732313a207472616e7366657220746f206e6f6e20455243373231526560008301527f63656976657220696d706c656d656e74657200000000000000000000000000006020830152604082019050919050565b600061317d602683613c54565b91507f4f776e61626c653a206e6577206f776e657220697320746865207a65726f206160008301527f64647265737300000000000000000000000000000000000000000000000000006020830152604082019050919050565b60006131e3601c83613c54565b91507f4552433732313a20746f6b656e20616c7265616479206d696e746564000000006000830152602082019050919050565b6000613223602483613c54565b91507f4552433732313a207472616e7366657220746f20746865207a65726f2061646460008301527f72657373000000000000000000000000000000000000000000000000000000006020830152604082019050919050565b6000613289601983613c54565b91507f4552433732313a20617070726f766520746f2063616c6c6572000000000000006000830152602082019050919050565b60006132c9602c83613c54565b91507f4552433732313a206f70657261746f7220717565727920666f72206e6f6e657860008301527f697374656e7420746f6b656e00000000000000000000000000000000000000006020830152604082019050919050565b600061332f601083613c54565b91507f5061757361626c653a20706175736564000000000000000000000000000000006000830152602082019050919050565b600061336f603883613c54565b91507f4552433732313a20617070726f76652063616c6c6572206973206e6f74206f7760008301527f6e6572206e6f7220617070726f76656420666f7220616c6c00000000000000006020830152604082019050919050565b60006133d5602a83613c54565b91507f4552433732313a2062616c616e636520717565727920666f7220746865207a6560008301527f726f2061646472657373000000000000000000000000000000000000000000006020830152604082019050919050565b600061343b602983613c54565b91507f4552433732313a206f776e657220717565727920666f72206e6f6e657869737460008301527f656e7420746f6b656e00000000000000000000000000000000000000000000006020830152604082019050919050565b60006134a1602e83613c54565b91507f496e697469616c697a61626c653a20636f6e747261637420697320616c72656160008301527f647920696e697469616c697a65640000000000000000000000000000000000006020830152604082019050919050565b6000613507602083613c54565b91507f4552433732313a206d696e7420746f20746865207a65726f20616464726573736000830152602082019050919050565b6000613547602c83613c54565b91507f4552433732313a20617070726f76656420717565727920666f72206e6f6e657860008301527f697374656e7420746f6b656e00000000000000000000000000000000000000006020830152604082019050919050565b60006135ad602083613c54565b91507f4f776e61626c653a2063616c6c6572206973206e6f7420746865206f776e65726000830152602082019050919050565b60006135ed602983613c54565b91507f4552433732313a207472616e73666572206f6620746f6b656e2074686174206960008301527f73206e6f74206f776e00000000000000000000000000000000000000000000006020830152604082019050919050565b6000613653602f83613c54565b91507f4552433732314d657461646174613a2055524920717565727920666f72206e6f60008301527f6e6578697374656e7420746f6b656e00000000000000000000000000000000006020830152604082019050919050565b60006136b9602183613c54565b91507f4552433732313a20617070726f76616c20746f2063757272656e74206f776e6560008301527f72000000000000000000000000000000000000000000000000000000000000006020830152604082019050919050565b600061371f603183613c54565b91507f4552433732313a207472616e736665722063616c6c6572206973206e6f74206f60008301527f776e6572206e6f7220617070726f7665640000000000000000000000000000006020830152604082019050919050565b6000613785603083613c54565b91507f4552433732314275726e61626c653a2063616c6c6572206973206e6f74206f7760008301527f6e6572206e6f7220617070726f766564000000000000000000000000000000006020830152604082019050919050565b6137e781613d95565b82525050565b60006137f98285613059565b91506138058284613059565b91508190509392505050565b60006020820190506138266000830184612fc9565b92915050565b60006080820190506138416000830187612fc9565b61384e6020830186612fc9565b61385b60408301856137de565b818103606083015261386d8184612fe7565b905095945050505050565b600060208201905061388d6000830184612fd8565b92915050565b600060208201905081810360008301526138ad8184613020565b905092915050565b600060208201905081810360008301526138ce8161308a565b9050919050565b600060208201905081810360008301526138ee816130ca565b9050919050565b6000602082019050818103600083015261390e8161310a565b9050919050565b6000602082019050818103600083015261392e81613170565b9050919050565b6000602082019050818103600083015261394e816131d6565b9050919050565b6000602082019050818103600083015261396e81613216565b9050919050565b6000602082019050818103600083015261398e8161327c565b9050919050565b600060208201905081810360008301526139ae816132bc565b9050919050565b600060208201905081810360008301526139ce81613322565b9050919050565b600060208201905081810360008301526139ee81613362565b9050919050565b60006020820190508181036000830152613a0e816133c8565b9050919050565b60006020820190508181036000830152613a2e8161342e565b9050919050565b60006020820190508181036000830152613a4e81613494565b9050919050565b60006020820190508181036000830152613a6e816134fa565b9050919050565b60006020820190508181036000830152613a8e8161353a565b9050919050565b60006020820190508181036000830152613aae816135a0565b9050919050565b60006020820190508181036000830152613ace816135e0565b9050919050565b60006020820190508181036000830152613aee81613646565b9050919050565b60006020820190508181036000830152613b0e816136ac565b9050919050565b60006020820190508181036000830152613b2e81613712565b9050919050565b60006020820190508181036000830152613b4e81613778565b9050919050565b6000602082019050613b6a60008301846137de565b92915050565b6000604051905081810181811067ffffffffffffffff82111715613b9757613b96613f1a565b5b8060405250919050565b600067ffffffffffffffff821115613bbc57613bbb613f1a565b5b602082029050602081019050919050565b600067ffffffffffffffff821115613be857613be7613f1a565b5b601f19601f8301169050602081019050919050565b600067ffffffffffffffff821115613c1857613c17613f1a565b5b601f19601f8301169050602081019050919050565b600081519050919050565b600081519050919050565b600082825260208201905092915050565b600082825260208201905092915050565b600081905092915050565b6000613c7b82613d95565b9150613c8683613d95565b9250827fffffffffffffffffffffffffffffffffffffffffffffffffffffffffffffffff03821115613cbb57613cba613e8d565b5b828201905092915050565b6000613cd182613d95565b9150613cdc83613d95565b925082613cec57613ceb613ebc565b5b828204905092915050565b6000613d0282613d95565b9150613d0d83613d95565b925082821015613d2057613d1f613e8d565b5b828203905092915050565b6000613d3682613d75565b9050919050565b60008115159050919050565b60007fffffffff0000000000000000000000000000000000000000000000000000000082169050919050565b600073ffffffffffffffffffffffffffffffffffffffff82169050919050565b6000819050919050565b82818337600083830152505050565b60005b83811015613dcc578082015181840152602081019050613db1565b83811115613ddb576000848401525b50505050565b60006002820490506001821680613df957607f821691505b60208210811415613e0d57613e0c613eeb565b5b50919050565b6000613e1e82613d95565b91507fffffffffffffffffffffffffffffffffffffffffffffffffffffffffffffffff821415613e5157613e50613e8d565b5b600182019050919050565b6000613e6782613d95565b9150613e7283613d95565b925082613e8257613e81613ebc565b5b828206905092915050565b7f4e487b7100000000000000000000000000000000000000000000000000000000600052601160045260246000fd5b7f4e487b7100000000000000000000000000000000000000000000000000000000600052601260045260246000fd5b7f4e487b7100000000000000000000000000000000000000000000000000000000600052602260045260246000fd5b7f4e487b7100000000000000000000000000000000000000000000000000000000600052604160045260246000fd5b6000601f19601f8301169050919050565b613f6381613d2b565b8114613f6e57600080fd5b50565b613f7a81613d3d565b8114613f8557600080fd5b50565b613f9181613d49565b8114613f9c57600080fd5b50565b613fa881613d95565b8114613fb357600080fd5b5056fea264697066735822122003fc879d6d94267f40371f06718c1c1b2d65f1d0e0105d26c9f4528cd10b98a164736f6c63430008000033",
  "linkReferences": {},
  "deployedLinkReferences": {}
}