{
  "_format": "hh-sol-artifact-1",
  "contractName": "Hash",
  "sourceName": "contracts/Hash.sol",
  "abi": [
    {
      "inputs": [
        {
          "internalType": "uint256[2]",
          "name": "input",
          "type": "uint256[2]"
        }
      ],
      "name": "poseidon",
      "outputs": [
        {
          "internalType": "uint256",
          "name": "",
          "type": "uint256"
        }
      ],
      "stateMutability": "pure",
      "type": "function"
    }
  ],
  "bytecode": "0x610240610053600b82828239805160001a607314610046577f4e487b7100000000000000000000000000000000000000000000000000000000600052600060045260246000fd5b30600052607381538281f3fe73000000000000000000000000000000000000000030146080604052600436106100355760003560e01c806329a5f2f61461003a575b600080fd5b610054600480360381019061004f9190610110565b61006a565b6040516100619190610148565b60405180910390f35b6000919050565b600061008461007f84610194565b610163565b9050808285602086028201111561009a57600080fd5b60005b858110156100ca57816100b088826100fb565b84526020840193506020830192505060018101905061009d565b5050509392505050565b600082601f8301126100e557600080fd5b60026100f2848285610071565b91505092915050565b60008135905061010a816101f3565b92915050565b60006040828403121561012257600080fd5b6000610130848285016100d4565b91505092915050565b610142816101ba565b82525050565b600060208201905061015d6000830184610139565b92915050565b6000604051905081810181811067ffffffffffffffff8211171561018a576101896101c4565b5b8060405250919050565b600067ffffffffffffffff8211156101af576101ae6101c4565b5b602082029050919050565b6000819050919050565b7f4e487b7100000000000000000000000000000000000000000000000000000000600052604160045260246000fd5b6101fc816101ba565b811461020757600080fd5b5056fea2646970667358221220d2742a3320c5fd34ca15bac95ca409fff39c9857792765061b3cca1f147da54b64736f6c63430008000033",
  "linkReferences": {},
  "deployedLinkReferences": {}
}