{
  "_format": "hh-sol-artifact-1",
  "contractName": "InterRepGroups",
  "sourceName": "contracts/InterRepGroups.sol",
  "abi": [
    {
      "anonymous": false,
      "inputs": [
        {
          "indexed": true,
          "internalType": "bytes32",
          "name": "_groupId",
          "type": "bytes32"
        },
        {
          "indexed": false,
          "internalType": "uint256",
          "name": "_identityCommitment",
          "type": "uint256"
        },
        {
          "indexed": false,
          "internalType": "uint256",
          "name": "_rootHash",
          "type": "uint256"
        }
      ],
      "name": "NewRootHash",
      "type": "event"
    },
    {
      "anonymous": false,
      "inputs": [
        {
          "indexed": true,
          "internalType": "address",
          "name": "previousOwner",
          "type": "address"
        },
        {
          "indexed": true,
          "internalType": "address",
          "name": "newOwner",
          "type": "address"
        }
      ],
      "name": "OwnershipTransferred",
      "type": "event"
    },
    {
      "inputs": [
        {
          "internalType": "bytes32",
          "name": "_groupId",
          "type": "bytes32"
        },
        {
          "internalType": "uint256",
          "name": "_identityCommitment",
          "type": "uint256"
        },
        {
          "internalType": "uint256",
          "name": "_rootHash",
          "type": "uint256"
        }
      ],
      "name": "addRootHash",
      "outputs": [],
      "stateMutability": "nonpayable",
      "type": "function"
    },
    {
      "inputs": [],
      "name": "initialize",
      "outputs": [],
      "stateMutability": "nonpayable",
      "type": "function"
    },
    {
      "inputs": [],
      "name": "owner",
      "outputs": [
        {
          "internalType": "address",
          "name": "",
          "type": "address"
        }
      ],
      "stateMutability": "view",
      "type": "function"
    },
    {
      "inputs": [],
      "name": "renounceOwnership",
      "outputs": [],
      "stateMutability": "nonpayable",
      "type": "function"
    },
    {
      "inputs": [
        {
          "internalType": "bytes32",
          "name": "",
          "type": "bytes32"
        }
      ],
      "name": "rootHashes",
      "outputs": [
        {
          "internalType": "uint256",
          "name": "",
          "type": "uint256"
        }
      ],
      "stateMutability": "view",
      "type": "function"
    },
    {
      "inputs": [
        {
          "internalType": "address",
          "name": "newOwner",
          "type": "address"
        }
      ],
      "name": "transferOwnership",
      "outputs": [],
      "stateMutability": "nonpayable",
      "type": "function"
    }
  ],
  "bytecode": "0x608060405234801561001057600080fd5b50610cc7806100206000396000f3fe608060405234801561001057600080fd5b50600436106100625760003560e01c8063669e3a8f14610067578063715018a6146100835780638129fc1c1461008d5780638da5cb5b14610097578063e794fec9146100b5578063f2fde38b146100e5575b600080fd5b610081600480360381019061007c91906109bd565b610101565b005b61008b6101d4565b005b610095610311565b005b61009f6103f2565b6040516100ac9190610b36565b60405180910390f35b6100cf60048036038101906100ca9190610994565b61041c565b6040516100dc9190610bb1565b60405180910390f35b6100ff60048036038101906100fa919061096b565b610434565b005b6101096105e0565b73ffffffffffffffffffffffffffffffffffffffff166101276103f2565b73ffffffffffffffffffffffffffffffffffffffff161461017d576040517f08c379a000000000000000000000000000000000000000000000000000000000815260040161017490610b91565b60405180910390fd5b806065600085815260200190815260200160002081905550827f97d2d761f3051e96df37e8fe460a4603b7b47a0563644ae4ed69550461d48cac83836040516101c7929190610bcc565b60405180910390a2505050565b6101dc6105e0565b73ffffffffffffffffffffffffffffffffffffffff166101fa6103f2565b73ffffffffffffffffffffffffffffffffffffffff1614610250576040517f08c379a000000000000000000000000000000000000000000000000000000000815260040161024790610b91565b60405180910390fd5b600073ffffffffffffffffffffffffffffffffffffffff16603360009054906101000a900473ffffffffffffffffffffffffffffffffffffffff1673ffffffffffffffffffffffffffffffffffffffff167f8be0079c531659141344cd1fd0a4f28419497f9722a3daafe3b4186f6b6457e060405160405180910390a36000603360006101000a81548173ffffffffffffffffffffffffffffffffffffffff021916908373ffffffffffffffffffffffffffffffffffffffff160217905550565b600060019054906101000a900460ff1680610337575060008054906101000a900460ff16155b610376576040517f08c379a000000000000000000000000000000000000000000000000000000000815260040161036d90610b71565b60405180910390fd5b60008060019054906101000a900460ff1615905080156103c6576001600060016101000a81548160ff02191690831515021790555060016000806101000a81548160ff0219169083151502179055505b6103ce6105e8565b80156103ef5760008060016101000a81548160ff0219169083151502179055505b50565b6000603360009054906101000a900473ffffffffffffffffffffffffffffffffffffffff16905090565b60656020528060005260406000206000915090505481565b61043c6105e0565b73ffffffffffffffffffffffffffffffffffffffff1661045a6103f2565b73ffffffffffffffffffffffffffffffffffffffff16146104b0576040517f08c379a00000000000000000000000000000000000000000000000000000000081526004016104a790610b91565b60405180910390fd5b600073ffffffffffffffffffffffffffffffffffffffff168173ffffffffffffffffffffffffffffffffffffffff161415610520576040517f08c379a000000000000000000000000000000000000000000000000000000000815260040161051790610b51565b60405180910390fd5b8073ffffffffffffffffffffffffffffffffffffffff16603360009054906101000a900473ffffffffffffffffffffffffffffffffffffffff1673ffffffffffffffffffffffffffffffffffffffff167f8be0079c531659141344cd1fd0a4f28419497f9722a3daafe3b4186f6b6457e060405160405180910390a380603360006101000a81548173ffffffffffffffffffffffffffffffffffffffff021916908373ffffffffffffffffffffffffffffffffffffffff16021790555050565b600033905090565b600060019054906101000a900460ff168061060e575060008054906101000a900460ff16155b61064d576040517f08c379a000000000000000000000000000000000000000000000000000000000815260040161064490610b71565b60405180910390fd5b60008060019054906101000a900460ff16159050801561069d576001600060016101000a81548160ff02191690831515021790555060016000806101000a81548160ff0219169083151502179055505b6106a56106d1565b6106ad6107aa565b80156106ce5760008060016101000a81548160ff0219169083151502179055505b50565b600060019054906101000a900460ff16806106f7575060008054906101000a900460ff16155b610736576040517f08c379a000000000000000000000000000000000000000000000000000000000815260040161072d90610b71565b60405180910390fd5b60008060019054906101000a900460ff161590508015610786576001600060016101000a81548160ff02191690831515021790555060016000806101000a81548160ff0219169083151502179055505b80156107a75760008060016101000a81548160ff0219169083151502179055505b50565b600060019054906101000a900460ff16806107d0575060008054906101000a900460ff16155b61080f576040517f08c379a000000000000000000000000000000000000000000000000000000000815260040161080690610b71565b60405180910390fd5b60008060019054906101000a900460ff16159050801561085f576001600060016101000a81548160ff02191690831515021790555060016000806101000a81548160ff0219169083151502179055505b60006108696105e0565b905080603360006101000a81548173ffffffffffffffffffffffffffffffffffffffff021916908373ffffffffffffffffffffffffffffffffffffffff1602179055508073ffffffffffffffffffffffffffffffffffffffff16600073ffffffffffffffffffffffffffffffffffffffff167f8be0079c531659141344cd1fd0a4f28419497f9722a3daafe3b4186f6b6457e060405160405180910390a35080156109295760008060016101000a81548160ff0219169083151502179055505b50565b60008135905061093b81610c4c565b92915050565b60008135905061095081610c63565b92915050565b60008135905061096581610c7a565b92915050565b60006020828403121561097d57600080fd5b600061098b8482850161092c565b91505092915050565b6000602082840312156109a657600080fd5b60006109b484828501610941565b91505092915050565b6000806000606084860312156109d257600080fd5b60006109e086828701610941565b93505060206109f186828701610956565b9250506040610a0286828701610956565b9150509250925092565b610a1581610c06565b82525050565b6000610a28602683610bf5565b91507f4f776e61626c653a206e6577206f776e657220697320746865207a65726f206160008301527f64647265737300000000000000000000000000000000000000000000000000006020830152604082019050919050565b6000610a8e602e83610bf5565b91507f496e697469616c697a61626c653a20636f6e747261637420697320616c72656160008301527f647920696e697469616c697a65640000000000000000000000000000000000006020830152604082019050919050565b6000610af4602083610bf5565b91507f4f776e61626c653a2063616c6c6572206973206e6f7420746865206f776e65726000830152602082019050919050565b610b3081610c42565b82525050565b6000602082019050610b4b6000830184610a0c565b92915050565b60006020820190508181036000830152610b6a81610a1b565b9050919050565b60006020820190508181036000830152610b8a81610a81565b9050919050565b60006020820190508181036000830152610baa81610ae7565b9050919050565b6000602082019050610bc66000830184610b27565b92915050565b6000604082019050610be16000830185610b27565b610bee6020830184610b27565b9392505050565b600082825260208201905092915050565b6000610c1182610c22565b9050919050565b6000819050919050565b600073ffffffffffffffffffffffffffffffffffffffff82169050919050565b6000819050919050565b610c5581610c06565b8114610c6057600080fd5b50565b610c6c81610c18565b8114610c7757600080fd5b50565b610c8381610c42565b8114610c8e57600080fd5b5056fea2646970667358221220add7812e1db9ef539cdbaccdd8f1307d4e274ffbd16e3dbc1bb852a79b7f992464736f6c63430008000033",
  "linkReferences": {},
  "deployedLinkReferences": {}
}