{
  "_format": "hh-sol-artifact-1",
  "contractName": "InterRepGroups",
  "sourceName": "contracts/InterRepGroups.sol",
  "abi": [
    {
      "anonymous": false,
      "inputs": [
        {
          "indexed": true,
          "internalType": "bytes32",
          "name": "_provider",
          "type": "bytes32"
        },
        {
          "indexed": true,
          "internalType": "bytes32",
          "name": "_name",
          "type": "bytes32"
        },
        {
          "indexed": false,
          "internalType": "uint256",
          "name": "_identityCommitment",
          "type": "uint256"
        },
        {
          "indexed": false,
          "internalType": "uint256",
          "name": "_rootHash",
          "type": "uint256"
        }
      ],
      "name": "NewRootHash",
      "type": "event"
    },
    {
      "anonymous": false,
      "inputs": [
        {
          "indexed": true,
          "internalType": "address",
          "name": "previousOwner",
          "type": "address"
        },
        {
          "indexed": true,
          "internalType": "address",
          "name": "newOwner",
          "type": "address"
        }
      ],
      "name": "OwnershipTransferred",
      "type": "event"
    },
    {
      "inputs": [
        {
          "internalType": "bytes32",
          "name": "_provider",
          "type": "bytes32"
        },
        {
          "internalType": "bytes32",
          "name": "_name",
          "type": "bytes32"
        },
        {
          "internalType": "uint256",
          "name": "_identityCommitment",
          "type": "uint256"
        },
        {
          "internalType": "uint256",
          "name": "_rootHash",
          "type": "uint256"
        }
      ],
      "name": "addRootHash",
      "outputs": [],
      "stateMutability": "nonpayable",
      "type": "function"
    },
    {
      "inputs": [
        {
          "internalType": "bytes32",
          "name": "_provider",
          "type": "bytes32"
        },
        {
          "internalType": "bytes32",
          "name": "_name",
          "type": "bytes32"
        }
      ],
      "name": "getRootHash",
      "outputs": [
        {
          "internalType": "uint256",
          "name": "",
          "type": "uint256"
        }
      ],
      "stateMutability": "view",
      "type": "function"
    },
    {
      "inputs": [],
      "name": "initialize",
      "outputs": [],
      "stateMutability": "nonpayable",
      "type": "function"
    },
    {
      "inputs": [],
      "name": "owner",
      "outputs": [
        {
          "internalType": "address",
          "name": "",
          "type": "address"
        }
      ],
      "stateMutability": "view",
      "type": "function"
    },
    {
      "inputs": [],
      "name": "renounceOwnership",
      "outputs": [],
      "stateMutability": "nonpayable",
      "type": "function"
    },
    {
      "inputs": [
        {
          "internalType": "address",
          "name": "newOwner",
          "type": "address"
        }
      ],
      "name": "transferOwnership",
      "outputs": [],
      "stateMutability": "nonpayable",
      "type": "function"
    }
  ],
  "bytecode": "0x608060405234801561001057600080fd5b50610d93806100206000396000f3fe608060405234801561001057600080fd5b50600436106100625760003560e01c80633c06308114610067578063715018a6146100835780638129fc1c1461008d5780638da5cb5b14610097578063d1854646146100b5578063f2fde38b146100e5575b600080fd5b610081600480360381019061007c9190610a28565b610101565b005b61008b6101fe565b005b61009561033b565b005b61009f61041c565b6040516100ac9190610bf8565b60405180910390f35b6100cf60048036038101906100ca91906109ec565b610446565b6040516100dc9190610c73565b60405180910390f35b6100ff60048036038101906100fa91906109c3565b61048c565b005b610109610638565b73ffffffffffffffffffffffffffffffffffffffff1661012761041c565b73ffffffffffffffffffffffffffffffffffffffff161461017d576040517f08c379a000000000000000000000000000000000000000000000000000000000815260040161017490610c53565b60405180910390fd5b80606560008686604051602001610195929190610bcc565b6040516020818303038152906040528051906020012081526020019081526020016000208190555082847f1f179bc15d2fa4ab203dc91f5f8c6fc626ec4f4f66a5b0eee7221bb7d4b4133c84846040516101f0929190610c8e565b60405180910390a350505050565b610206610638565b73ffffffffffffffffffffffffffffffffffffffff1661022461041c565b73ffffffffffffffffffffffffffffffffffffffff161461027a576040517f08c379a000000000000000000000000000000000000000000000000000000000815260040161027190610c53565b60405180910390fd5b600073ffffffffffffffffffffffffffffffffffffffff16603360009054906101000a900473ffffffffffffffffffffffffffffffffffffffff1673ffffffffffffffffffffffffffffffffffffffff167f8be0079c531659141344cd1fd0a4f28419497f9722a3daafe3b4186f6b6457e060405160405180910390a36000603360006101000a81548173ffffffffffffffffffffffffffffffffffffffff021916908373ffffffffffffffffffffffffffffffffffffffff160217905550565b600060019054906101000a900460ff1680610361575060008054906101000a900460ff16155b6103a0576040517f08c379a000000000000000000000000000000000000000000000000000000000815260040161039790610c33565b60405180910390fd5b60008060019054906101000a900460ff1615905080156103f0576001600060016101000a81548160ff02191690831515021790555060016000806101000a81548160ff0219169083151502179055505b6103f8610640565b80156104195760008060016101000a81548160ff0219169083151502179055505b50565b6000603360009054906101000a900473ffffffffffffffffffffffffffffffffffffffff16905090565b600060656000848460405160200161045f929190610bcc565b60405160208183030381529060405280519060200120815260200190815260200160002054905092915050565b610494610638565b73ffffffffffffffffffffffffffffffffffffffff166104b261041c565b73ffffffffffffffffffffffffffffffffffffffff1614610508576040517f08c379a00000000000000000000000000000000000000000000000000000000081526004016104ff90610c53565b60405180910390fd5b600073ffffffffffffffffffffffffffffffffffffffff168173ffffffffffffffffffffffffffffffffffffffff161415610578576040517f08c379a000000000000000000000000000000000000000000000000000000000815260040161056f90610c13565b60405180910390fd5b8073ffffffffffffffffffffffffffffffffffffffff16603360009054906101000a900473ffffffffffffffffffffffffffffffffffffffff1673ffffffffffffffffffffffffffffffffffffffff167f8be0079c531659141344cd1fd0a4f28419497f9722a3daafe3b4186f6b6457e060405160405180910390a380603360006101000a81548173ffffffffffffffffffffffffffffffffffffffff021916908373ffffffffffffffffffffffffffffffffffffffff16021790555050565b600033905090565b600060019054906101000a900460ff1680610666575060008054906101000a900460ff16155b6106a5576040517f08c379a000000000000000000000000000000000000000000000000000000000815260040161069c90610c33565b60405180910390fd5b60008060019054906101000a900460ff1615905080156106f5576001600060016101000a81548160ff02191690831515021790555060016000806101000a81548160ff0219169083151502179055505b6106fd610729565b610705610802565b80156107265760008060016101000a81548160ff0219169083151502179055505b50565b600060019054906101000a900460ff168061074f575060008054906101000a900460ff16155b61078e576040517f08c379a000000000000000000000000000000000000000000000000000000000815260040161078590610c33565b60405180910390fd5b60008060019054906101000a900460ff1615905080156107de576001600060016101000a81548160ff02191690831515021790555060016000806101000a81548160ff0219169083151502179055505b80156107ff5760008060016101000a81548160ff0219169083151502179055505b50565b600060019054906101000a900460ff1680610828575060008054906101000a900460ff16155b610867576040517f08c379a000000000000000000000000000000000000000000000000000000000815260040161085e90610c33565b60405180910390fd5b60008060019054906101000a900460ff1615905080156108b7576001600060016101000a81548160ff02191690831515021790555060016000806101000a81548160ff0219169083151502179055505b60006108c1610638565b905080603360006101000a81548173ffffffffffffffffffffffffffffffffffffffff021916908373ffffffffffffffffffffffffffffffffffffffff1602179055508073ffffffffffffffffffffffffffffffffffffffff16600073ffffffffffffffffffffffffffffffffffffffff167f8be0079c531659141344cd1fd0a4f28419497f9722a3daafe3b4186f6b6457e060405160405180910390a35080156109815760008060016101000a81548160ff0219169083151502179055505b50565b60008135905061099381610d18565b92915050565b6000813590506109a881610d2f565b92915050565b6000813590506109bd81610d46565b92915050565b6000602082840312156109d557600080fd5b60006109e384828501610984565b91505092915050565b600080604083850312156109ff57600080fd5b6000610a0d85828601610999565b9250506020610a1e85828601610999565b9150509250929050565b60008060008060808587031215610a3e57600080fd5b6000610a4c87828801610999565b9450506020610a5d87828801610999565b9350506040610a6e878288016109ae565b9250506060610a7f878288016109ae565b91505092959194509250565b610a9481610cc8565b82525050565b610aab610aa682610cda565b610d0e565b82525050565b6000610abe602683610cb7565b91507f4f776e61626c653a206e6577206f776e657220697320746865207a65726f206160008301527f64647265737300000000000000000000000000000000000000000000000000006020830152604082019050919050565b6000610b24602e83610cb7565b91507f496e697469616c697a61626c653a20636f6e747261637420697320616c72656160008301527f647920696e697469616c697a65640000000000000000000000000000000000006020830152604082019050919050565b6000610b8a602083610cb7565b91507f4f776e61626c653a2063616c6c6572206973206e6f7420746865206f776e65726000830152602082019050919050565b610bc681610d04565b82525050565b6000610bd88285610a9a565b602082019150610be88284610a9a565b6020820191508190509392505050565b6000602082019050610c0d6000830184610a8b565b92915050565b60006020820190508181036000830152610c2c81610ab1565b9050919050565b60006020820190508181036000830152610c4c81610b17565b9050919050565b60006020820190508181036000830152610c6c81610b7d565b9050919050565b6000602082019050610c886000830184610bbd565b92915050565b6000604082019050610ca36000830185610bbd565b610cb06020830184610bbd565b9392505050565b600082825260208201905092915050565b6000610cd382610ce4565b9050919050565b6000819050919050565b600073ffffffffffffffffffffffffffffffffffffffff82169050919050565b6000819050919050565b6000819050919050565b610d2181610cc8565b8114610d2c57600080fd5b50565b610d3881610cda565b8114610d4357600080fd5b50565b610d4f81610d04565b8114610d5a57600080fd5b5056fea26469706673582212205dd33d84494bad4cc31fbaf3015b90149a9afd2550b0ee54426470a471d8fc4f64736f6c63430008000033",
  "linkReferences": {},
  "deployedLinkReferences": {}
}