{
  "_format": "hh-sol-artifact-1",
  "contractName": "InterRepGroups",
  "sourceName": "contracts/InterRepGroups.sol",
  "abi": [
    {
      "anonymous": false,
      "inputs": [
        {
          "indexed": true,
          "internalType": "bytes32",
          "name": "_provider",
          "type": "bytes32"
        },
        {
          "indexed": true,
          "internalType": "bytes32",
          "name": "_name",
          "type": "bytes32"
        },
        {
          "indexed": false,
          "internalType": "uint256",
          "name": "_identityCommitment",
          "type": "uint256"
        },
        {
          "indexed": false,
          "internalType": "uint256",
          "name": "_rootHash",
          "type": "uint256"
        }
      ],
      "name": "NewRootHash",
      "type": "event"
    },
    {
      "anonymous": false,
      "inputs": [
        {
          "indexed": true,
          "internalType": "address",
          "name": "previousOwner",
          "type": "address"
        },
        {
          "indexed": true,
          "internalType": "address",
          "name": "newOwner",
          "type": "address"
        }
      ],
      "name": "OwnershipTransferred",
      "type": "event"
    },
    {
      "inputs": [
        {
          "internalType": "bytes32",
          "name": "_provider",
          "type": "bytes32"
        },
        {
          "internalType": "bytes32",
          "name": "_name",
          "type": "bytes32"
        },
        {
          "internalType": "uint256",
          "name": "_identityCommitment",
          "type": "uint256"
        },
        {
          "internalType": "uint256",
          "name": "_rootHash",
          "type": "uint256"
        }
      ],
      "name": "addRootHash",
      "outputs": [],
      "stateMutability": "nonpayable",
      "type": "function"
    },
    {
      "inputs": [
        {
          "internalType": "bytes32",
          "name": "_provider",
          "type": "bytes32"
        },
        {
          "internalType": "bytes32[]",
          "name": "_names",
          "type": "bytes32[]"
        },
        {
          "internalType": "uint256[]",
          "name": "_identityCommitments",
          "type": "uint256[]"
        },
        {
          "internalType": "uint256[]",
          "name": "_rootHashes",
          "type": "uint256[]"
        }
      ],
      "name": "batchAddRootHash",
      "outputs": [],
      "stateMutability": "nonpayable",
      "type": "function"
    },
    {
      "inputs": [
        {
          "internalType": "bytes32",
          "name": "_provider",
          "type": "bytes32"
        },
        {
          "internalType": "bytes32",
          "name": "_name",
          "type": "bytes32"
        }
      ],
      "name": "getRootHash",
      "outputs": [
        {
          "internalType": "uint256",
          "name": "",
          "type": "uint256"
        }
      ],
      "stateMutability": "view",
      "type": "function"
    },
    {
      "inputs": [],
      "name": "initialize",
      "outputs": [],
      "stateMutability": "nonpayable",
      "type": "function"
    },
    {
      "inputs": [],
      "name": "owner",
      "outputs": [
        {
          "internalType": "address",
          "name": "",
          "type": "address"
        }
      ],
      "stateMutability": "view",
      "type": "function"
    },
    {
      "inputs": [],
      "name": "renounceOwnership",
      "outputs": [],
      "stateMutability": "nonpayable",
      "type": "function"
    },
    {
      "inputs": [
        {
          "internalType": "address",
          "name": "newOwner",
          "type": "address"
        }
      ],
      "name": "transferOwnership",
      "outputs": [],
      "stateMutability": "nonpayable",
      "type": "function"
    }
  ],
  "bytecode": "0x608060405234801561001057600080fd5b50611405806100206000396000f3fe608060405234801561001057600080fd5b506004361061007d5760003560e01c80638da5cb5b1161005b5780638da5cb5b146100b257806392ccd27c146100d0578063d1854646146100ec578063f2fde38b1461011c5761007d565b80633c06308114610082578063715018a61461009e5780638129fc1c146100a8575b600080fd5b61009c60048036038101906100979190610ee4565b610138565b005b6100a6610235565b005b6100b0610372565b005b6100ba610453565b6040516100c7919061111a565b60405180910390f35b6100ea60048036038101906100e59190610dfd565b61047d565b005b61010660048036038101906101019190610ea8565b61072b565b60405161011391906111b5565b60405180910390f35b61013660048036038101906101319190610dd4565b610771565b005b61014061091d565b73ffffffffffffffffffffffffffffffffffffffff1661015e610453565b73ffffffffffffffffffffffffffffffffffffffff16146101b4576040517f08c379a00000000000000000000000000000000000000000000000000000000081526004016101ab90611195565b60405180910390fd5b806065600086866040516020016101cc9291906110ee565b6040516020818303038152906040528051906020012081526020019081526020016000208190555082847f1f179bc15d2fa4ab203dc91f5f8c6fc626ec4f4f66a5b0eee7221bb7d4b4133c84846040516102279291906111d0565b60405180910390a350505050565b61023d61091d565b73ffffffffffffffffffffffffffffffffffffffff1661025b610453565b73ffffffffffffffffffffffffffffffffffffffff16146102b1576040517f08c379a00000000000000000000000000000000000000000000000000000000081526004016102a890611195565b60405180910390fd5b600073ffffffffffffffffffffffffffffffffffffffff16603360009054906101000a900473ffffffffffffffffffffffffffffffffffffffff1673ffffffffffffffffffffffffffffffffffffffff167f8be0079c531659141344cd1fd0a4f28419497f9722a3daafe3b4186f6b6457e060405160405180910390a36000603360006101000a81548173ffffffffffffffffffffffffffffffffffffffff021916908373ffffffffffffffffffffffffffffffffffffffff160217905550565b600060019054906101000a900460ff1680610398575060008054906101000a900460ff16155b6103d7576040517f08c379a00000000000000000000000000000000000000000000000000000000081526004016103ce90611175565b60405180910390fd5b60008060019054906101000a900460ff161590508015610427576001600060016101000a81548160ff02191690831515021790555060016000806101000a81548160ff0219169083151502179055505b61042f610925565b80156104505760008060016101000a81548160ff0219169083151502179055505b50565b6000603360009054906101000a900473ffffffffffffffffffffffffffffffffffffffff16905090565b61048561091d565b73ffffffffffffffffffffffffffffffffffffffff166104a3610453565b73ffffffffffffffffffffffffffffffffffffffff16146104f9576040517f08c379a00000000000000000000000000000000000000000000000000000000081526004016104f090611195565b60405180910390fd5b8151835114801561050b575080518351145b61054a576040517f08c379a000000000000000000000000000000000000000000000000000000000815260040161054190611135565b60405180910390fd5b60005b83518110156107245781818151811061058f577f4e487b7100000000000000000000000000000000000000000000000000000000600052603260045260246000fd5b602002602001015160656000878785815181106105d5577f4e487b7100000000000000000000000000000000000000000000000000000000600052603260045260246000fd5b60200260200101516040516020016105ee9291906110ee565b6040516020818303038152906040528051906020012081526020019081526020016000208190555083818151811061064f577f4e487b7100000000000000000000000000000000000000000000000000000000600052603260045260246000fd5b6020026020010151857f1f179bc15d2fa4ab203dc91f5f8c6fc626ec4f4f66a5b0eee7221bb7d4b4133c8584815181106106b2577f4e487b7100000000000000000000000000000000000000000000000000000000600052603260045260246000fd5b60200260200101518585815181106106f3577f4e487b7100000000000000000000000000000000000000000000000000000000600052603260045260246000fd5b60200260200101516040516107099291906111d0565b60405180910390a3808061071c906112d9565b91505061054d565b5050505050565b60006065600084846040516020016107449291906110ee565b60405160208183030381529060405280519060200120815260200190815260200160002054905092915050565b61077961091d565b73ffffffffffffffffffffffffffffffffffffffff16610797610453565b73ffffffffffffffffffffffffffffffffffffffff16146107ed576040517f08c379a00000000000000000000000000000000000000000000000000000000081526004016107e490611195565b60405180910390fd5b600073ffffffffffffffffffffffffffffffffffffffff168173ffffffffffffffffffffffffffffffffffffffff16141561085d576040517f08c379a000000000000000000000000000000000000000000000000000000000815260040161085490611155565b60405180910390fd5b8073ffffffffffffffffffffffffffffffffffffffff16603360009054906101000a900473ffffffffffffffffffffffffffffffffffffffff1673ffffffffffffffffffffffffffffffffffffffff167f8be0079c531659141344cd1fd0a4f28419497f9722a3daafe3b4186f6b6457e060405160405180910390a380603360006101000a81548173ffffffffffffffffffffffffffffffffffffffff021916908373ffffffffffffffffffffffffffffffffffffffff16021790555050565b600033905090565b600060019054906101000a900460ff168061094b575060008054906101000a900460ff16155b61098a576040517f08c379a000000000000000000000000000000000000000000000000000000000815260040161098190611175565b60405180910390fd5b60008060019054906101000a900460ff1615905080156109da576001600060016101000a81548160ff02191690831515021790555060016000806101000a81548160ff0219169083151502179055505b6109e2610a0e565b6109ea610ae7565b8015610a0b5760008060016101000a81548160ff0219169083151502179055505b50565b600060019054906101000a900460ff1680610a34575060008054906101000a900460ff16155b610a73576040517f08c379a0000000000000000000000000000000000000000000000000000000008152600401610a6a90611175565b60405180910390fd5b60008060019054906101000a900460ff161590508015610ac3576001600060016101000a81548160ff02191690831515021790555060016000806101000a81548160ff0219169083151502179055505b8015610ae45760008060016101000a81548160ff0219169083151502179055505b50565b600060019054906101000a900460ff1680610b0d575060008054906101000a900460ff16155b610b4c576040517f08c379a0000000000000000000000000000000000000000000000000000000008152600401610b4390611175565b60405180910390fd5b60008060019054906101000a900460ff161590508015610b9c576001600060016101000a81548160ff02191690831515021790555060016000806101000a81548160ff0219169083151502179055505b6000610ba661091d565b905080603360006101000a81548173ffffffffffffffffffffffffffffffffffffffff021916908373ffffffffffffffffffffffffffffffffffffffff1602179055508073ffffffffffffffffffffffffffffffffffffffff16600073ffffffffffffffffffffffffffffffffffffffff167f8be0079c531659141344cd1fd0a4f28419497f9722a3daafe3b4186f6b6457e060405160405180910390a3508015610c665760008060016101000a81548160ff0219169083151502179055505b50565b6000610c7c610c778461122a565b6111f9565b90508083825260208201905082856020860282011115610c9b57600080fd5b60005b85811015610ccb5781610cb18882610daa565b845260208401935060208301925050600181019050610c9e565b5050509392505050565b6000610ce8610ce384611256565b6111f9565b90508083825260208201905082856020860282011115610d0757600080fd5b60005b85811015610d375781610d1d8882610dbf565b845260208401935060208301925050600181019050610d0a565b5050509392505050565b600081359050610d508161138a565b92915050565b600082601f830112610d6757600080fd5b8135610d77848260208601610c69565b91505092915050565b600082601f830112610d9157600080fd5b8135610da1848260208601610cd5565b91505092915050565b600081359050610db9816113a1565b92915050565b600081359050610dce816113b8565b92915050565b600060208284031215610de657600080fd5b6000610df484828501610d41565b91505092915050565b60008060008060808587031215610e1357600080fd5b6000610e2187828801610daa565b945050602085013567ffffffffffffffff811115610e3e57600080fd5b610e4a87828801610d56565b935050604085013567ffffffffffffffff811115610e6757600080fd5b610e7387828801610d80565b925050606085013567ffffffffffffffff811115610e9057600080fd5b610e9c87828801610d80565b91505092959194509250565b60008060408385031215610ebb57600080fd5b6000610ec985828601610daa565b9250506020610eda85828601610daa565b9150509250929050565b60008060008060808587031215610efa57600080fd5b6000610f0887828801610daa565b9450506020610f1987828801610daa565b9350506040610f2a87828801610dbf565b9250506060610f3b87828801610dbf565b91505092959194509250565b610f5081611293565b82525050565b610f67610f62826112a5565b611322565b82525050565b6000610f7a602c83611282565b91507f417272617920706172616d65746572732073686f756c6420686176652074686560008301527f2073616d65206c656e67746800000000000000000000000000000000000000006020830152604082019050919050565b6000610fe0602683611282565b91507f4f776e61626c653a206e6577206f776e657220697320746865207a65726f206160008301527f64647265737300000000000000000000000000000000000000000000000000006020830152604082019050919050565b6000611046602e83611282565b91507f496e697469616c697a61626c653a20636f6e747261637420697320616c72656160008301527f647920696e697469616c697a65640000000000000000000000000000000000006020830152604082019050919050565b60006110ac602083611282565b91507f4f776e61626c653a2063616c6c6572206973206e6f7420746865206f776e65726000830152602082019050919050565b6110e8816112cf565b82525050565b60006110fa8285610f56565b60208201915061110a8284610f56565b6020820191508190509392505050565b600060208201905061112f6000830184610f47565b92915050565b6000602082019050818103600083015261114e81610f6d565b9050919050565b6000602082019050818103600083015261116e81610fd3565b9050919050565b6000602082019050818103600083015261118e81611039565b9050919050565b600060208201905081810360008301526111ae8161109f565b9050919050565b60006020820190506111ca60008301846110df565b92915050565b60006040820190506111e560008301856110df565b6111f260208301846110df565b9392505050565b6000604051905081810181811067ffffffffffffffff821117156112205761121f61135b565b5b8060405250919050565b600067ffffffffffffffff8211156112455761124461135b565b5b602082029050602081019050919050565b600067ffffffffffffffff8211156112715761127061135b565b5b602082029050602081019050919050565b600082825260208201905092915050565b600061129e826112af565b9050919050565b6000819050919050565b600073ffffffffffffffffffffffffffffffffffffffff82169050919050565b6000819050919050565b60006112e4826112cf565b91507fffffffffffffffffffffffffffffffffffffffffffffffffffffffffffffffff8214156113175761131661132c565b5b600182019050919050565b6000819050919050565b7f4e487b7100000000000000000000000000000000000000000000000000000000600052601160045260246000fd5b7f4e487b7100000000000000000000000000000000000000000000000000000000600052604160045260246000fd5b61139381611293565b811461139e57600080fd5b50565b6113aa816112a5565b81146113b557600080fd5b50565b6113c1816112cf565b81146113cc57600080fd5b5056fea2646970667358221220941a8e426247afb8e285a2b7bbfe1d0c575057a2d050d0885ef9d39a902bf10664736f6c63430008000033",
  "linkReferences": {},
  "deployedLinkReferences": {}
}