{
  "_format": "hh-sol-artifact-1",
  "contractName": "ReputationBadgeV2Test",
  "sourceName": "contracts/mocks/ReputationBadgeV2Test.sol",
  "abi": [
    {
      "anonymous": false,
      "inputs": [
        {
          "indexed": true,
          "internalType": "address",
          "name": "owner",
          "type": "address"
        },
        {
          "indexed": true,
          "internalType": "address",
          "name": "approved",
          "type": "address"
        },
        {
          "indexed": true,
          "internalType": "uint256",
          "name": "tokenId",
          "type": "uint256"
        }
      ],
      "name": "Approval",
      "type": "event"
    },
    {
      "anonymous": false,
      "inputs": [
        {
          "indexed": true,
          "internalType": "address",
          "name": "owner",
          "type": "address"
        },
        {
          "indexed": true,
          "internalType": "address",
          "name": "operator",
          "type": "address"
        },
        {
          "indexed": false,
          "internalType": "bool",
          "name": "approved",
          "type": "bool"
        }
      ],
      "name": "ApprovalForAll",
      "type": "event"
    },
    {
      "anonymous": false,
      "inputs": [
        {
          "indexed": true,
          "internalType": "address",
          "name": "previousOwner",
          "type": "address"
        },
        {
          "indexed": true,
          "internalType": "address",
          "name": "newOwner",
          "type": "address"
        }
      ],
      "name": "OwnershipTransferred",
      "type": "event"
    },
    {
      "anonymous": false,
      "inputs": [
        {
          "indexed": false,
          "internalType": "address",
          "name": "account",
          "type": "address"
        }
      ],
      "name": "Paused",
      "type": "event"
    },
    {
      "anonymous": false,
      "inputs": [
        {
          "indexed": true,
          "internalType": "address",
          "name": "from",
          "type": "address"
        },
        {
          "indexed": true,
          "internalType": "address",
          "name": "to",
          "type": "address"
        },
        {
          "indexed": true,
          "internalType": "uint256",
          "name": "tokenId",
          "type": "uint256"
        }
      ],
      "name": "Transfer",
      "type": "event"
    },
    {
      "anonymous": false,
      "inputs": [
        {
          "indexed": false,
          "internalType": "address",
          "name": "account",
          "type": "address"
        }
      ],
      "name": "Unpaused",
      "type": "event"
    },
    {
      "inputs": [
        {
          "internalType": "address",
          "name": "to",
          "type": "address"
        },
        {
          "internalType": "uint256",
          "name": "tokenId",
          "type": "uint256"
        }
      ],
      "name": "approve",
      "outputs": [],
      "stateMutability": "nonpayable",
      "type": "function"
    },
    {
      "inputs": [],
      "name": "backendAddress",
      "outputs": [
        {
          "internalType": "address",
          "name": "",
          "type": "address"
        }
      ],
      "stateMutability": "view",
      "type": "function"
    },
    {
      "inputs": [
        {
          "internalType": "address",
          "name": "owner",
          "type": "address"
        }
      ],
      "name": "balanceOf",
      "outputs": [
        {
          "internalType": "uint256",
          "name": "",
          "type": "uint256"
        }
      ],
      "stateMutability": "view",
      "type": "function"
    },
    {
      "inputs": [
        {
          "components": [
            {
              "internalType": "address",
              "name": "to",
              "type": "address"
            },
            {
              "internalType": "uint256",
              "name": "tokenId",
              "type": "uint256"
            }
          ],
          "internalType": "struct ReputationBadgeV2Test.MintParameters[]",
          "name": "tokensToMint",
          "type": "tuple[]"
        }
      ],
      "name": "batchMint",
      "outputs": [],
      "stateMutability": "nonpayable",
      "type": "function"
    },
    {
      "inputs": [
        {
          "internalType": "uint256",
          "name": "tokenId",
          "type": "uint256"
        }
      ],
      "name": "burn",
      "outputs": [],
      "stateMutability": "nonpayable",
      "type": "function"
    },
    {
      "inputs": [
        {
          "internalType": "address",
          "name": "newBackendAddress",
          "type": "address"
        }
      ],
      "name": "changeBackendAddress",
      "outputs": [],
      "stateMutability": "nonpayable",
      "type": "function"
    },
    {
      "inputs": [
        {
          "internalType": "string",
          "name": "baseURI",
          "type": "string"
        }
      ],
      "name": "changeBaseURI",
      "outputs": [],
      "stateMutability": "nonpayable",
      "type": "function"
    },
    {
      "inputs": [
        {
          "internalType": "uint256",
          "name": "tokenId",
          "type": "uint256"
        }
      ],
      "name": "getApproved",
      "outputs": [
        {
          "internalType": "address",
          "name": "",
          "type": "address"
        }
      ],
      "stateMutability": "view",
      "type": "function"
    },
    {
      "inputs": [
        {
          "internalType": "string",
          "name": "name_",
          "type": "string"
        },
        {
          "internalType": "string",
          "name": "symbol_",
          "type": "string"
        },
        {
          "internalType": "address",
          "name": "backendAddress_",
          "type": "address"
        }
      ],
      "name": "initialize",
      "outputs": [],
      "stateMutability": "nonpayable",
      "type": "function"
    },
    {
      "inputs": [
        {
          "internalType": "address",
          "name": "owner",
          "type": "address"
        },
        {
          "internalType": "address",
          "name": "operator",
          "type": "address"
        }
      ],
      "name": "isApprovedForAll",
      "outputs": [
        {
          "internalType": "bool",
          "name": "",
          "type": "bool"
        }
      ],
      "stateMutability": "view",
      "type": "function"
    },
    {
      "inputs": [],
      "name": "name",
      "outputs": [
        {
          "internalType": "string",
          "name": "",
          "type": "string"
        }
      ],
      "stateMutability": "view",
      "type": "function"
    },
    {
      "inputs": [],
      "name": "owner",
      "outputs": [
        {
          "internalType": "address",
          "name": "",
          "type": "address"
        }
      ],
      "stateMutability": "view",
      "type": "function"
    },
    {
      "inputs": [
        {
          "internalType": "uint256",
          "name": "tokenId",
          "type": "uint256"
        }
      ],
      "name": "ownerOf",
      "outputs": [
        {
          "internalType": "address",
          "name": "",
          "type": "address"
        }
      ],
      "stateMutability": "view",
      "type": "function"
    },
    {
      "inputs": [],
      "name": "pause",
      "outputs": [],
      "stateMutability": "nonpayable",
      "type": "function"
    },
    {
      "inputs": [],
      "name": "paused",
      "outputs": [
        {
          "internalType": "bool",
          "name": "",
          "type": "bool"
        }
      ],
      "stateMutability": "view",
      "type": "function"
    },
    {
      "inputs": [],
      "name": "renounceOwnership",
      "outputs": [],
      "stateMutability": "nonpayable",
      "type": "function"
    },
    {
      "inputs": [
        {
          "internalType": "address",
          "name": "to",
          "type": "address"
        },
        {
          "internalType": "uint256",
          "name": "tokenId",
          "type": "uint256"
        }
      ],
      "name": "safeMint",
      "outputs": [],
      "stateMutability": "nonpayable",
      "type": "function"
    },
    {
      "inputs": [
        {
          "internalType": "address",
          "name": "from",
          "type": "address"
        },
        {
          "internalType": "address",
          "name": "to",
          "type": "address"
        },
        {
          "internalType": "uint256",
          "name": "tokenId",
          "type": "uint256"
        }
      ],
      "name": "safeTransferFrom",
      "outputs": [],
      "stateMutability": "nonpayable",
      "type": "function"
    },
    {
      "inputs": [
        {
          "internalType": "address",
          "name": "from",
          "type": "address"
        },
        {
          "internalType": "address",
          "name": "to",
          "type": "address"
        },
        {
          "internalType": "uint256",
          "name": "tokenId",
          "type": "uint256"
        },
        {
          "internalType": "bytes",
          "name": "_data",
          "type": "bytes"
        }
      ],
      "name": "safeTransferFrom",
      "outputs": [],
      "stateMutability": "nonpayable",
      "type": "function"
    },
    {
      "inputs": [
        {
          "internalType": "address",
          "name": "operator",
          "type": "address"
        },
        {
          "internalType": "bool",
          "name": "approved",
          "type": "bool"
        }
      ],
      "name": "setApprovalForAll",
      "outputs": [],
      "stateMutability": "nonpayable",
      "type": "function"
    },
    {
      "inputs": [
        {
          "internalType": "bytes4",
          "name": "interfaceId",
          "type": "bytes4"
        }
      ],
      "name": "supportsInterface",
      "outputs": [
        {
          "internalType": "bool",
          "name": "",
          "type": "bool"
        }
      ],
      "stateMutability": "view",
      "type": "function"
    },
    {
      "inputs": [],
      "name": "symbol",
      "outputs": [
        {
          "internalType": "string",
          "name": "",
          "type": "string"
        }
      ],
      "stateMutability": "view",
      "type": "function"
    },
    {
      "inputs": [],
      "name": "thisIsATest",
      "outputs": [
        {
          "internalType": "uint256",
          "name": "",
          "type": "uint256"
        }
      ],
      "stateMutability": "pure",
      "type": "function"
    },
    {
      "inputs": [
        {
          "internalType": "uint256",
          "name": "tokenId",
          "type": "uint256"
        }
      ],
      "name": "tokenURI",
      "outputs": [
        {
          "internalType": "string",
          "name": "",
          "type": "string"
        }
      ],
      "stateMutability": "view",
      "type": "function"
    },
    {
      "inputs": [
        {
          "internalType": "address",
          "name": "from",
          "type": "address"
        },
        {
          "internalType": "address",
          "name": "to",
          "type": "address"
        },
        {
          "internalType": "uint256",
          "name": "tokenId",
          "type": "uint256"
        }
      ],
      "name": "transferFrom",
      "outputs": [],
      "stateMutability": "nonpayable",
      "type": "function"
    },
    {
      "inputs": [
        {
          "internalType": "address",
          "name": "newOwner",
          "type": "address"
        }
      ],
      "name": "transferOwnership",
      "outputs": [],
      "stateMutability": "nonpayable",
      "type": "function"
    },
    {
      "inputs": [],
      "name": "unpause",
      "outputs": [],
      "stateMutability": "nonpayable",
      "type": "function"
    }
  ],
  "bytecode": "0x608060405234801561001057600080fd5b5061410d806100206000396000f3fe608060405234801561001057600080fd5b50600436106101a95760003560e01c80636352211e116100f9578063a144819411610097578063b88d4fde11610071578063b88d4fde14610458578063c87b56dd14610474578063e985e9c5146104a4578063f2fde38b146104d4576101a9565b8063a144819414610404578063a22cb46514610420578063b7f0295c1461043c576101a9565b80638456cb59116100d35780638456cb59146103a25780638da5cb5b146103ac5780639386e197146103ca57806395d89b41146103e6576101a9565b80636352211e1461033857806370a0823114610368578063715018a614610398576101a9565b806323b872dd1161016657806342842e0e1161014057806342842e0e146102c457806342966c68146102e05780635085547c146102fc5780635c975abb1461031a576101a9565b806323b872dd1461028257806339a0c6f91461029e5780633f4ba83a146102ba576101a9565b806301ffc9a7146101ae57806306fdde03146101de578063077f224a146101fc578063081812fc14610218578063095ea7b3146102485780630d72d57f14610264575b600080fd5b6101c860048036038101906101c39190612faf565b6104f0565b6040516101d59190613999565b60405180910390f35b6101e66105d2565b6040516101f391906139b4565b60405180910390f35b61021660048036038101906102119190613042565b610664565b005b610232600480360381019061022d91906130c1565b6107b4565b60405161023f9190613932565b60405180910390f35b610262600480360381019061025d9190612f32565b610839565b005b61026c610951565b6040516102799190613932565b60405180910390f35b61029c60048036038101906102979190612e2c565b61097c565b005b6102b860048036038101906102b39190613001565b6109dc565b005b6102c2610a73565b005b6102de60048036038101906102d99190612e2c565b610af9565b005b6102fa60048036038101906102f591906130c1565b610b19565b005b610304610b75565b6040516103119190613c76565b60405180910390f35b610322610b7e565b60405161032f9190613999565b60405180910390f35b610352600480360381019061034d91906130c1565b610b95565b60405161035f9190613932565b60405180910390f35b610382600480360381019061037d9190612dc7565b610c47565b60405161038f9190613c76565b60405180910390f35b6103a0610cff565b005b6103aa610e3c565b005b6103b4610ec2565b6040516103c19190613932565b60405180910390f35b6103e460048036038101906103df9190612f6e565b610eec565b005b6103ee611032565b6040516103fb91906139b4565b60405180910390f35b61041e60048036038101906104199190612f32565b6110c4565b005b61043a60048036038101906104359190612ef6565b611163565b005b61045660048036038101906104519190612dc7565b6112e4565b005b610472600480360381019061046d9190612e7b565b6113a5565b005b61048e600480360381019061048991906130c1565b611407565b60405161049b91906139b4565b60405180910390f35b6104be60048036038101906104b99190612df0565b6114ae565b6040516104cb9190613999565b60405180910390f35b6104ee60048036038101906104e99190612dc7565b611542565b005b60007f80ac58cd000000000000000000000000000000000000000000000000000000007bffffffffffffffffffffffffffffffffffffffffffffffffffffffff1916827bffffffffffffffffffffffffffffffffffffffffffffffffffffffff191614806105bb57507f5b5e139f000000000000000000000000000000000000000000000000000000007bffffffffffffffffffffffffffffffffffffffffffffffffffffffff1916827bffffffffffffffffffffffffffffffffffffffffffffffffffffffff1916145b806105cb57506105ca826116ee565b5b9050919050565b6060606580546105e190613f02565b80601f016020809104026020016040519081016040528092919081815260200182805461060d90613f02565b801561065a5780601f1061062f5761010080835404028352916020019161065a565b820191906000526020600020905b81548152906001019060200180831161063d57829003601f168201915b5050505050905090565b600060019054906101000a900460ff168061068a575060008054906101000a900460ff16155b6106c9576040517f08c379a00000000000000000000000000000000000000000000000000000000081526004016106c090613b56565b60405180910390fd5b60008060019054906101000a900460ff161590508015610719576001600060016101000a81548160ff02191690831515021790555060016000806101000a81548160ff0219169083151502179055505b610721611758565b610729611831565b610731611925565b610739611aa7565b6107438484611b80565b61074b611c89565b8161012d60006101000a81548173ffffffffffffffffffffffffffffffffffffffff021916908373ffffffffffffffffffffffffffffffffffffffff16021790555080156107ae5760008060016101000a81548160ff0219169083151502179055505b50505050565b60006107bf82611d62565b6107fe576040517f08c379a00000000000000000000000000000000000000000000000000000000081526004016107f590613b96565b60405180910390fd5b6069600083815260200190815260200160002060009054906101000a900473ffffffffffffffffffffffffffffffffffffffff169050919050565b600061084482610b95565b90508073ffffffffffffffffffffffffffffffffffffffff168373ffffffffffffffffffffffffffffffffffffffff1614156108b5576040517f08c379a00000000000000000000000000000000000000000000000000000000081526004016108ac90613c16565b60405180910390fd5b8073ffffffffffffffffffffffffffffffffffffffff166108d4611dce565b73ffffffffffffffffffffffffffffffffffffffff1614806109035750610902816108fd611dce565b6114ae565b5b610942576040517f08c379a000000000000000000000000000000000000000000000000000000000815260040161093990613af6565b60405180910390fd5b61094c8383611dd6565b505050565b600061012d60009054906101000a900473ffffffffffffffffffffffffffffffffffffffff16905090565b61098d610987611dce565b82611e8f565b6109cc576040517f08c379a00000000000000000000000000000000000000000000000000000000081526004016109c390613c36565b60405180910390fd5b6109d7838383611f6d565b505050565b6109e4611dce565b73ffffffffffffffffffffffffffffffffffffffff16610a02610ec2565b73ffffffffffffffffffffffffffffffffffffffff1614610a58576040517f08c379a0000000000000000000000000000000000000000000000000000000008152600401610a4f90613bb6565b60405180910390fd5b8061012e9080519060200190610a6f929190612b09565b5050565b610a7b611dce565b73ffffffffffffffffffffffffffffffffffffffff16610a99610ec2565b73ffffffffffffffffffffffffffffffffffffffff1614610aef576040517f08c379a0000000000000000000000000000000000000000000000000000000008152600401610ae690613bb6565b60405180910390fd5b610af76121c9565b565b610b14838383604051806020016040528060008152506113a5565b505050565b610b2a610b24611dce565b82611e8f565b610b69576040517f08c379a0000000000000000000000000000000000000000000000000000000008152600401610b6090613c56565b60405180910390fd5b610b728161226b565b50565b6000602a905090565b6000609760009054906101000a900460ff16905090565b6000806067600084815260200190815260200160002060009054906101000a900473ffffffffffffffffffffffffffffffffffffffff169050600073ffffffffffffffffffffffffffffffffffffffff168173ffffffffffffffffffffffffffffffffffffffff161415610c3e576040517f08c379a0000000000000000000000000000000000000000000000000000000008152600401610c3590613b36565b60405180910390fd5b80915050919050565b60008073ffffffffffffffffffffffffffffffffffffffff168273ffffffffffffffffffffffffffffffffffffffff161415610cb8576040517f08c379a0000000000000000000000000000000000000000000000000000000008152600401610caf90613b16565b60405180910390fd5b606860008373ffffffffffffffffffffffffffffffffffffffff1673ffffffffffffffffffffffffffffffffffffffff168152602001908152602001600020549050919050565b610d07611dce565b73ffffffffffffffffffffffffffffffffffffffff16610d25610ec2565b73ffffffffffffffffffffffffffffffffffffffff1614610d7b576040517f08c379a0000000000000000000000000000000000000000000000000000000008152600401610d7290613bb6565b60405180910390fd5b600073ffffffffffffffffffffffffffffffffffffffff1660c960009054906101000a900473ffffffffffffffffffffffffffffffffffffffff1673ffffffffffffffffffffffffffffffffffffffff167f8be0079c531659141344cd1fd0a4f28419497f9722a3daafe3b4186f6b6457e060405160405180910390a3600060c960006101000a81548173ffffffffffffffffffffffffffffffffffffffff021916908373ffffffffffffffffffffffffffffffffffffffff160217905550565b610e44611dce565b73ffffffffffffffffffffffffffffffffffffffff16610e62610ec2565b73ffffffffffffffffffffffffffffffffffffffff1614610eb8576040517f08c379a0000000000000000000000000000000000000000000000000000000008152600401610eaf90613bb6565b60405180910390fd5b610ec061237c565b565b600060c960009054906101000a900473ffffffffffffffffffffffffffffffffffffffff16905090565b61012d60009054906101000a900473ffffffffffffffffffffffffffffffffffffffff1673ffffffffffffffffffffffffffffffffffffffff163373ffffffffffffffffffffffffffffffffffffffff1614610f7d576040517f08c379a0000000000000000000000000000000000000000000000000000000008152600401610f74906139f6565b60405180910390fd5b60005b815181101561102e5761101b828281518110610fc5577f4e487b7100000000000000000000000000000000000000000000000000000000600052603260045260246000fd5b60200260200101516000015183838151811061100a577f4e487b7100000000000000000000000000000000000000000000000000000000600052603260045260246000fd5b60200260200101516020015161241f565b808061102690613f34565b915050610f80565b5050565b60606066805461104190613f02565b80601f016020809104026020016040519081016040528092919081815260200182805461106d90613f02565b80156110ba5780601f1061108f576101008083540402835291602001916110ba565b820191906000526020600020905b81548152906001019060200180831161109d57829003601f168201915b5050505050905090565b61012d60009054906101000a900473ffffffffffffffffffffffffffffffffffffffff1673ffffffffffffffffffffffffffffffffffffffff163373ffffffffffffffffffffffffffffffffffffffff1614611155576040517f08c379a000000000000000000000000000000000000000000000000000000000815260040161114c906139f6565b60405180910390fd5b61115f82826125ed565b5050565b61116b611dce565b73ffffffffffffffffffffffffffffffffffffffff168273ffffffffffffffffffffffffffffffffffffffff1614156111d9576040517f08c379a00000000000000000000000000000000000000000000000000000000081526004016111d090613a96565b60405180910390fd5b80606a60006111e6611dce565b73ffffffffffffffffffffffffffffffffffffffff1673ffffffffffffffffffffffffffffffffffffffff16815260200190815260200160002060008473ffffffffffffffffffffffffffffffffffffffff1673ffffffffffffffffffffffffffffffffffffffff16815260200190815260200160002060006101000a81548160ff0219169083151502179055508173ffffffffffffffffffffffffffffffffffffffff16611293611dce565b73ffffffffffffffffffffffffffffffffffffffff167f17307eab39ab6107e8899845ad3d59bd9653f200f220920489ca2b5937696c31836040516112d89190613999565b60405180910390a35050565b6112ec611dce565b73ffffffffffffffffffffffffffffffffffffffff1661130a610ec2565b73ffffffffffffffffffffffffffffffffffffffff1614611360576040517f08c379a000000000000000000000000000000000000000000000000000000000815260040161135790613bb6565b60405180910390fd5b8061012d60006101000a81548173ffffffffffffffffffffffffffffffffffffffff021916908373ffffffffffffffffffffffffffffffffffffffff16021790555050565b6113b66113b0611dce565b83611e8f565b6113f5576040517f08c379a00000000000000000000000000000000000000000000000000000000081526004016113ec90613c36565b60405180910390fd5b6114018484848461260b565b50505050565b606061141282611d62565b611451576040517f08c379a000000000000000000000000000000000000000000000000000000000815260040161144890613bf6565b60405180910390fd5b600061145b612667565b9050600081511161147b57604051806020016040528060008152506114a6565b80611485846126fa565b60405160200161149692919061390e565b6040516020818303038152906040525b915050919050565b6000606a60008473ffffffffffffffffffffffffffffffffffffffff1673ffffffffffffffffffffffffffffffffffffffff16815260200190815260200160002060008373ffffffffffffffffffffffffffffffffffffffff1673ffffffffffffffffffffffffffffffffffffffff16815260200190815260200160002060009054906101000a900460ff16905092915050565b61154a611dce565b73ffffffffffffffffffffffffffffffffffffffff16611568610ec2565b73ffffffffffffffffffffffffffffffffffffffff16146115be576040517f08c379a00000000000000000000000000000000000000000000000000000000081526004016115b590613bb6565b60405180910390fd5b600073ffffffffffffffffffffffffffffffffffffffff168173ffffffffffffffffffffffffffffffffffffffff16141561162e576040517f08c379a000000000000000000000000000000000000000000000000000000000815260040161162590613a36565b60405180910390fd5b8073ffffffffffffffffffffffffffffffffffffffff1660c960009054906101000a900473ffffffffffffffffffffffffffffffffffffffff1673ffffffffffffffffffffffffffffffffffffffff167f8be0079c531659141344cd1fd0a4f28419497f9722a3daafe3b4186f6b6457e060405160405180910390a38060c960006101000a81548173ffffffffffffffffffffffffffffffffffffffff021916908373ffffffffffffffffffffffffffffffffffffffff16021790555050565b60007f01ffc9a7000000000000000000000000000000000000000000000000000000007bffffffffffffffffffffffffffffffffffffffffffffffffffffffff1916827bffffffffffffffffffffffffffffffffffffffffffffffffffffffff1916149050919050565b600060019054906101000a900460ff168061177e575060008054906101000a900460ff16155b6117bd576040517f08c379a00000000000000000000000000000000000000000000000000000000081526004016117b490613b56565b60405180910390fd5b60008060019054906101000a900460ff16159050801561180d576001600060016101000a81548160ff02191690831515021790555060016000806101000a81548160ff0219169083151502179055505b801561182e5760008060016101000a81548160ff0219169083151502179055505b50565b600060019054906101000a900460ff1680611857575060008054906101000a900460ff16155b611896576040517f08c379a000000000000000000000000000000000000000000000000000000000815260040161188d90613b56565b60405180910390fd5b60008060019054906101000a900460ff1615905080156118e6576001600060016101000a81548160ff02191690831515021790555060016000806101000a81548160ff0219169083151502179055505b6000609760006101000a81548160ff02191690831515021790555080156119225760008060016101000a81548160ff0219169083151502179055505b50565b600060019054906101000a900460ff168061194b575060008054906101000a900460ff16155b61198a576040517f08c379a000000000000000000000000000000000000000000000000000000000815260040161198190613b56565b60405180910390fd5b60008060019054906101000a900460ff1615905080156119da576001600060016101000a81548160ff02191690831515021790555060016000806101000a81548160ff0219169083151502179055505b60006119e4611dce565b90508060c960006101000a81548173ffffffffffffffffffffffffffffffffffffffff021916908373ffffffffffffffffffffffffffffffffffffffff1602179055508073ffffffffffffffffffffffffffffffffffffffff16600073ffffffffffffffffffffffffffffffffffffffff167f8be0079c531659141344cd1fd0a4f28419497f9722a3daafe3b4186f6b6457e060405160405180910390a3508015611aa45760008060016101000a81548160ff0219169083151502179055505b50565b600060019054906101000a900460ff1680611acd575060008054906101000a900460ff16155b611b0c576040517f08c379a0000000000000000000000000000000000000000000000000000000008152600401611b0390613b56565b60405180910390fd5b60008060019054906101000a900460ff161590508015611b5c576001600060016101000a81548160ff02191690831515021790555060016000806101000a81548160ff0219169083151502179055505b8015611b7d5760008060016101000a81548160ff0219169083151502179055505b50565b600060019054906101000a900460ff1680611ba6575060008054906101000a900460ff16155b611be5576040517f08c379a0000000000000000000000000000000000000000000000000000000008152600401611bdc90613b56565b60405180910390fd5b60008060019054906101000a900460ff161590508015611c35576001600060016101000a81548160ff02191690831515021790555060016000806101000a81548160ff0219169083151502179055505b8260659080519060200190611c4b929190612b09565b508160669080519060200190611c62929190612b09565b508015611c845760008060016101000a81548160ff0219169083151502179055505b505050565b600060019054906101000a900460ff1680611caf575060008054906101000a900460ff16155b611cee576040517f08c379a0000000000000000000000000000000000000000000000000000000008152600401611ce590613b56565b60405180910390fd5b60008060019054906101000a900460ff161590508015611d3e576001600060016101000a81548160ff02191690831515021790555060016000806101000a81548160ff0219169083151502179055505b8015611d5f5760008060016101000a81548160ff0219169083151502179055505b50565b60008073ffffffffffffffffffffffffffffffffffffffff166067600084815260200190815260200160002060009054906101000a900473ffffffffffffffffffffffffffffffffffffffff1673ffffffffffffffffffffffffffffffffffffffff1614159050919050565b600033905090565b816069600083815260200190815260200160002060006101000a81548173ffffffffffffffffffffffffffffffffffffffff021916908373ffffffffffffffffffffffffffffffffffffffff160217905550808273ffffffffffffffffffffffffffffffffffffffff16611e4983610b95565b73ffffffffffffffffffffffffffffffffffffffff167f8c5be1e5ebec7d5bd14f71427d1e84f3dd0314c0f7b2291e5b200ac8c7c3b92560405160405180910390a45050565b6000611e9a82611d62565b611ed9576040517f08c379a0000000000000000000000000000000000000000000000000000000008152600401611ed090613ab6565b60405180910390fd5b6000611ee483610b95565b90508073ffffffffffffffffffffffffffffffffffffffff168473ffffffffffffffffffffffffffffffffffffffff161480611f5357508373ffffffffffffffffffffffffffffffffffffffff16611f3b846107b4565b73ffffffffffffffffffffffffffffffffffffffff16145b80611f645750611f6381856114ae565b5b91505092915050565b8273ffffffffffffffffffffffffffffffffffffffff16611f8d82610b95565b73ffffffffffffffffffffffffffffffffffffffff1614611fe3576040517f08c379a0000000000000000000000000000000000000000000000000000000008152600401611fda90613bd6565b60405180910390fd5b600073ffffffffffffffffffffffffffffffffffffffff168273ffffffffffffffffffffffffffffffffffffffff161415612053576040517f08c379a000000000000000000000000000000000000000000000000000000000815260040161204a90613a76565b60405180910390fd5b61205e8383836128a7565b612069600082611dd6565b6001606860008573ffffffffffffffffffffffffffffffffffffffff1673ffffffffffffffffffffffffffffffffffffffff16815260200190815260200160002060008282546120b99190613e18565b925050819055506001606860008473ffffffffffffffffffffffffffffffffffffffff1673ffffffffffffffffffffffffffffffffffffffff16815260200190815260200160002060008282546121109190613d91565b92505081905550816067600083815260200190815260200160002060006101000a81548173ffffffffffffffffffffffffffffffffffffffff021916908373ffffffffffffffffffffffffffffffffffffffff160217905550808273ffffffffffffffffffffffffffffffffffffffff168473ffffffffffffffffffffffffffffffffffffffff167fddf252ad1be2c89b69c2b068fc378daa952ba7f163c4a11628f55a4df523b3ef60405160405180910390a4505050565b6121d1610b7e565b612210576040517f08c379a0000000000000000000000000000000000000000000000000000000008152600401612207906139d6565b60405180910390fd5b6000609760006101000a81548160ff0219169083151502179055507f5db9ee0a495bf2e6ff9c91a7834c1ba4fdd244a5e8aa4e537bd38aeae4b073aa612254611dce565b6040516122619190613932565b60405180910390a1565b600061227682610b95565b9050612284816000846128a7565b61228f600083611dd6565b6001606860008373ffffffffffffffffffffffffffffffffffffffff1673ffffffffffffffffffffffffffffffffffffffff16815260200190815260200160002060008282546122df9190613e18565b925050819055506067600083815260200190815260200160002060006101000a81549073ffffffffffffffffffffffffffffffffffffffff021916905581600073ffffffffffffffffffffffffffffffffffffffff168273ffffffffffffffffffffffffffffffffffffffff167fddf252ad1be2c89b69c2b068fc378daa952ba7f163c4a11628f55a4df523b3ef60405160405180910390a45050565b612384610b7e565b156123c4576040517f08c379a00000000000000000000000000000000000000000000000000000000081526004016123bb90613ad6565b60405180910390fd5b6001609760006101000a81548160ff0219169083151502179055507f62e78cea01bee320cd4e420270b5ea74000d11b0c9f74754ebdbfc544b05a258612408611dce565b6040516124159190613932565b60405180910390a1565b600073ffffffffffffffffffffffffffffffffffffffff168273ffffffffffffffffffffffffffffffffffffffff16141561248f576040517f08c379a000000000000000000000000000000000000000000000000000000000815260040161248690613b76565b60405180910390fd5b61249881611d62565b156124d8576040517f08c379a00000000000000000000000000000000000000000000000000000000081526004016124cf90613a56565b60405180910390fd5b6124e4600083836128a7565b6001606860008473ffffffffffffffffffffffffffffffffffffffff1673ffffffffffffffffffffffffffffffffffffffff16815260200190815260200160002060008282546125349190613d91565b92505081905550816067600083815260200190815260200160002060006101000a81548173ffffffffffffffffffffffffffffffffffffffff021916908373ffffffffffffffffffffffffffffffffffffffff160217905550808273ffffffffffffffffffffffffffffffffffffffff16600073ffffffffffffffffffffffffffffffffffffffff167fddf252ad1be2c89b69c2b068fc378daa952ba7f163c4a11628f55a4df523b3ef60405160405180910390a45050565b6126078282604051806020016040528060008152506128ff565b5050565b612616848484611f6d565b6126228484848461295a565b612661576040517f08c379a000000000000000000000000000000000000000000000000000000000815260040161265890613a16565b60405180910390fd5b50505050565b606061012e805461267790613f02565b80601f01602080910402602001604051908101604052809291908181526020018280546126a390613f02565b80156126f05780601f106126c5576101008083540402835291602001916126f0565b820191906000526020600020905b8154815290600101906020018083116126d357829003601f168201915b5050505050905090565b60606000821415612742576040518060400160405280600181526020017f300000000000000000000000000000000000000000000000000000000000000081525090506128a2565b600082905060005b6000821461277457808061275d90613f34565b915050600a8261276d9190613de7565b915061274a565b60008167ffffffffffffffff8111156127b6577f4e487b7100000000000000000000000000000000000000000000000000000000600052604160045260246000fd5b6040519080825280601f01601f1916602001820160405280156127e85781602001600182028036833780820191505090505b5090505b6000851461289b576001826128019190613e18565b9150600a856128109190613f7d565b603061281c9190613d91565b60f81b818381518110612858577f4e487b7100000000000000000000000000000000000000000000000000000000600052603260045260246000fd5b60200101907effffffffffffffffffffffffffffffffffffffffffffffffffffffffffffff1916908160001a905350600a856128949190613de7565b94506127ec565b8093505050505b919050565b6128af610b7e565b156128ef576040517f08c379a00000000000000000000000000000000000000000000000000000000081526004016128e690613ad6565b60405180910390fd5b6128fa838383612af1565b505050565b612909838361241f565b612916600084848461295a565b612955576040517f08c379a000000000000000000000000000000000000000000000000000000000815260040161294c90613a16565b60405180910390fd5b505050565b600061297b8473ffffffffffffffffffffffffffffffffffffffff16612af6565b15612ae4578373ffffffffffffffffffffffffffffffffffffffff1663150b7a026129a4611dce565b8786866040518563ffffffff1660e01b81526004016129c6949392919061394d565b602060405180830381600087803b1580156129e057600080fd5b505af1925050508015612a1157506040513d601f19601f82011682018060405250810190612a0e9190612fd8565b60015b612a94573d8060008114612a41576040519150601f19603f3d011682016040523d82523d6000602084013e612a46565b606091505b50600081511415612a8c576040517f08c379a0000000000000000000000000000000000000000000000000000000008152600401612a8390613a16565b60405180910390fd5b805181602001fd5b63150b7a0260e01b7bffffffffffffffffffffffffffffffffffffffffffffffffffffffff1916817bffffffffffffffffffffffffffffffffffffffffffffffffffffffff191614915050612ae9565b600190505b949350505050565b505050565b600080823b905060008111915050919050565b828054612b1590613f02565b90600052602060002090601f016020900481019282612b375760008555612b7e565b82601f10612b5057805160ff1916838001178555612b7e565b82800160010185558215612b7e579182015b82811115612b7d578251825591602001919060010190612b62565b5b509050612b8b9190612b8f565b5090565b5b80821115612ba8576000816000905550600101612b90565b5090565b6000612bbf612bba84613cc2565b613c91565b90508083825260208201905082856040860282011115612bde57600080fd5b60005b85811015612c0e5781612bf48882612d66565b845260208401935060408301925050600181019050612be1565b5050509392505050565b6000612c2b612c2684613cee565b613c91565b905082815260208101848484011115612c4357600080fd5b612c4e848285613ec0565b509392505050565b6000612c69612c6484613d1e565b613c91565b905082815260208101848484011115612c8157600080fd5b612c8c848285613ec0565b509392505050565b600081359050612ca38161407b565b92915050565b600082601f830112612cba57600080fd5b8135612cca848260208601612bac565b91505092915050565b600081359050612ce281614092565b92915050565b600081359050612cf7816140a9565b92915050565b600081519050612d0c816140a9565b92915050565b600082601f830112612d2357600080fd5b8135612d33848260208601612c18565b91505092915050565b600082601f830112612d4d57600080fd5b8135612d5d848260208601612c56565b91505092915050565b600060408284031215612d7857600080fd5b612d826040613c91565b90506000612d9284828501612c94565b6000830152506020612da684828501612db2565b60208301525092915050565b600081359050612dc1816140c0565b92915050565b600060208284031215612dd957600080fd5b6000612de784828501612c94565b91505092915050565b60008060408385031215612e0357600080fd5b6000612e1185828601612c94565b9250506020612e2285828601612c94565b9150509250929050565b600080600060608486031215612e4157600080fd5b6000612e4f86828701612c94565b9350506020612e6086828701612c94565b9250506040612e7186828701612db2565b9150509250925092565b60008060008060808587031215612e9157600080fd5b6000612e9f87828801612c94565b9450506020612eb087828801612c94565b9350506040612ec187828801612db2565b925050606085013567ffffffffffffffff811115612ede57600080fd5b612eea87828801612d12565b91505092959194509250565b60008060408385031215612f0957600080fd5b6000612f1785828601612c94565b9250506020612f2885828601612cd3565b9150509250929050565b60008060408385031215612f4557600080fd5b6000612f5385828601612c94565b9250506020612f6485828601612db2565b9150509250929050565b600060208284031215612f8057600080fd5b600082013567ffffffffffffffff811115612f9a57600080fd5b612fa684828501612ca9565b91505092915050565b600060208284031215612fc157600080fd5b6000612fcf84828501612ce8565b91505092915050565b600060208284031215612fea57600080fd5b6000612ff884828501612cfd565b91505092915050565b60006020828403121561301357600080fd5b600082013567ffffffffffffffff81111561302d57600080fd5b61303984828501612d3c565b91505092915050565b60008060006060848603121561305757600080fd5b600084013567ffffffffffffffff81111561307157600080fd5b61307d86828701612d3c565b935050602084013567ffffffffffffffff81111561309a57600080fd5b6130a686828701612d3c565b92505060406130b786828701612c94565b9150509250925092565b6000602082840312156130d357600080fd5b60006130e184828501612db2565b91505092915050565b6130f381613e4c565b82525050565b61310281613e5e565b82525050565b600061311382613d4e565b61311d8185613d64565b935061312d818560208601613ecf565b6131368161406a565b840191505092915050565b600061314c82613d59565b6131568185613d75565b9350613166818560208601613ecf565b61316f8161406a565b840191505092915050565b600061318582613d59565b61318f8185613d86565b935061319f818560208601613ecf565b80840191505092915050565b60006131b8601483613d75565b91507f5061757361626c653a206e6f74207061757365640000000000000000000000006000830152602082019050919050565b60006131f8600c83613d75565b91507f556e617574686f72697a656400000000000000000000000000000000000000006000830152602082019050919050565b6000613238603283613d75565b91507f4552433732313a207472616e7366657220746f206e6f6e20455243373231526560008301527f63656976657220696d706c656d656e74657200000000000000000000000000006020830152604082019050919050565b600061329e602683613d75565b91507f4f776e61626c653a206e6577206f776e657220697320746865207a65726f206160008301527f64647265737300000000000000000000000000000000000000000000000000006020830152604082019050919050565b6000613304601c83613d75565b91507f4552433732313a20746f6b656e20616c7265616479206d696e746564000000006000830152602082019050919050565b6000613344602483613d75565b91507f4552433732313a207472616e7366657220746f20746865207a65726f2061646460008301527f72657373000000000000000000000000000000000000000000000000000000006020830152604082019050919050565b60006133aa601983613d75565b91507f4552433732313a20617070726f766520746f2063616c6c6572000000000000006000830152602082019050919050565b60006133ea602c83613d75565b91507f4552433732313a206f70657261746f7220717565727920666f72206e6f6e657860008301527f697374656e7420746f6b656e00000000000000000000000000000000000000006020830152604082019050919050565b6000613450601083613d75565b91507f5061757361626c653a20706175736564000000000000000000000000000000006000830152602082019050919050565b6000613490603883613d75565b91507f4552433732313a20617070726f76652063616c6c6572206973206e6f74206f7760008301527f6e6572206e6f7220617070726f76656420666f7220616c6c00000000000000006020830152604082019050919050565b60006134f6602a83613d75565b91507f4552433732313a2062616c616e636520717565727920666f7220746865207a6560008301527f726f2061646472657373000000000000000000000000000000000000000000006020830152604082019050919050565b600061355c602983613d75565b91507f4552433732313a206f776e657220717565727920666f72206e6f6e657869737460008301527f656e7420746f6b656e00000000000000000000000000000000000000000000006020830152604082019050919050565b60006135c2602e83613d75565b91507f496e697469616c697a61626c653a20636f6e747261637420697320616c72656160008301527f647920696e697469616c697a65640000000000000000000000000000000000006020830152604082019050919050565b6000613628602083613d75565b91507f4552433732313a206d696e7420746f20746865207a65726f20616464726573736000830152602082019050919050565b6000613668602c83613d75565b91507f4552433732313a20617070726f76656420717565727920666f72206e6f6e657860008301527f697374656e7420746f6b656e00000000000000000000000000000000000000006020830152604082019050919050565b60006136ce602083613d75565b91507f4f776e61626c653a2063616c6c6572206973206e6f7420746865206f776e65726000830152602082019050919050565b600061370e602983613d75565b91507f4552433732313a207472616e73666572206f6620746f6b656e2074686174206960008301527f73206e6f74206f776e00000000000000000000000000000000000000000000006020830152604082019050919050565b6000613774602f83613d75565b91507f4552433732314d657461646174613a2055524920717565727920666f72206e6f60008301527f6e6578697374656e7420746f6b656e00000000000000000000000000000000006020830152604082019050919050565b60006137da602183613d75565b91507f4552433732313a20617070726f76616c20746f2063757272656e74206f776e6560008301527f72000000000000000000000000000000000000000000000000000000000000006020830152604082019050919050565b6000613840603183613d75565b91507f4552433732313a207472616e736665722063616c6c6572206973206e6f74206f60008301527f776e6572206e6f7220617070726f7665640000000000000000000000000000006020830152604082019050919050565b60006138a6603083613d75565b91507f4552433732314275726e61626c653a2063616c6c6572206973206e6f74206f7760008301527f6e6572206e6f7220617070726f766564000000000000000000000000000000006020830152604082019050919050565b61390881613eb6565b82525050565b600061391a828561317a565b9150613926828461317a565b91508190509392505050565b600060208201905061394760008301846130ea565b92915050565b600060808201905061396260008301876130ea565b61396f60208301866130ea565b61397c60408301856138ff565b818103606083015261398e8184613108565b905095945050505050565b60006020820190506139ae60008301846130f9565b92915050565b600060208201905081810360008301526139ce8184613141565b905092915050565b600060208201905081810360008301526139ef816131ab565b9050919050565b60006020820190508181036000830152613a0f816131eb565b9050919050565b60006020820190508181036000830152613a2f8161322b565b9050919050565b60006020820190508181036000830152613a4f81613291565b9050919050565b60006020820190508181036000830152613a6f816132f7565b9050919050565b60006020820190508181036000830152613a8f81613337565b9050919050565b60006020820190508181036000830152613aaf8161339d565b9050919050565b60006020820190508181036000830152613acf816133dd565b9050919050565b60006020820190508181036000830152613aef81613443565b9050919050565b60006020820190508181036000830152613b0f81613483565b9050919050565b60006020820190508181036000830152613b2f816134e9565b9050919050565b60006020820190508181036000830152613b4f8161354f565b9050919050565b60006020820190508181036000830152613b6f816135b5565b9050919050565b60006020820190508181036000830152613b8f8161361b565b9050919050565b60006020820190508181036000830152613baf8161365b565b9050919050565b60006020820190508181036000830152613bcf816136c1565b9050919050565b60006020820190508181036000830152613bef81613701565b9050919050565b60006020820190508181036000830152613c0f81613767565b9050919050565b60006020820190508181036000830152613c2f816137cd565b9050919050565b60006020820190508181036000830152613c4f81613833565b9050919050565b60006020820190508181036000830152613c6f81613899565b9050919050565b6000602082019050613c8b60008301846138ff565b92915050565b6000604051905081810181811067ffffffffffffffff82111715613cb857613cb761403b565b5b8060405250919050565b600067ffffffffffffffff821115613cdd57613cdc61403b565b5b602082029050602081019050919050565b600067ffffffffffffffff821115613d0957613d0861403b565b5b601f19601f8301169050602081019050919050565b600067ffffffffffffffff821115613d3957613d3861403b565b5b601f19601f8301169050602081019050919050565b600081519050919050565b600081519050919050565b600082825260208201905092915050565b600082825260208201905092915050565b600081905092915050565b6000613d9c82613eb6565b9150613da783613eb6565b9250827fffffffffffffffffffffffffffffffffffffffffffffffffffffffffffffffff03821115613ddc57613ddb613fae565b5b828201905092915050565b6000613df282613eb6565b9150613dfd83613eb6565b925082613e0d57613e0c613fdd565b5b828204905092915050565b6000613e2382613eb6565b9150613e2e83613eb6565b925082821015613e4157613e40613fae565b5b828203905092915050565b6000613e5782613e96565b9050919050565b60008115159050919050565b60007fffffffff0000000000000000000000000000000000000000000000000000000082169050919050565b600073ffffffffffffffffffffffffffffffffffffffff82169050919050565b6000819050919050565b82818337600083830152505050565b60005b83811015613eed578082015181840152602081019050613ed2565b83811115613efc576000848401525b50505050565b60006002820490506001821680613f1a57607f821691505b60208210811415613f2e57613f2d61400c565b5b50919050565b6000613f3f82613eb6565b91507fffffffffffffffffffffffffffffffffffffffffffffffffffffffffffffffff821415613f7257613f71613fae565b5b600182019050919050565b6000613f8882613eb6565b9150613f9383613eb6565b925082613fa357613fa2613fdd565b5b828206905092915050565b7f4e487b7100000000000000000000000000000000000000000000000000000000600052601160045260246000fd5b7f4e487b7100000000000000000000000000000000000000000000000000000000600052601260045260246000fd5b7f4e487b7100000000000000000000000000000000000000000000000000000000600052602260045260246000fd5b7f4e487b7100000000000000000000000000000000000000000000000000000000600052604160045260246000fd5b6000601f19601f8301169050919050565b61408481613e4c565b811461408f57600080fd5b50565b61409b81613e5e565b81146140a657600080fd5b50565b6140b281613e6a565b81146140bd57600080fd5b50565b6140c981613eb6565b81146140d457600080fd5b5056fea2646970667358221220a8fb87cb37eb70a17b09a90a7539cf5965fbc8851a0c92d44ca935552551922a64736f6c63430008000033",
  "linkReferences": {},
  "deployedLinkReferences": {}
}