{
  "_format": "hh-sol-artifact-1",
  "contractName": "Groups",
  "sourceName": "contracts/Groups.sol",
  "abi": [
    {
      "anonymous": false,
      "inputs": [
        {
          "indexed": true,
          "internalType": "bytes32",
          "name": "provider",
          "type": "bytes32"
        },
        {
          "indexed": false,
          "internalType": "bytes32",
          "name": "name",
          "type": "bytes32"
        },
        {
          "indexed": false,
          "internalType": "uint8",
          "name": "depth",
          "type": "uint8"
        }
      ],
      "name": "GroupAdded",
      "type": "event"
    },
    {
      "anonymous": false,
      "inputs": [
        {
          "indexed": true,
          "internalType": "bytes32",
          "name": "provider",
          "type": "bytes32"
        },
        {
          "indexed": true,
          "internalType": "bytes32",
          "name": "name",
          "type": "bytes32"
        },
        {
          "indexed": false,
          "internalType": "uint256",
          "name": "identityCommitment",
          "type": "uint256"
        },
        {
          "indexed": false,
          "internalType": "uint256",
          "name": "root",
          "type": "uint256"
        }
      ],
      "name": "IdentityCommitmentAdded",
      "type": "event"
    },
    {
      "anonymous": false,
      "inputs": [
        {
          "indexed": true,
          "internalType": "bytes32",
          "name": "provider",
          "type": "bytes32"
        },
        {
          "indexed": true,
          "internalType": "bytes32",
          "name": "name",
          "type": "bytes32"
        },
        {
          "indexed": false,
          "internalType": "uint256",
          "name": "identityCommitment",
          "type": "uint256"
        },
        {
          "indexed": false,
          "internalType": "uint256",
          "name": "root",
          "type": "uint256"
        }
      ],
      "name": "IdentityCommitmentDeleted",
      "type": "event"
    },
    {
      "anonymous": false,
      "inputs": [
        {
          "indexed": true,
          "internalType": "address",
          "name": "previousOwner",
          "type": "address"
        },
        {
          "indexed": true,
          "internalType": "address",
          "name": "newOwner",
          "type": "address"
        }
      ],
      "name": "OwnershipTransferred",
      "type": "event"
    },
    {
      "inputs": [
        {
          "internalType": "bytes32",
          "name": "provider",
          "type": "bytes32"
        },
        {
          "internalType": "bytes32",
          "name": "name",
          "type": "bytes32"
        },
        {
          "internalType": "uint256",
          "name": "identityCommitment",
          "type": "uint256"
        }
      ],
      "name": "addIdentityCommitment",
      "outputs": [],
      "stateMutability": "nonpayable",
      "type": "function"
    },
    {
      "inputs": [
        {
          "internalType": "bytes32",
          "name": "provider",
          "type": "bytes32"
        },
        {
          "internalType": "bytes32[]",
          "name": "names",
          "type": "bytes32[]"
        },
        {
          "internalType": "uint256[]",
          "name": "identityCommitments",
          "type": "uint256[]"
        }
      ],
      "name": "batchAddIdentityCommitment",
      "outputs": [],
      "stateMutability": "nonpayable",
      "type": "function"
    },
    {
      "inputs": [
        {
          "internalType": "bytes32",
          "name": "provider",
          "type": "bytes32"
        },
        {
          "internalType": "bytes32",
          "name": "name",
          "type": "bytes32"
        },
        {
          "internalType": "uint8",
          "name": "depth",
          "type": "uint8"
        },
        {
          "internalType": "address",
          "name": "admin",
          "type": "address"
        }
      ],
      "name": "createGroup",
      "outputs": [],
      "stateMutability": "nonpayable",
      "type": "function"
    },
    {
      "inputs": [
        {
          "internalType": "bytes32",
          "name": "provider",
          "type": "bytes32"
        },
        {
          "internalType": "bytes32",
          "name": "name",
          "type": "bytes32"
        },
        {
          "internalType": "uint256",
          "name": "identityCommitment",
          "type": "uint256"
        },
        {
          "internalType": "uint256[]",
          "name": "pathSiblingNodes",
          "type": "uint256[]"
        },
        {
          "internalType": "uint8[]",
          "name": "pathPositions",
          "type": "uint8[]"
        }
      ],
      "name": "deleteIdentityCommitment",
      "outputs": [],
      "stateMutability": "nonpayable",
      "type": "function"
    },
    {
      "inputs": [
        {
          "internalType": "bytes32",
          "name": "provider",
          "type": "bytes32"
        },
        {
          "internalType": "bytes32",
          "name": "name",
          "type": "bytes32"
        }
      ],
      "name": "getRoot",
      "outputs": [
        {
          "internalType": "uint256",
          "name": "",
          "type": "uint256"
        }
      ],
      "stateMutability": "view",
      "type": "function"
    },
    {
      "inputs": [
        {
          "internalType": "bytes32",
          "name": "provider",
          "type": "bytes32"
        },
        {
          "internalType": "bytes32",
          "name": "name",
          "type": "bytes32"
        }
      ],
      "name": "getSize",
      "outputs": [
        {
          "internalType": "uint256",
          "name": "",
          "type": "uint256"
        }
      ],
      "stateMutability": "view",
      "type": "function"
    },
    {
      "inputs": [],
      "name": "initialize",
      "outputs": [],
      "stateMutability": "nonpayable",
      "type": "function"
    },
    {
      "inputs": [],
      "name": "owner",
      "outputs": [
        {
          "internalType": "address",
          "name": "",
          "type": "address"
        }
      ],
      "stateMutability": "view",
      "type": "function"
    },
    {
      "inputs": [],
      "name": "renounceOwnership",
      "outputs": [],
      "stateMutability": "nonpayable",
      "type": "function"
    },
    {
      "inputs": [
        {
          "internalType": "address",
          "name": "newOwner",
          "type": "address"
        }
      ],
      "name": "transferOwnership",
      "outputs": [],
      "stateMutability": "nonpayable",
      "type": "function"
    }
  ],
  "bytecode": "0x608060405234801561001057600080fd5b50611ca1806100206000396000f3fe608060405234801561001057600080fd5b506004361061009e5760003560e01c8063a2bcf69e11610066578063a2bcf69e1461010d578063a6c75e2f14610129578063c7cec48714610159578063cc928bce14610189578063f2fde38b146101a55761009e565b806302a075d9146100a35780636195b16e146100bf578063715018a6146100db5780638129fc1c146100e55780638da5cb5b146100ef575b600080fd5b6100bd60048036038101906100b89190611287565b6101c1565b005b6100d960048036038101906100d4919061117d565b6103bb565b005b6100e36104af565b005b6100ed610537565b005b6100f7610618565b60405161010491906117a6565b60405180910390f35b6101276004803603810190610122919061132e565b610642565b005b610143600480360381019061013e91906111fc565b610848565b604051610150919061197d565b60405180910390f35b610173600480360381019061016e91906111fc565b610877565b604051610180919061197d565b60405180910390f35b6101a3600480360381019061019e9190611238565b6108a6565b005b6101bf60048036038101906101ba9190611154565b610a9a565b005b60006101cd8686610b92565b905060006065600083815260200190815260200160002060000160009054906101000a900460ff1660ff161415610239576040517f08c379a0000000000000000000000000000000000000000000000000000000008152600401610230906118aa565b60405180910390fd5b610241610bc5565b73ffffffffffffffffffffffffffffffffffffffff166066600083815260200190815260200160002060009054906101000a900473ffffffffffffffffffffffffffffffffffffffff1673ffffffffffffffffffffffffffffffffffffffff16146102e1576040517f08c379a00000000000000000000000000000000000000000000000000000000081526004016102d89061180a565b60405180910390fd5b6065600082815260200190815260200160002073__$1318ec46aab23773e2b97b835ab63c28b8$__6368f2201690918686866040518563ffffffff1660e01b815260040161033294939291906118f3565b60006040518083038186803b15801561034a57600080fd5b505af415801561035e573d6000803e3d6000fd5b5050505084867f0b7f78a31acf364412aefb667523989ce1f6c324cfebcc5a7f7551b69a8d127c8660656000868152602001908152602001600020600101546040516103ab929190611998565b60405180910390a3505050505050565b80518251146103ff576040517f08c379a00000000000000000000000000000000000000000000000000000000081526004016103f69061188a565b60405180910390fd5b60005b82518110156104a95761049684848381518110610448577f4e487b7100000000000000000000000000000000000000000000000000000000600052603260045260246000fd5b6020026020010151848481518110610489577f4e487b7100000000000000000000000000000000000000000000000000000000600052603260045260246000fd5b60200260200101516108a6565b80806104a190611b5e565b915050610402565b50505050565b6104b7610bc5565b73ffffffffffffffffffffffffffffffffffffffff166104d5610618565b73ffffffffffffffffffffffffffffffffffffffff161461052b576040517f08c379a00000000000000000000000000000000000000000000000000000000081526004016105229061184a565b60405180910390fd5b6105356000610bcd565b565b600060019054906101000a900460ff168061055d575060008054906101000a900460ff16155b61059c576040517f08c379a00000000000000000000000000000000000000000000000000000000081526004016105939061182a565b60405180910390fd5b60008060019054906101000a900460ff1615905080156105ec576001600060016101000a81548160ff02191690831515021790555060016000806101000a81548160ff0219169083151502179055505b6105f4610c93565b80156106155760008060016101000a81548160ff0219169083151502179055505b50565b6000603360009054906101000a900473ffffffffffffffffffffffffffffffffffffffff16905090565b61064a610bc5565b73ffffffffffffffffffffffffffffffffffffffff16610668610618565b73ffffffffffffffffffffffffffffffffffffffff16146106be576040517f08c379a00000000000000000000000000000000000000000000000000000000081526004016106b59061184a565b60405180910390fd5b60006106ca8585610b92565b905060006065600083815260200190815260200160002060000160009054906101000a900460ff1660ff1614610735576040517f08c379a000000000000000000000000000000000000000000000000000000000815260040161072c9061186a565b60405180910390fd5b6065600082815260200190815260200160002073__$1318ec46aab23773e2b97b835ab63c28b8$__63951d991f90918560006040518463ffffffff1660e01b815260040161078593929190611946565b60006040518083038186803b15801561079d57600080fd5b505af41580156107b1573d6000803e3d6000fd5b50505050816066600083815260200190815260200160002060006101000a81548173ffffffffffffffffffffffffffffffffffffffff021916908373ffffffffffffffffffffffffffffffffffffffff160217905550847fb4ff2f5d70978594ead0f26c19e974851edeaadcf481b3a2d252d5426f5e878785856040516108399291906117c1565b60405180910390a25050505050565b6000806108558484610b92565b9050606560008281526020019081526020016000206002015491505092915050565b6000806108848484610b92565b9050606560008281526020019081526020016000206001015491505092915050565b60006108b28484610b92565b905060006065600083815260200190815260200160002060000160009054906101000a900460ff1660ff16141561091e576040517f08c379a0000000000000000000000000000000000000000000000000000000008152600401610915906118aa565b60405180910390fd5b610926610bc5565b73ffffffffffffffffffffffffffffffffffffffff166066600083815260200190815260200160002060009054906101000a900473ffffffffffffffffffffffffffffffffffffffff1673ffffffffffffffffffffffffffffffffffffffff16146109c6576040517f08c379a00000000000000000000000000000000000000000000000000000000081526004016109bd9061180a565b60405180910390fd5b6065600082815260200190815260200160002073__$1318ec46aab23773e2b97b835ab63c28b8$__63bbfc877f9091846040518363ffffffff1660e01b8152600401610a139291906118ca565b60006040518083038186803b158015610a2b57600080fd5b505af4158015610a3f573d6000803e3d6000fd5b5050505082847f382dc66b6ed7d4b00ae522ce901bb92e2894c0edbba7134d3c31782e4646151d846065600086815260200190815260200160002060010154604051610a8c929190611998565b60405180910390a350505050565b610aa2610bc5565b73ffffffffffffffffffffffffffffffffffffffff16610ac0610618565b73ffffffffffffffffffffffffffffffffffffffff1614610b16576040517f08c379a0000000000000000000000000000000000000000000000000000000008152600401610b0d9061184a565b60405180910390fd5b600073ffffffffffffffffffffffffffffffffffffffff168173ffffffffffffffffffffffffffffffffffffffff161415610b86576040517f08c379a0000000000000000000000000000000000000000000000000000000008152600401610b7d906117ea565b60405180910390fd5b610b8f81610bcd565b50565b60008282604051602001610ba792919061177a565b60405160208183030381529060405280519060200120905092915050565b600033905090565b6000603360009054906101000a900473ffffffffffffffffffffffffffffffffffffffff16905081603360006101000a81548173ffffffffffffffffffffffffffffffffffffffff021916908373ffffffffffffffffffffffffffffffffffffffff1602179055508173ffffffffffffffffffffffffffffffffffffffff168173ffffffffffffffffffffffffffffffffffffffff167f8be0079c531659141344cd1fd0a4f28419497f9722a3daafe3b4186f6b6457e060405160405180910390a35050565b600060019054906101000a900460ff1680610cb9575060008054906101000a900460ff16155b610cf8576040517f08c379a0000000000000000000000000000000000000000000000000000000008152600401610cef9061182a565b60405180910390fd5b60008060019054906101000a900460ff161590508015610d48576001600060016101000a81548160ff02191690831515021790555060016000806101000a81548160ff0219169083151502179055505b610d50610d7c565b610d58610e55565b8015610d795760008060016101000a81548160ff0219169083151502179055505b50565b600060019054906101000a900460ff1680610da2575060008054906101000a900460ff16155b610de1576040517f08c379a0000000000000000000000000000000000000000000000000000000008152600401610dd89061182a565b60405180910390fd5b60008060019054906101000a900460ff161590508015610e31576001600060016101000a81548160ff02191690831515021790555060016000806101000a81548160ff0219169083151502179055505b8015610e525760008060016101000a81548160ff0219169083151502179055505b50565b600060019054906101000a900460ff1680610e7b575060008054906101000a900460ff16155b610eba576040517f08c379a0000000000000000000000000000000000000000000000000000000008152600401610eb19061182a565b60405180910390fd5b60008060019054906101000a900460ff161590508015610f0a576001600060016101000a81548160ff02191690831515021790555060016000806101000a81548160ff0219169083151502179055505b610f1a610f15610bc5565b610bcd565b8015610f3b5760008060016101000a81548160ff0219169083151502179055505b50565b6000610f51610f4c846119f2565b6119c1565b90508083825260208201905082856020860282011115610f7057600080fd5b60005b85811015610fa05781610f868882611115565b845260208401935060208301925050600181019050610f73565b5050509392505050565b6000610fbd610fb884611a1e565b6119c1565b90508083825260208201905082856020860282011115610fdc57600080fd5b60005b8581101561100c5781610ff2888261112a565b845260208401935060208301925050600181019050610fdf565b5050509392505050565b600061102961102484611a4a565b6119c1565b9050808382526020820190508285602086028201111561104857600080fd5b60005b85811015611078578161105e888261113f565b84526020840193506020830192505060018101905061104b565b5050509392505050565b60008135905061109181611c0f565b92915050565b600082601f8301126110a857600080fd5b81356110b8848260208601610f3e565b91505092915050565b600082601f8301126110d257600080fd5b81356110e2848260208601610faa565b91505092915050565b600082601f8301126110fc57600080fd5b813561110c848260208601611016565b91505092915050565b60008135905061112481611c26565b92915050565b60008135905061113981611c3d565b92915050565b60008135905061114e81611c54565b92915050565b60006020828403121561116657600080fd5b600061117484828501611082565b91505092915050565b60008060006060848603121561119257600080fd5b60006111a086828701611115565b935050602084013567ffffffffffffffff8111156111bd57600080fd5b6111c986828701611097565b925050604084013567ffffffffffffffff8111156111e657600080fd5b6111f2868287016110c1565b9150509250925092565b6000806040838503121561120f57600080fd5b600061121d85828601611115565b925050602061122e85828601611115565b9150509250929050565b60008060006060848603121561124d57600080fd5b600061125b86828701611115565b935050602061126c86828701611115565b925050604061127d8682870161112a565b9150509250925092565b600080600080600060a0868803121561129f57600080fd5b60006112ad88828901611115565b95505060206112be88828901611115565b94505060406112cf8882890161112a565b935050606086013567ffffffffffffffff8111156112ec57600080fd5b6112f8888289016110c1565b925050608086013567ffffffffffffffff81111561131557600080fd5b611321888289016110eb565b9150509295509295909350565b6000806000806080858703121561134457600080fd5b600061135287828801611115565b945050602061136387828801611115565b93505060406113748782880161113f565b925050606061138587828801611082565b91505092959194509250565b600061139d838361173e565b60208301905092915050565b60006113b5838361176b565b60208301905092915050565b6113ca81611af9565b82525050565b60006113db82611a96565b6113e58185611ac6565b93506113f083611a76565b8060005b838110156114215781516114088882611391565b975061141383611aac565b9250506001810190506113f4565b5085935050505092915050565b600061143982611aa1565b6114438185611ad7565b935061144e83611a86565b8060005b8381101561147f57815161146688826113a9565b975061147183611ab9565b925050600181019050611452565b5085935050505092915050565b61149581611b0b565b82525050565b6114ac6114a782611b0b565b611ba7565b82525050565b6114bb81611b4c565b82525050565b60006114ce602683611ae8565b91507f4f776e61626c653a206e6577206f776e657220697320746865207a65726f206160008301527f64647265737300000000000000000000000000000000000000000000000000006020830152604082019050919050565b6000611534602583611ae8565b91507f47726f7570733a2063616c6c6572206973206e6f74207468652067726f75702060008301527f61646d696e0000000000000000000000000000000000000000000000000000006020830152604082019050919050565b600061159a602e83611ae8565b91507f496e697469616c697a61626c653a20636f6e747261637420697320616c72656160008301527f647920696e697469616c697a65640000000000000000000000000000000000006020830152604082019050919050565b6000611600602083611ae8565b91507f4f776e61626c653a2063616c6c6572206973206e6f7420746865206f776e65726000830152602082019050919050565b6000611640601c83611ae8565b91507f47726f7570733a2067726f757020616c726561647920657869737473000000006000830152602082019050919050565b6000611680603483611ae8565b91507f47726f7570733a20617272617920706172616d65746572732073686f756c642060008301527f68617665207468652073616d65206c656e6774680000000000000000000000006020830152604082019050919050565b60006116e6601c83611ae8565b91507f47726f7570733a2067726f757020646f6573206e6f74206578697374000000006000830152602082019050919050565b8082525050565b61172981611b35565b82525050565b61173881611b35565b82525050565b61174781611b35565b82525050565b61175681611b3f565b82525050565b61176581611b3f565b82525050565b61177481611b3f565b82525050565b6000611786828561149b565b602082019150611796828461149b565b6020820191508190509392505050565b60006020820190506117bb60008301846113c1565b92915050565b60006040820190506117d6600083018561148c565b6117e3602083018461174d565b9392505050565b60006020820190508181036000830152611803816114c1565b9050919050565b6000602082019050818103600083015261182381611527565b9050919050565b600060208201905081810360008301526118438161158d565b9050919050565b60006020820190508181036000830152611863816115f3565b9050919050565b6000602082019050818103600083015261188381611633565b9050919050565b600060208201905081810360008301526118a381611673565b9050919050565b600060208201905081810360008301526118c3816116d9565b9050919050565b60006040820190506118df6000830185611719565b6118ec602083018461172f565b9392505050565b60006080820190506119086000830187611719565b611915602083018661172f565b818103604083015261192781856113d0565b9050818103606083015261193b818461142e565b905095945050505050565b600060608201905061195b6000830186611719565b611968602083018561175c565b61197560408301846114b2565b949350505050565b60006020820190506119926000830184611720565b92915050565b60006040820190506119ad6000830185611720565b6119ba6020830184611720565b9392505050565b6000604051905081810181811067ffffffffffffffff821117156119e8576119e7611be0565b5b8060405250919050565b600067ffffffffffffffff821115611a0d57611a0c611be0565b5b602082029050602081019050919050565b600067ffffffffffffffff821115611a3957611a38611be0565b5b602082029050602081019050919050565b600067ffffffffffffffff821115611a6557611a64611be0565b5b602082029050602081019050919050565b6000819050602082019050919050565b6000819050602082019050919050565b600081519050919050565b600081519050919050565b6000602082019050919050565b6000602082019050919050565b600082825260208201905092915050565b600082825260208201905092915050565b600082825260208201905092915050565b6000611b0482611b15565b9050919050565b6000819050919050565b600073ffffffffffffffffffffffffffffffffffffffff82169050919050565b6000819050919050565b600060ff82169050919050565b6000611b5782611b35565b9050919050565b6000611b6982611b35565b91507fffffffffffffffffffffffffffffffffffffffffffffffffffffffffffffffff821415611b9c57611b9b611bb1565b5b600182019050919050565b6000819050919050565b7f4e487b7100000000000000000000000000000000000000000000000000000000600052601160045260246000fd5b7f4e487b7100000000000000000000000000000000000000000000000000000000600052604160045260246000fd5b611c1881611af9565b8114611c2357600080fd5b50565b611c2f81611b0b565b8114611c3a57600080fd5b50565b611c4681611b35565b8114611c5157600080fd5b50565b611c5d81611b3f565b8114611c6857600080fd5b5056fea2646970667358221220479d320c395440ee5bd9ed5ae84fbb5b1cb5ed15f69b0550cb0de48984250ac664736f6c63430008000033",
  "linkReferences": {
    "contracts/IncrementalTree.sol": {
      "IncrementalTree": [
        {
          "length": 20,
          "start": 790
        },
        {
          "length": 20,
          "start": 1898
        },
        {
          "length": 20,
          "start": 2555
        }
      ]
    }
  },
  "deployedLinkReferences": {
    "contracts/IncrementalTree.sol": {
      "IncrementalTree": [
        {
          "length": 20,
          "start": 758
        },
        {
          "length": 20,
          "start": 1866
        },
        {
          "length": 20,
          "start": 2523
        }
      ]
    }
  }
}