{
  "_format": "hh-sol-artifact-1",
  "contractName": "Groups",
  "sourceName": "contracts/Groups.sol",
  "abi": [
    {
      "anonymous": false,
      "inputs": [
        {
          "indexed": true,
          "internalType": "bytes32",
          "name": "provider",
          "type": "bytes32"
        },
        {
          "indexed": false,
          "internalType": "bytes32",
          "name": "name",
          "type": "bytes32"
        },
        {
          "indexed": false,
          "internalType": "uint8",
          "name": "depth",
          "type": "uint8"
        }
      ],
      "name": "GroupAdded",
      "type": "event"
    },
    {
      "anonymous": false,
      "inputs": [
        {
          "indexed": true,
          "internalType": "bytes32",
          "name": "provider",
          "type": "bytes32"
        },
        {
          "indexed": true,
          "internalType": "bytes32",
          "name": "name",
          "type": "bytes32"
        },
        {
          "indexed": false,
          "internalType": "uint256",
          "name": "identityCommitment",
          "type": "uint256"
        },
        {
          "indexed": false,
          "internalType": "uint256",
          "name": "root",
          "type": "uint256"
        }
      ],
      "name": "IdentityCommitmentAdded",
      "type": "event"
    },
    {
      "anonymous": false,
      "inputs": [
        {
          "indexed": true,
          "internalType": "bytes32",
          "name": "provider",
          "type": "bytes32"
        },
        {
          "indexed": true,
          "internalType": "bytes32",
          "name": "name",
          "type": "bytes32"
        },
        {
          "indexed": false,
          "internalType": "uint256",
          "name": "identityCommitment",
          "type": "uint256"
        },
        {
          "indexed": false,
          "internalType": "uint256",
          "name": "root",
          "type": "uint256"
        }
      ],
      "name": "IdentityCommitmentDeleted",
      "type": "event"
    },
    {
      "anonymous": false,
      "inputs": [
        {
          "indexed": true,
          "internalType": "address",
          "name": "previousOwner",
          "type": "address"
        },
        {
          "indexed": true,
          "internalType": "address",
          "name": "newOwner",
          "type": "address"
        }
      ],
      "name": "OwnershipTransferred",
      "type": "event"
    },
    {
      "inputs": [
        {
          "internalType": "bytes32",
          "name": "provider",
          "type": "bytes32"
        },
        {
          "internalType": "bytes32",
          "name": "name",
          "type": "bytes32"
        },
        {
          "internalType": "uint256",
          "name": "identityCommitment",
          "type": "uint256"
        }
      ],
      "name": "addIdentityCommitment",
      "outputs": [],
      "stateMutability": "nonpayable",
      "type": "function"
    },
    {
      "inputs": [
        {
          "internalType": "bytes32",
          "name": "provider",
          "type": "bytes32"
        },
        {
          "internalType": "bytes32",
          "name": "name",
          "type": "bytes32"
        },
        {
          "internalType": "uint8",
          "name": "depth",
          "type": "uint8"
        },
        {
          "internalType": "address",
          "name": "admin",
          "type": "address"
        }
      ],
      "name": "createGroup",
      "outputs": [],
      "stateMutability": "nonpayable",
      "type": "function"
    },
    {
      "inputs": [
        {
          "internalType": "bytes32",
          "name": "provider",
          "type": "bytes32"
        },
        {
          "internalType": "bytes32",
          "name": "name",
          "type": "bytes32"
        },
        {
          "internalType": "uint256",
          "name": "identityCommitment",
          "type": "uint256"
        },
        {
          "internalType": "uint256[]",
          "name": "proofSiblingNodes",
          "type": "uint256[]"
        },
        {
          "internalType": "uint8[]",
          "name": "proofPath",
          "type": "uint8[]"
        }
      ],
      "name": "deleteIdentityCommitment",
      "outputs": [],
      "stateMutability": "nonpayable",
      "type": "function"
    },
    {
      "inputs": [
        {
          "internalType": "bytes32",
          "name": "provider",
          "type": "bytes32"
        },
        {
          "internalType": "bytes32",
          "name": "name",
          "type": "bytes32"
        }
      ],
      "name": "getRoot",
      "outputs": [
        {
          "internalType": "uint256",
          "name": "",
          "type": "uint256"
        }
      ],
      "stateMutability": "view",
      "type": "function"
    },
    {
      "inputs": [
        {
          "internalType": "bytes32",
          "name": "provider",
          "type": "bytes32"
        },
        {
          "internalType": "bytes32",
          "name": "name",
          "type": "bytes32"
        }
      ],
      "name": "getSize",
      "outputs": [
        {
          "internalType": "uint256",
          "name": "",
          "type": "uint256"
        }
      ],
      "stateMutability": "view",
      "type": "function"
    },
    {
      "inputs": [],
      "name": "initialize",
      "outputs": [],
      "stateMutability": "nonpayable",
      "type": "function"
    },
    {
      "inputs": [],
      "name": "owner",
      "outputs": [
        {
          "internalType": "address",
          "name": "",
          "type": "address"
        }
      ],
      "stateMutability": "view",
      "type": "function"
    },
    {
      "inputs": [],
      "name": "renounceOwnership",
      "outputs": [],
      "stateMutability": "nonpayable",
      "type": "function"
    },
    {
      "inputs": [
        {
          "internalType": "address",
          "name": "newOwner",
          "type": "address"
        }
      ],
      "name": "transferOwnership",
      "outputs": [],
      "stateMutability": "nonpayable",
      "type": "function"
    }
  ],
  "bytecode": "0x608060405234801561001057600080fd5b50611947806100206000396000f3fe608060405234801561001057600080fd5b50600436106100935760003560e01c8063a2bcf69e11610066578063a2bcf69e146100e6578063a6c75e2f14610102578063c7cec48714610132578063cc928bce14610162578063f2fde38b1461017e57610093565b806302a075d914610098578063715018a6146100b45780638129fc1c146100be5780638da5cb5b146100c8575b600080fd5b6100b260048036038101906100ad9190611057565b61019a565b005b6100bc610394565b005b6100c661041c565b005b6100d06104fd565b6040516100dd9190611510565b60405180910390f35b61010060048036038101906100fb91906110fe565b610527565b005b61011c60048036038101906101179190610fcc565b61072d565b60405161012991906116c7565b60405180910390f35b61014c60048036038101906101479190610fcc565b61075c565b60405161015991906116c7565b60405180910390f35b61017c60048036038101906101779190611008565b61078b565b005b61019860048036038101906101939190610fa3565b61097f565b005b60006101a68686610a77565b905060006065600083815260200190815260200160002060000160009054906101000a900460ff1660ff161415610212576040517f08c379a0000000000000000000000000000000000000000000000000000000008152600401610209906115f4565b60405180910390fd5b61021a610aaa565b73ffffffffffffffffffffffffffffffffffffffff166066600083815260200190815260200160002060009054906101000a900473ffffffffffffffffffffffffffffffffffffffff1673ffffffffffffffffffffffffffffffffffffffff16146102ba576040517f08c379a00000000000000000000000000000000000000000000000000000000081526004016102b190611574565b60405180910390fd5b6065600082815260200190815260200160002073__$1318ec46aab23773e2b97b835ab63c28b8$__6368f2201690918686866040518563ffffffff1660e01b815260040161030b949392919061163d565b60006040518083038186803b15801561032357600080fd5b505af4158015610337573d6000803e3d6000fd5b5050505084867f0b7f78a31acf364412aefb667523989ce1f6c324cfebcc5a7f7551b69a8d127c8660656000868152602001908152602001600020600101546040516103849291906116e2565b60405180910390a3505050505050565b61039c610aaa565b73ffffffffffffffffffffffffffffffffffffffff166103ba6104fd565b73ffffffffffffffffffffffffffffffffffffffff1614610410576040517f08c379a0000000000000000000000000000000000000000000000000000000008152600401610407906115b4565b60405180910390fd5b61041a6000610ab2565b565b600060019054906101000a900460ff1680610442575060008054906101000a900460ff16155b610481576040517f08c379a000000000000000000000000000000000000000000000000000000000815260040161047890611594565b60405180910390fd5b60008060019054906101000a900460ff1615905080156104d1576001600060016101000a81548160ff02191690831515021790555060016000806101000a81548160ff0219169083151502179055505b6104d9610b78565b80156104fa5760008060016101000a81548160ff0219169083151502179055505b50565b6000603360009054906101000a900473ffffffffffffffffffffffffffffffffffffffff16905090565b61052f610aaa565b73ffffffffffffffffffffffffffffffffffffffff1661054d6104fd565b73ffffffffffffffffffffffffffffffffffffffff16146105a3576040517f08c379a000000000000000000000000000000000000000000000000000000000815260040161059a906115b4565b60405180910390fd5b60006105af8585610a77565b905060006065600083815260200190815260200160002060000160009054906101000a900460ff1660ff161461061a576040517f08c379a0000000000000000000000000000000000000000000000000000000008152600401610611906115d4565b60405180910390fd5b6065600082815260200190815260200160002073__$1318ec46aab23773e2b97b835ab63c28b8$__63951d991f90918560006040518463ffffffff1660e01b815260040161066a93929190611690565b60006040518083038186803b15801561068257600080fd5b505af4158015610696573d6000803e3d6000fd5b50505050816066600083815260200190815260200160002060006101000a81548173ffffffffffffffffffffffffffffffffffffffff021916908373ffffffffffffffffffffffffffffffffffffffff160217905550847fb4ff2f5d70978594ead0f26c19e974851edeaadcf481b3a2d252d5426f5e8787858560405161071e92919061152b565b60405180910390a25050505050565b60008061073a8484610a77565b9050606560008281526020019081526020016000206002015491505092915050565b6000806107698484610a77565b9050606560008281526020019081526020016000206001015491505092915050565b60006107978484610a77565b905060006065600083815260200190815260200160002060000160009054906101000a900460ff1660ff161415610803576040517f08c379a00000000000000000000000000000000000000000000000000000000081526004016107fa906115f4565b60405180910390fd5b61080b610aaa565b73ffffffffffffffffffffffffffffffffffffffff166066600083815260200190815260200160002060009054906101000a900473ffffffffffffffffffffffffffffffffffffffff1673ffffffffffffffffffffffffffffffffffffffff16146108ab576040517f08c379a00000000000000000000000000000000000000000000000000000000081526004016108a290611574565b60405180910390fd5b6065600082815260200190815260200160002073__$1318ec46aab23773e2b97b835ab63c28b8$__63bbfc877f9091846040518363ffffffff1660e01b81526004016108f8929190611614565b60006040518083038186803b15801561091057600080fd5b505af4158015610924573d6000803e3d6000fd5b5050505082847f382dc66b6ed7d4b00ae522ce901bb92e2894c0edbba7134d3c31782e4646151d8460656000868152602001908152602001600020600101546040516109719291906116e2565b60405180910390a350505050565b610987610aaa565b73ffffffffffffffffffffffffffffffffffffffff166109a56104fd565b73ffffffffffffffffffffffffffffffffffffffff16146109fb576040517f08c379a00000000000000000000000000000000000000000000000000000000081526004016109f2906115b4565b60405180910390fd5b600073ffffffffffffffffffffffffffffffffffffffff168173ffffffffffffffffffffffffffffffffffffffff161415610a6b576040517f08c379a0000000000000000000000000000000000000000000000000000000008152600401610a6290611554565b60405180910390fd5b610a7481610ab2565b50565b60008282604051602001610a8c9291906114e4565b60405160208183030381529060405280519060200120905092915050565b600033905090565b6000603360009054906101000a900473ffffffffffffffffffffffffffffffffffffffff16905081603360006101000a81548173ffffffffffffffffffffffffffffffffffffffff021916908373ffffffffffffffffffffffffffffffffffffffff1602179055508173ffffffffffffffffffffffffffffffffffffffff168173ffffffffffffffffffffffffffffffffffffffff167f8be0079c531659141344cd1fd0a4f28419497f9722a3daafe3b4186f6b6457e060405160405180910390a35050565b600060019054906101000a900460ff1680610b9e575060008054906101000a900460ff16155b610bdd576040517f08c379a0000000000000000000000000000000000000000000000000000000008152600401610bd490611594565b60405180910390fd5b60008060019054906101000a900460ff161590508015610c2d576001600060016101000a81548160ff02191690831515021790555060016000806101000a81548160ff0219169083151502179055505b610c35610c61565b610c3d610d3a565b8015610c5e5760008060016101000a81548160ff0219169083151502179055505b50565b600060019054906101000a900460ff1680610c87575060008054906101000a900460ff16155b610cc6576040517f08c379a0000000000000000000000000000000000000000000000000000000008152600401610cbd90611594565b60405180910390fd5b60008060019054906101000a900460ff161590508015610d16576001600060016101000a81548160ff02191690831515021790555060016000806101000a81548160ff0219169083151502179055505b8015610d375760008060016101000a81548160ff0219169083151502179055505b50565b600060019054906101000a900460ff1680610d60575060008054906101000a900460ff16155b610d9f576040517f08c379a0000000000000000000000000000000000000000000000000000000008152600401610d9690611594565b60405180910390fd5b60008060019054906101000a900460ff161590508015610def576001600060016101000a81548160ff02191690831515021790555060016000806101000a81548160ff0219169083151502179055505b610dff610dfa610aaa565b610ab2565b8015610e205760008060016101000a81548160ff0219169083151502179055505b50565b6000610e36610e318461173c565b61170b565b90508083825260208201905082856020860282011115610e5557600080fd5b60005b85811015610e855781610e6b8882610f79565b845260208401935060208301925050600181019050610e58565b5050509392505050565b6000610ea2610e9d84611768565b61170b565b90508083825260208201905082856020860282011115610ec157600080fd5b60005b85811015610ef15781610ed78882610f8e565b845260208401935060208301925050600181019050610ec4565b5050509392505050565b600081359050610f0a816118b5565b92915050565b600082601f830112610f2157600080fd5b8135610f31848260208601610e23565b91505092915050565b600082601f830112610f4b57600080fd5b8135610f5b848260208601610e8f565b91505092915050565b600081359050610f73816118cc565b92915050565b600081359050610f88816118e3565b92915050565b600081359050610f9d816118fa565b92915050565b600060208284031215610fb557600080fd5b6000610fc384828501610efb565b91505092915050565b60008060408385031215610fdf57600080fd5b6000610fed85828601610f64565b9250506020610ffe85828601610f64565b9150509250929050565b60008060006060848603121561101d57600080fd5b600061102b86828701610f64565b935050602061103c86828701610f64565b925050604061104d86828701610f79565b9150509250925092565b600080600080600060a0868803121561106f57600080fd5b600061107d88828901610f64565b955050602061108e88828901610f64565b945050604061109f88828901610f79565b935050606086013567ffffffffffffffff8111156110bc57600080fd5b6110c888828901610f10565b925050608086013567ffffffffffffffff8111156110e557600080fd5b6110f188828901610f3a565b9150509295509295909350565b6000806000806080858703121561111457600080fd5b600061112287828801610f64565b945050602061113387828801610f64565b935050604061114487828801610f8e565b925050606061115587828801610efb565b91505092959194509250565b600061116d83836114a8565b60208301905092915050565b600061118583836114d5565b60208301905092915050565b61119a81611817565b82525050565b60006111ab826117b4565b6111b581856117e4565b93506111c083611794565b8060005b838110156111f15781516111d88882611161565b97506111e3836117ca565b9250506001810190506111c4565b5085935050505092915050565b6000611209826117bf565b61121381856117f5565b935061121e836117a4565b8060005b8381101561124f5781516112368882611179565b9750611241836117d7565b925050600181019050611222565b5085935050505092915050565b61126581611829565b82525050565b61127c61127782611829565b61187c565b82525050565b61128b8161186a565b82525050565b600061129e602683611806565b91507f4f776e61626c653a206e6577206f776e657220697320746865207a65726f206160008301527f64647265737300000000000000000000000000000000000000000000000000006020830152604082019050919050565b6000611304602583611806565b91507f47726f7570733a2063616c6c6572206973206e6f74207468652067726f75702060008301527f61646d696e0000000000000000000000000000000000000000000000000000006020830152604082019050919050565b600061136a602e83611806565b91507f496e697469616c697a61626c653a20636f6e747261637420697320616c72656160008301527f647920696e697469616c697a65640000000000000000000000000000000000006020830152604082019050919050565b60006113d0602083611806565b91507f4f776e61626c653a2063616c6c6572206973206e6f7420746865206f776e65726000830152602082019050919050565b6000611410601c83611806565b91507f47726f7570733a2067726f757020616c726561647920657869737473000000006000830152602082019050919050565b6000611450601c83611806565b91507f47726f7570733a2067726f757020646f6573206e6f74206578697374000000006000830152602082019050919050565b8082525050565b61149381611853565b82525050565b6114a281611853565b82525050565b6114b181611853565b82525050565b6114c08161185d565b82525050565b6114cf8161185d565b82525050565b6114de8161185d565b82525050565b60006114f0828561126b565b602082019150611500828461126b565b6020820191508190509392505050565b60006020820190506115256000830184611191565b92915050565b6000604082019050611540600083018561125c565b61154d60208301846114b7565b9392505050565b6000602082019050818103600083015261156d81611291565b9050919050565b6000602082019050818103600083015261158d816112f7565b9050919050565b600060208201905081810360008301526115ad8161135d565b9050919050565b600060208201905081810360008301526115cd816113c3565b9050919050565b600060208201905081810360008301526115ed81611403565b9050919050565b6000602082019050818103600083015261160d81611443565b9050919050565b60006040820190506116296000830185611483565b6116366020830184611499565b9392505050565b60006080820190506116526000830187611483565b61165f6020830186611499565b818103604083015261167181856111a0565b9050818103606083015261168581846111fe565b905095945050505050565b60006060820190506116a56000830186611483565b6116b260208301856114c6565b6116bf6040830184611282565b949350505050565b60006020820190506116dc600083018461148a565b92915050565b60006040820190506116f7600083018561148a565b611704602083018461148a565b9392505050565b6000604051905081810181811067ffffffffffffffff8211171561173257611731611886565b5b8060405250919050565b600067ffffffffffffffff82111561175757611756611886565b5b602082029050602081019050919050565b600067ffffffffffffffff82111561178357611782611886565b5b602082029050602081019050919050565b6000819050602082019050919050565b6000819050602082019050919050565b600081519050919050565b600081519050919050565b6000602082019050919050565b6000602082019050919050565b600082825260208201905092915050565b600082825260208201905092915050565b600082825260208201905092915050565b600061182282611833565b9050919050565b6000819050919050565b600073ffffffffffffffffffffffffffffffffffffffff82169050919050565b6000819050919050565b600060ff82169050919050565b600061187582611853565b9050919050565b6000819050919050565b7f4e487b7100000000000000000000000000000000000000000000000000000000600052604160045260246000fd5b6118be81611817565b81146118c957600080fd5b50565b6118d581611829565b81146118e057600080fd5b50565b6118ec81611853565b81146118f757600080fd5b50565b6119038161185d565b811461190e57600080fd5b5056fea2646970667358221220020ad38133a14bc86b863759c5abbd4818cea15debf4d73c9fdd6c359449e7df64736f6c63430008000033",
  "linkReferences": {
    "contracts/IncrementalTree.sol": {
      "IncrementalTree": [
        {
          "length": 20,
          "start": 751
        },
        {
          "length": 20,
          "start": 1615
        },
        {
          "length": 20,
          "start": 2272
        }
      ]
    }
  },
  "deployedLinkReferences": {
    "contracts/IncrementalTree.sol": {
      "IncrementalTree": [
        {
          "length": 20,
          "start": 719
        },
        {
          "length": 20,
          "start": 1583
        },
        {
          "length": 20,
          "start": 2240
        }
      ]
    }
  }
}