{
  "_format": "hh-sol-artifact-1",
  "contractName": "Groups",
  "sourceName": "contracts/Groups.sol",
  "abi": [
    {
      "anonymous": false,
      "inputs": [
        {
          "indexed": true,
          "internalType": "bytes32",
          "name": "provider",
          "type": "bytes32"
        },
        {
          "indexed": false,
          "internalType": "bytes32",
          "name": "name",
          "type": "bytes32"
        },
        {
          "indexed": false,
          "internalType": "uint8",
          "name": "depth",
          "type": "uint8"
        }
      ],
      "name": "GroupAdded",
      "type": "event"
    },
    {
      "anonymous": false,
      "inputs": [
        {
          "indexed": true,
          "internalType": "bytes32",
          "name": "provider",
          "type": "bytes32"
        },
        {
          "indexed": true,
          "internalType": "bytes32",
          "name": "name",
          "type": "bytes32"
        },
        {
          "indexed": false,
          "internalType": "uint256",
          "name": "identityCommitment",
          "type": "uint256"
        },
        {
          "indexed": false,
          "internalType": "uint256",
          "name": "root",
          "type": "uint256"
        }
      ],
      "name": "IdentityCommitmentAdded",
      "type": "event"
    },
    {
      "anonymous": false,
      "inputs": [
        {
          "indexed": true,
          "internalType": "bytes32",
          "name": "provider",
          "type": "bytes32"
        },
        {
          "indexed": true,
          "internalType": "bytes32",
          "name": "name",
          "type": "bytes32"
        },
        {
          "indexed": false,
          "internalType": "uint256",
          "name": "identityCommitment",
          "type": "uint256"
        },
        {
          "indexed": false,
          "internalType": "uint256",
          "name": "root",
          "type": "uint256"
        }
      ],
      "name": "IdentityCommitmentDeleted",
      "type": "event"
    },
    {
      "anonymous": false,
      "inputs": [
        {
          "indexed": true,
          "internalType": "bytes32",
          "name": "provider",
          "type": "bytes32"
        },
        {
          "indexed": true,
          "internalType": "bytes32",
          "name": "name",
          "type": "bytes32"
        },
        {
          "indexed": false,
          "internalType": "uint256",
          "name": "root",
          "type": "uint256"
        }
      ],
      "name": "OffchainMerkleRoot",
      "type": "event"
    },
    {
      "anonymous": false,
      "inputs": [
        {
          "indexed": true,
          "internalType": "address",
          "name": "previousOwner",
          "type": "address"
        },
        {
          "indexed": true,
          "internalType": "address",
          "name": "newOwner",
          "type": "address"
        }
      ],
      "name": "OwnershipTransferred",
      "type": "event"
    },
    {
      "inputs": [
        {
          "internalType": "bytes32",
          "name": "provider",
          "type": "bytes32"
        },
        {
          "internalType": "bytes32",
          "name": "name",
          "type": "bytes32"
        },
        {
          "internalType": "uint256",
          "name": "identityCommitment",
          "type": "uint256"
        }
      ],
      "name": "addIdentityCommitment",
      "outputs": [],
      "stateMutability": "nonpayable",
      "type": "function"
    },
    {
      "inputs": [
        {
          "internalType": "bytes32",
          "name": "provider",
          "type": "bytes32"
        },
        {
          "internalType": "bytes32",
          "name": "name",
          "type": "bytes32"
        },
        {
          "internalType": "uint8",
          "name": "depth",
          "type": "uint8"
        },
        {
          "internalType": "address",
          "name": "admin",
          "type": "address"
        }
      ],
      "name": "createGroup",
      "outputs": [],
      "stateMutability": "nonpayable",
      "type": "function"
    },
    {
      "inputs": [
        {
          "internalType": "bytes32",
          "name": "provider",
          "type": "bytes32"
        },
        {
          "internalType": "bytes32",
          "name": "name",
          "type": "bytes32"
        },
        {
          "internalType": "uint256",
          "name": "identityCommitment",
          "type": "uint256"
        },
        {
          "internalType": "uint256[]",
          "name": "proofSiblingNodes",
          "type": "uint256[]"
        },
        {
          "internalType": "uint8[]",
          "name": "proofPath",
          "type": "uint8[]"
        }
      ],
      "name": "deleteIdentityCommitment",
      "outputs": [],
      "stateMutability": "nonpayable",
      "type": "function"
    },
    {
      "inputs": [
        {
          "internalType": "bytes32",
          "name": "provider",
          "type": "bytes32"
        },
        {
          "internalType": "bytes32",
          "name": "name",
          "type": "bytes32"
        }
      ],
      "name": "getRoot",
      "outputs": [
        {
          "internalType": "uint256",
          "name": "",
          "type": "uint256"
        }
      ],
      "stateMutability": "view",
      "type": "function"
    },
    {
      "inputs": [
        {
          "internalType": "bytes32",
          "name": "provider",
          "type": "bytes32"
        },
        {
          "internalType": "bytes32",
          "name": "name",
          "type": "bytes32"
        }
      ],
      "name": "getSize",
      "outputs": [
        {
          "internalType": "uint256",
          "name": "",
          "type": "uint256"
        }
      ],
      "stateMutability": "view",
      "type": "function"
    },
    {
      "inputs": [],
      "name": "initialize",
      "outputs": [],
      "stateMutability": "nonpayable",
      "type": "function"
    },
    {
      "inputs": [],
      "name": "owner",
      "outputs": [
        {
          "internalType": "address",
          "name": "",
          "type": "address"
        }
      ],
      "stateMutability": "view",
      "type": "function"
    },
    {
      "inputs": [
        {
          "internalType": "bytes32[]",
          "name": "providers",
          "type": "bytes32[]"
        },
        {
          "internalType": "bytes32[]",
          "name": "names",
          "type": "bytes32[]"
        },
        {
          "internalType": "uint256[]",
          "name": "roots",
          "type": "uint256[]"
        }
      ],
      "name": "publishOffchainMerkleRoots",
      "outputs": [],
      "stateMutability": "nonpayable",
      "type": "function"
    },
    {
      "inputs": [],
      "name": "renounceOwnership",
      "outputs": [],
      "stateMutability": "nonpayable",
      "type": "function"
    },
    {
      "inputs": [
        {
          "internalType": "address",
          "name": "newOwner",
          "type": "address"
        }
      ],
      "name": "transferOwnership",
      "outputs": [],
      "stateMutability": "nonpayable",
      "type": "function"
    }
  ],
  "bytecode": "0x608060405234801561001057600080fd5b50611d9d806100206000396000f3fe608060405234801561001057600080fd5b506004361061009e5760003560e01c8063a2bcf69e11610066578063a2bcf69e1461010d578063a6c75e2f14610129578063c7cec48714610159578063cc928bce14610189578063f2fde38b146101a55761009e565b806302a075d9146100a357806336ed6aaf146100bf578063715018a6146100db5780638129fc1c146100e55780638da5cb5b146100ef575b600080fd5b6100bd60048036038101906100b891906113a2565b6101c1565b005b6100d960048036038101906100d49190611280565b6103bb565b005b6100e36105b2565b005b6100ed61063a565b005b6100f761071b565b60405161010491906118c1565b60405180910390f35b61012760048036038101906101229190611449565b610745565b005b610143600480360381019061013e9190611317565b61094b565b6040516101509190611a98565b60405180910390f35b610173600480360381019061016e9190611317565b61097a565b6040516101809190611a98565b60405180910390f35b6101a3600480360381019061019e9190611353565b6109a9565b005b6101bf60048036038101906101ba9190611257565b610b9d565b005b60006101cd8686610c95565b905060006065600083815260200190815260200160002060000160009054906101000a900460ff1660ff161415610239576040517f08c379a0000000000000000000000000000000000000000000000000000000008152600401610230906119c5565b60405180910390fd5b610241610cc8565b73ffffffffffffffffffffffffffffffffffffffff166066600083815260200190815260200160002060009054906101000a900473ffffffffffffffffffffffffffffffffffffffff1673ffffffffffffffffffffffffffffffffffffffff16146102e1576040517f08c379a00000000000000000000000000000000000000000000000000000000081526004016102d890611925565b60405180910390fd5b6065600082815260200190815260200160002073__$1318ec46aab23773e2b97b835ab63c28b8$__6368f2201690918686866040518563ffffffff1660e01b81526004016103329493929190611a0e565b60006040518083038186803b15801561034a57600080fd5b505af415801561035e573d6000803e3d6000fd5b5050505084867f0b7f78a31acf364412aefb667523989ce1f6c324cfebcc5a7f7551b69a8d127c8660656000868152602001908152602001600020600101546040516103ab929190611ab3565b60405180910390a3505050505050565b6103c3610cc8565b73ffffffffffffffffffffffffffffffffffffffff166103e161071b565b73ffffffffffffffffffffffffffffffffffffffff1614610437576040517f08c379a000000000000000000000000000000000000000000000000000000000815260040161042e90611985565b60405180910390fd5b81518351148015610449575080518251145b610488576040517f08c379a000000000000000000000000000000000000000000000000000000000815260040161047f90611965565b60405180910390fd5b60005b83518160ff1610156105ac57828160ff16815181106104d3577f4e487b7100000000000000000000000000000000000000000000000000000000600052603260045260246000fd5b6020026020010151848260ff1681518110610517577f4e487b7100000000000000000000000000000000000000000000000000000000600052603260045260246000fd5b60200260200101517f41f8d3488b8c4471c4eaa06cd3cbd23ea0f0c010ddc92d7134b9b2deaa0b247d848460ff168151811061057c577f4e487b7100000000000000000000000000000000000000000000000000000000600052603260045260246000fd5b60200260200101516040516105919190611a98565b60405180910390a380806105a490611c79565b91505061048b565b50505050565b6105ba610cc8565b73ffffffffffffffffffffffffffffffffffffffff166105d861071b565b73ffffffffffffffffffffffffffffffffffffffff161461062e576040517f08c379a000000000000000000000000000000000000000000000000000000000815260040161062590611985565b60405180910390fd5b6106386000610cd0565b565b600060019054906101000a900460ff1680610660575060008054906101000a900460ff16155b61069f576040517f08c379a000000000000000000000000000000000000000000000000000000000815260040161069690611945565b60405180910390fd5b60008060019054906101000a900460ff1615905080156106ef576001600060016101000a81548160ff02191690831515021790555060016000806101000a81548160ff0219169083151502179055505b6106f7610d96565b80156107185760008060016101000a81548160ff0219169083151502179055505b50565b6000603360009054906101000a900473ffffffffffffffffffffffffffffffffffffffff16905090565b61074d610cc8565b73ffffffffffffffffffffffffffffffffffffffff1661076b61071b565b73ffffffffffffffffffffffffffffffffffffffff16146107c1576040517f08c379a00000000000000000000000000000000000000000000000000000000081526004016107b890611985565b60405180910390fd5b60006107cd8585610c95565b905060006065600083815260200190815260200160002060000160009054906101000a900460ff1660ff1614610838576040517f08c379a000000000000000000000000000000000000000000000000000000000815260040161082f906119a5565b60405180910390fd5b6065600082815260200190815260200160002073__$1318ec46aab23773e2b97b835ab63c28b8$__63951d991f90918560006040518463ffffffff1660e01b815260040161088893929190611a61565b60006040518083038186803b1580156108a057600080fd5b505af41580156108b4573d6000803e3d6000fd5b50505050816066600083815260200190815260200160002060006101000a81548173ffffffffffffffffffffffffffffffffffffffff021916908373ffffffffffffffffffffffffffffffffffffffff160217905550847fb4ff2f5d70978594ead0f26c19e974851edeaadcf481b3a2d252d5426f5e8787858560405161093c9291906118dc565b60405180910390a25050505050565b6000806109588484610c95565b9050606560008281526020019081526020016000206002015491505092915050565b6000806109878484610c95565b9050606560008281526020019081526020016000206001015491505092915050565b60006109b58484610c95565b905060006065600083815260200190815260200160002060000160009054906101000a900460ff1660ff161415610a21576040517f08c379a0000000000000000000000000000000000000000000000000000000008152600401610a18906119c5565b60405180910390fd5b610a29610cc8565b73ffffffffffffffffffffffffffffffffffffffff166066600083815260200190815260200160002060009054906101000a900473ffffffffffffffffffffffffffffffffffffffff1673ffffffffffffffffffffffffffffffffffffffff1614610ac9576040517f08c379a0000000000000000000000000000000000000000000000000000000008152600401610ac090611925565b60405180910390fd5b6065600082815260200190815260200160002073__$1318ec46aab23773e2b97b835ab63c28b8$__63bbfc877f9091846040518363ffffffff1660e01b8152600401610b169291906119e5565b60006040518083038186803b158015610b2e57600080fd5b505af4158015610b42573d6000803e3d6000fd5b5050505082847f382dc66b6ed7d4b00ae522ce901bb92e2894c0edbba7134d3c31782e4646151d846065600086815260200190815260200160002060010154604051610b8f929190611ab3565b60405180910390a350505050565b610ba5610cc8565b73ffffffffffffffffffffffffffffffffffffffff16610bc361071b565b73ffffffffffffffffffffffffffffffffffffffff1614610c19576040517f08c379a0000000000000000000000000000000000000000000000000000000008152600401610c1090611985565b60405180910390fd5b600073ffffffffffffffffffffffffffffffffffffffff168173ffffffffffffffffffffffffffffffffffffffff161415610c89576040517f08c379a0000000000000000000000000000000000000000000000000000000008152600401610c8090611905565b60405180910390fd5b610c9281610cd0565b50565b60008282604051602001610caa929190611895565b60405160208183030381529060405280519060200120905092915050565b600033905090565b6000603360009054906101000a900473ffffffffffffffffffffffffffffffffffffffff16905081603360006101000a81548173ffffffffffffffffffffffffffffffffffffffff021916908373ffffffffffffffffffffffffffffffffffffffff1602179055508173ffffffffffffffffffffffffffffffffffffffff168173ffffffffffffffffffffffffffffffffffffffff167f8be0079c531659141344cd1fd0a4f28419497f9722a3daafe3b4186f6b6457e060405160405180910390a35050565b600060019054906101000a900460ff1680610dbc575060008054906101000a900460ff16155b610dfb576040517f08c379a0000000000000000000000000000000000000000000000000000000008152600401610df290611945565b60405180910390fd5b60008060019054906101000a900460ff161590508015610e4b576001600060016101000a81548160ff02191690831515021790555060016000806101000a81548160ff0219169083151502179055505b610e53610e7f565b610e5b610f58565b8015610e7c5760008060016101000a81548160ff0219169083151502179055505b50565b600060019054906101000a900460ff1680610ea5575060008054906101000a900460ff16155b610ee4576040517f08c379a0000000000000000000000000000000000000000000000000000000008152600401610edb90611945565b60405180910390fd5b60008060019054906101000a900460ff161590508015610f34576001600060016101000a81548160ff02191690831515021790555060016000806101000a81548160ff0219169083151502179055505b8015610f555760008060016101000a81548160ff0219169083151502179055505b50565b600060019054906101000a900460ff1680610f7e575060008054906101000a900460ff16155b610fbd576040517f08c379a0000000000000000000000000000000000000000000000000000000008152600401610fb490611945565b60405180910390fd5b60008060019054906101000a900460ff16159050801561100d576001600060016101000a81548160ff02191690831515021790555060016000806101000a81548160ff0219169083151502179055505b61101d611018610cc8565b610cd0565b801561103e5760008060016101000a81548160ff0219169083151502179055505b50565b600061105461104f84611b0d565b611adc565b9050808382526020820190508285602086028201111561107357600080fd5b60005b858110156110a357816110898882611218565b845260208401935060208301925050600181019050611076565b5050509392505050565b60006110c06110bb84611b39565b611adc565b905080838252602082019050828560208602820111156110df57600080fd5b60005b8581101561110f57816110f5888261122d565b8452602084019350602083019250506001810190506110e2565b5050509392505050565b600061112c61112784611b65565b611adc565b9050808382526020820190508285602086028201111561114b57600080fd5b60005b8581101561117b57816111618882611242565b84526020840193506020830192505060018101905061114e565b5050509392505050565b60008135905061119481611d0b565b92915050565b600082601f8301126111ab57600080fd5b81356111bb848260208601611041565b91505092915050565b600082601f8301126111d557600080fd5b81356111e58482602086016110ad565b91505092915050565b600082601f8301126111ff57600080fd5b813561120f848260208601611119565b91505092915050565b60008135905061122781611d22565b92915050565b60008135905061123c81611d39565b92915050565b60008135905061125181611d50565b92915050565b60006020828403121561126957600080fd5b600061127784828501611185565b91505092915050565b60008060006060848603121561129557600080fd5b600084013567ffffffffffffffff8111156112af57600080fd5b6112bb8682870161119a565b935050602084013567ffffffffffffffff8111156112d857600080fd5b6112e48682870161119a565b925050604084013567ffffffffffffffff81111561130157600080fd5b61130d868287016111c4565b9150509250925092565b6000806040838503121561132a57600080fd5b600061133885828601611218565b925050602061134985828601611218565b9150509250929050565b60008060006060848603121561136857600080fd5b600061137686828701611218565b935050602061138786828701611218565b92505060406113988682870161122d565b9150509250925092565b600080600080600060a086880312156113ba57600080fd5b60006113c888828901611218565b95505060206113d988828901611218565b94505060406113ea8882890161122d565b935050606086013567ffffffffffffffff81111561140757600080fd5b611413888289016111c4565b925050608086013567ffffffffffffffff81111561143057600080fd5b61143c888289016111ee565b9150509295509295909350565b6000806000806080858703121561145f57600080fd5b600061146d87828801611218565b945050602061147e87828801611218565b935050604061148f87828801611242565b92505060606114a087828801611185565b91505092959194509250565b60006114b88383611859565b60208301905092915050565b60006114d08383611886565b60208301905092915050565b6114e581611c14565b82525050565b60006114f682611bb1565b6115008185611be1565b935061150b83611b91565b8060005b8381101561153c57815161152388826114ac565b975061152e83611bc7565b92505060018101905061150f565b5085935050505092915050565b600061155482611bbc565b61155e8185611bf2565b935061156983611ba1565b8060005b8381101561159a57815161158188826114c4565b975061158c83611bd4565b92505060018101905061156d565b5085935050505092915050565b6115b081611c26565b82525050565b6115c76115c282611c26565b611ca3565b82525050565b6115d681611c67565b82525050565b60006115e9602683611c03565b91507f4f776e61626c653a206e6577206f776e657220697320746865207a65726f206160008301527f64647265737300000000000000000000000000000000000000000000000000006020830152604082019050919050565b600061164f602583611c03565b91507f47726f7570733a2063616c6c6572206973206e6f74207468652067726f75702060008301527f61646d696e0000000000000000000000000000000000000000000000000000006020830152604082019050919050565b60006116b5602e83611c03565b91507f496e697469616c697a61626c653a20636f6e747261637420697320616c72656160008301527f647920696e697469616c697a65640000000000000000000000000000000000006020830152604082019050919050565b600061171b603683611c03565b91507f47726f7570733a20706172616d6574657273206c6973747320646f6573206e6f60008301527f742068617665207468652073616d65206c656e677468000000000000000000006020830152604082019050919050565b6000611781602083611c03565b91507f4f776e61626c653a2063616c6c6572206973206e6f7420746865206f776e65726000830152602082019050919050565b60006117c1601c83611c03565b91507f47726f7570733a2067726f757020616c726561647920657869737473000000006000830152602082019050919050565b6000611801601c83611c03565b91507f47726f7570733a2067726f757020646f6573206e6f74206578697374000000006000830152602082019050919050565b8082525050565b61184481611c50565b82525050565b61185381611c50565b82525050565b61186281611c50565b82525050565b61187181611c5a565b82525050565b61188081611c5a565b82525050565b61188f81611c5a565b82525050565b60006118a182856115b6565b6020820191506118b182846115b6565b6020820191508190509392505050565b60006020820190506118d660008301846114dc565b92915050565b60006040820190506118f160008301856115a7565b6118fe6020830184611868565b9392505050565b6000602082019050818103600083015261191e816115dc565b9050919050565b6000602082019050818103600083015261193e81611642565b9050919050565b6000602082019050818103600083015261195e816116a8565b9050919050565b6000602082019050818103600083015261197e8161170e565b9050919050565b6000602082019050818103600083015261199e81611774565b9050919050565b600060208201905081810360008301526119be816117b4565b9050919050565b600060208201905081810360008301526119de816117f4565b9050919050565b60006040820190506119fa6000830185611834565b611a07602083018461184a565b9392505050565b6000608082019050611a236000830187611834565b611a30602083018661184a565b8181036040830152611a4281856114eb565b90508181036060830152611a568184611549565b905095945050505050565b6000606082019050611a766000830186611834565b611a836020830185611877565b611a9060408301846115cd565b949350505050565b6000602082019050611aad600083018461183b565b92915050565b6000604082019050611ac8600083018561183b565b611ad5602083018461183b565b9392505050565b6000604051905081810181811067ffffffffffffffff82111715611b0357611b02611cdc565b5b8060405250919050565b600067ffffffffffffffff821115611b2857611b27611cdc565b5b602082029050602081019050919050565b600067ffffffffffffffff821115611b5457611b53611cdc565b5b602082029050602081019050919050565b600067ffffffffffffffff821115611b8057611b7f611cdc565b5b602082029050602081019050919050565b6000819050602082019050919050565b6000819050602082019050919050565b600081519050919050565b600081519050919050565b6000602082019050919050565b6000602082019050919050565b600082825260208201905092915050565b600082825260208201905092915050565b600082825260208201905092915050565b6000611c1f82611c30565b9050919050565b6000819050919050565b600073ffffffffffffffffffffffffffffffffffffffff82169050919050565b6000819050919050565b600060ff82169050919050565b6000611c7282611c50565b9050919050565b6000611c8482611c5a565b915060ff821415611c9857611c97611cad565b5b600182019050919050565b6000819050919050565b7f4e487b7100000000000000000000000000000000000000000000000000000000600052601160045260246000fd5b7f4e487b7100000000000000000000000000000000000000000000000000000000600052604160045260246000fd5b611d1481611c14565b8114611d1f57600080fd5b50565b611d2b81611c26565b8114611d3657600080fd5b50565b611d4281611c50565b8114611d4d57600080fd5b50565b611d5981611c5a565b8114611d6457600080fd5b5056fea26469706673582212205995b617880fb08fb512f4963a70653b9ea84ba657f825e29bc05a6a5ee2e08564736f6c63430008000033",
  "linkReferences": {
    "contracts/IncrementalTree.sol": {
      "IncrementalTree": [
        {
          "length": 20,
          "start": 790
        },
        {
          "length": 20,
          "start": 2157
        },
        {
          "length": 20,
          "start": 2814
        }
      ]
    }
  },
  "deployedLinkReferences": {
    "contracts/IncrementalTree.sol": {
      "IncrementalTree": [
        {
          "length": 20,
          "start": 758
        },
        {
          "length": 20,
          "start": 2125
        },
        {
          "length": 20,
          "start": 2782
        }
      ]
    }
  }
}