{
  "_format": "hh-sol-artifact-1",
  "contractName": "Groups",
  "sourceName": "contracts/Groups.sol",
  "abi": [
    {
      "anonymous": false,
      "inputs": [
        {
          "indexed": true,
          "internalType": "bytes32",
          "name": "provider",
          "type": "bytes32"
        },
        {
          "indexed": false,
          "internalType": "bytes32",
          "name": "name",
          "type": "bytes32"
        },
        {
          "indexed": false,
          "internalType": "uint8",
          "name": "depth",
          "type": "uint8"
        }
      ],
      "name": "GroupAdded",
      "type": "event"
    },
    {
      "anonymous": false,
      "inputs": [
        {
          "indexed": true,
          "internalType": "bytes32",
          "name": "provider",
          "type": "bytes32"
        },
        {
          "indexed": true,
          "internalType": "bytes32",
          "name": "name",
          "type": "bytes32"
        },
        {
          "indexed": false,
          "internalType": "uint256",
          "name": "identityCommitment",
          "type": "uint256"
        },
        {
          "indexed": false,
          "internalType": "uint256",
          "name": "root",
          "type": "uint256"
        }
      ],
      "name": "IdentityCommitmentAdded",
      "type": "event"
    },
    {
      "anonymous": false,
      "inputs": [
        {
          "indexed": true,
          "internalType": "bytes32",
          "name": "provider",
          "type": "bytes32"
        },
        {
          "indexed": true,
          "internalType": "bytes32",
          "name": "name",
          "type": "bytes32"
        },
        {
          "indexed": false,
          "internalType": "uint256",
          "name": "identityCommitment",
          "type": "uint256"
        },
        {
          "indexed": false,
          "internalType": "uint256",
          "name": "root",
          "type": "uint256"
        }
      ],
      "name": "IdentityCommitmentDeleted",
      "type": "event"
    },
    {
      "anonymous": false,
      "inputs": [
        {
          "indexed": true,
          "internalType": "bytes32",
          "name": "provider",
          "type": "bytes32"
        },
        {
          "indexed": true,
          "internalType": "bytes32",
          "name": "name",
          "type": "bytes32"
        },
        {
          "indexed": false,
          "internalType": "uint256",
          "name": "root",
          "type": "uint256"
        }
      ],
      "name": "OffchainRoot",
      "type": "event"
    },
    {
      "anonymous": false,
      "inputs": [
        {
          "indexed": true,
          "internalType": "address",
          "name": "previousOwner",
          "type": "address"
        },
        {
          "indexed": true,
          "internalType": "address",
          "name": "newOwner",
          "type": "address"
        }
      ],
      "name": "OwnershipTransferred",
      "type": "event"
    },
    {
      "inputs": [
        {
          "internalType": "bytes32",
          "name": "provider",
          "type": "bytes32"
        },
        {
          "internalType": "bytes32",
          "name": "name",
          "type": "bytes32"
        },
        {
          "internalType": "uint256",
          "name": "identityCommitment",
          "type": "uint256"
        }
      ],
      "name": "addIdentityCommitment",
      "outputs": [],
      "stateMutability": "nonpayable",
      "type": "function"
    },
    {
      "inputs": [
        {
          "internalType": "bytes32[]",
          "name": "providers",
          "type": "bytes32[]"
        },
        {
          "internalType": "bytes32[]",
          "name": "names",
          "type": "bytes32[]"
        },
        {
          "internalType": "uint256[]",
          "name": "roots",
          "type": "uint256[]"
        }
      ],
      "name": "addOffchainRoots",
      "outputs": [],
      "stateMutability": "nonpayable",
      "type": "function"
    },
    {
      "inputs": [
        {
          "internalType": "bytes32",
          "name": "provider",
          "type": "bytes32"
        },
        {
          "internalType": "bytes32",
          "name": "name",
          "type": "bytes32"
        },
        {
          "internalType": "uint8",
          "name": "depth",
          "type": "uint8"
        },
        {
          "internalType": "address",
          "name": "admin",
          "type": "address"
        }
      ],
      "name": "createGroup",
      "outputs": [],
      "stateMutability": "nonpayable",
      "type": "function"
    },
    {
      "inputs": [
        {
          "internalType": "bytes32",
          "name": "provider",
          "type": "bytes32"
        },
        {
          "internalType": "bytes32",
          "name": "name",
          "type": "bytes32"
        },
        {
          "internalType": "uint256",
          "name": "identityCommitment",
          "type": "uint256"
        },
        {
          "internalType": "uint256[]",
          "name": "proofSiblingNodes",
          "type": "uint256[]"
        },
        {
          "internalType": "uint8[]",
          "name": "proofPath",
          "type": "uint8[]"
        }
      ],
      "name": "deleteIdentityCommitment",
      "outputs": [],
      "stateMutability": "nonpayable",
      "type": "function"
    },
    {
      "inputs": [
        {
          "internalType": "bytes32",
          "name": "provider",
          "type": "bytes32"
        },
        {
          "internalType": "bytes32",
          "name": "name",
          "type": "bytes32"
        }
      ],
      "name": "getOffchainRoot",
      "outputs": [
        {
          "internalType": "uint256",
          "name": "",
          "type": "uint256"
        }
      ],
      "stateMutability": "view",
      "type": "function"
    },
    {
      "inputs": [
        {
          "internalType": "bytes32",
          "name": "provider",
          "type": "bytes32"
        },
        {
          "internalType": "bytes32",
          "name": "name",
          "type": "bytes32"
        }
      ],
      "name": "getRoot",
      "outputs": [
        {
          "internalType": "uint256",
          "name": "",
          "type": "uint256"
        }
      ],
      "stateMutability": "view",
      "type": "function"
    },
    {
      "inputs": [
        {
          "internalType": "bytes32",
          "name": "provider",
          "type": "bytes32"
        },
        {
          "internalType": "bytes32",
          "name": "name",
          "type": "bytes32"
        }
      ],
      "name": "getSize",
      "outputs": [
        {
          "internalType": "uint256",
          "name": "",
          "type": "uint256"
        }
      ],
      "stateMutability": "view",
      "type": "function"
    },
    {
      "inputs": [],
      "name": "initialize",
      "outputs": [],
      "stateMutability": "nonpayable",
      "type": "function"
    },
    {
      "inputs": [],
      "name": "owner",
      "outputs": [
        {
          "internalType": "address",
          "name": "",
          "type": "address"
        }
      ],
      "stateMutability": "view",
      "type": "function"
    },
    {
      "inputs": [],
      "name": "renounceOwnership",
      "outputs": [],
      "stateMutability": "nonpayable",
      "type": "function"
    },
    {
      "inputs": [
        {
          "internalType": "address",
          "name": "newOwner",
          "type": "address"
        }
      ],
      "name": "transferOwnership",
      "outputs": [],
      "stateMutability": "nonpayable",
      "type": "function"
    }
  ],
  "bytecode": "0x608060405234801561001057600080fd5b50611ef4806100206000396000f3fe608060405234801561001057600080fd5b50600436106100a95760003560e01c80638da5cb5b116100715780638da5cb5b1461012a578063a2bcf69e14610148578063a6c75e2f14610164578063c7cec48714610194578063cc928bce146101c4578063f2fde38b146101e0576100a9565b806302a075d9146100ae5780631f20db22146100ca578063272021ea146100fa578063715018a6146101165780638129fc1c14610120575b600080fd5b6100c860048036038101906100c391906114f9565b6101fc565b005b6100e460048036038101906100df919061146e565b6103f6565b6040516100f19190611bef565b60405180910390f35b610114600480360381019061010f91906113d7565b610422565b005b61011e610709565b005b610128610791565b005b610132610872565b60405161013f9190611a18565b60405180910390f35b610162600480360381019061015d91906115a0565b61089c565b005b61017e6004803603810190610179919061146e565b610aa2565b60405161018b9190611bef565b60405180910390f35b6101ae60048036038101906101a9919061146e565b610ad1565b6040516101bb9190611bef565b60405180910390f35b6101de60048036038101906101d991906114aa565b610b00565b005b6101fa60048036038101906101f591906113ae565b610cf4565b005b60006102088686610dec565b905060006066600083815260200190815260200160002060000160009054906101000a900460ff1660ff161415610274576040517f08c379a000000000000000000000000000000000000000000000000000000000815260040161026b90611b1c565b60405180910390fd5b61027c610e1f565b73ffffffffffffffffffffffffffffffffffffffff166067600083815260200190815260200160002060009054906101000a900473ffffffffffffffffffffffffffffffffffffffff1673ffffffffffffffffffffffffffffffffffffffff161461031c576040517f08c379a000000000000000000000000000000000000000000000000000000000815260040161031390611a7c565b60405180910390fd5b6066600082815260200190815260200160002073__$1318ec46aab23773e2b97b835ab63c28b8$__6368f2201690918686866040518563ffffffff1660e01b815260040161036d9493929190611b65565b60006040518083038186803b15801561038557600080fd5b505af4158015610399573d6000803e3d6000fd5b5050505084867f0b7f78a31acf364412aefb667523989ce1f6c324cfebcc5a7f7551b69a8d127c8660666000868152602001908152602001600020600101546040516103e6929190611c0a565b60405180910390a3505050505050565b6000806104038484610dec565b9050606560008281526020019081526020016000205491505092915050565b61042a610e1f565b73ffffffffffffffffffffffffffffffffffffffff16610448610872565b73ffffffffffffffffffffffffffffffffffffffff161461049e576040517f08c379a000000000000000000000000000000000000000000000000000000000815260040161049590611adc565b60405180910390fd5b815183511480156104b0575080518251145b6104ef576040517f08c379a00000000000000000000000000000000000000000000000000000000081526004016104e690611abc565b60405180910390fd5b60005b83518160ff161015610703576000610590858360ff168151811061053f577f4e487b7100000000000000000000000000000000000000000000000000000000600052603260045260246000fd5b6020026020010151858460ff1681518110610583577f4e487b7100000000000000000000000000000000000000000000000000000000600052603260045260246000fd5b6020026020010151610dec565b9050828260ff16815181106105ce577f4e487b7100000000000000000000000000000000000000000000000000000000600052603260045260246000fd5b60200260200101516065600083815260200190815260200160002081905550838260ff1681518110610629577f4e487b7100000000000000000000000000000000000000000000000000000000600052603260045260246000fd5b6020026020010151858360ff168151811061066d577f4e487b7100000000000000000000000000000000000000000000000000000000600052603260045260246000fd5b60200260200101517fb45d6b9912a16e8025d66f5ac5aa6d694c94ec4ad085bdbc6406b149c8b8b0d6858560ff16815181106106d2577f4e487b7100000000000000000000000000000000000000000000000000000000600052603260045260246000fd5b60200260200101516040516106e79190611bef565b60405180910390a35080806106fb90611dd0565b9150506104f2565b50505050565b610711610e1f565b73ffffffffffffffffffffffffffffffffffffffff1661072f610872565b73ffffffffffffffffffffffffffffffffffffffff1614610785576040517f08c379a000000000000000000000000000000000000000000000000000000000815260040161077c90611adc565b60405180910390fd5b61078f6000610e27565b565b600060019054906101000a900460ff16806107b7575060008054906101000a900460ff16155b6107f6576040517f08c379a00000000000000000000000000000000000000000000000000000000081526004016107ed90611a9c565b60405180910390fd5b60008060019054906101000a900460ff161590508015610846576001600060016101000a81548160ff02191690831515021790555060016000806101000a81548160ff0219169083151502179055505b61084e610eed565b801561086f5760008060016101000a81548160ff0219169083151502179055505b50565b6000603360009054906101000a900473ffffffffffffffffffffffffffffffffffffffff16905090565b6108a4610e1f565b73ffffffffffffffffffffffffffffffffffffffff166108c2610872565b73ffffffffffffffffffffffffffffffffffffffff1614610918576040517f08c379a000000000000000000000000000000000000000000000000000000000815260040161090f90611adc565b60405180910390fd5b60006109248585610dec565b905060006066600083815260200190815260200160002060000160009054906101000a900460ff1660ff161461098f576040517f08c379a000000000000000000000000000000000000000000000000000000000815260040161098690611afc565b60405180910390fd5b6066600082815260200190815260200160002073__$1318ec46aab23773e2b97b835ab63c28b8$__63951d991f90918560006040518463ffffffff1660e01b81526004016109df93929190611bb8565b60006040518083038186803b1580156109f757600080fd5b505af4158015610a0b573d6000803e3d6000fd5b50505050816067600083815260200190815260200160002060006101000a81548173ffffffffffffffffffffffffffffffffffffffff021916908373ffffffffffffffffffffffffffffffffffffffff160217905550847fb4ff2f5d70978594ead0f26c19e974851edeaadcf481b3a2d252d5426f5e87878585604051610a93929190611a33565b60405180910390a25050505050565b600080610aaf8484610dec565b9050606660008281526020019081526020016000206002015491505092915050565b600080610ade8484610dec565b9050606660008281526020019081526020016000206001015491505092915050565b6000610b0c8484610dec565b905060006066600083815260200190815260200160002060000160009054906101000a900460ff1660ff161415610b78576040517f08c379a0000000000000000000000000000000000000000000000000000000008152600401610b6f90611b1c565b60405180910390fd5b610b80610e1f565b73ffffffffffffffffffffffffffffffffffffffff166067600083815260200190815260200160002060009054906101000a900473ffffffffffffffffffffffffffffffffffffffff1673ffffffffffffffffffffffffffffffffffffffff1614610c20576040517f08c379a0000000000000000000000000000000000000000000000000000000008152600401610c1790611a7c565b60405180910390fd5b6066600082815260200190815260200160002073__$1318ec46aab23773e2b97b835ab63c28b8$__63bbfc877f9091846040518363ffffffff1660e01b8152600401610c6d929190611b3c565b60006040518083038186803b158015610c8557600080fd5b505af4158015610c99573d6000803e3d6000fd5b5050505082847f382dc66b6ed7d4b00ae522ce901bb92e2894c0edbba7134d3c31782e4646151d846066600086815260200190815260200160002060010154604051610ce6929190611c0a565b60405180910390a350505050565b610cfc610e1f565b73ffffffffffffffffffffffffffffffffffffffff16610d1a610872565b73ffffffffffffffffffffffffffffffffffffffff1614610d70576040517f08c379a0000000000000000000000000000000000000000000000000000000008152600401610d6790611adc565b60405180910390fd5b600073ffffffffffffffffffffffffffffffffffffffff168173ffffffffffffffffffffffffffffffffffffffff161415610de0576040517f08c379a0000000000000000000000000000000000000000000000000000000008152600401610dd790611a5c565b60405180910390fd5b610de981610e27565b50565b60008282604051602001610e019291906119ec565b60405160208183030381529060405280519060200120905092915050565b600033905090565b6000603360009054906101000a900473ffffffffffffffffffffffffffffffffffffffff16905081603360006101000a81548173ffffffffffffffffffffffffffffffffffffffff021916908373ffffffffffffffffffffffffffffffffffffffff1602179055508173ffffffffffffffffffffffffffffffffffffffff168173ffffffffffffffffffffffffffffffffffffffff167f8be0079c531659141344cd1fd0a4f28419497f9722a3daafe3b4186f6b6457e060405160405180910390a35050565b600060019054906101000a900460ff1680610f13575060008054906101000a900460ff16155b610f52576040517f08c379a0000000000000000000000000000000000000000000000000000000008152600401610f4990611a9c565b60405180910390fd5b60008060019054906101000a900460ff161590508015610fa2576001600060016101000a81548160ff02191690831515021790555060016000806101000a81548160ff0219169083151502179055505b610faa610fd6565b610fb26110af565b8015610fd35760008060016101000a81548160ff0219169083151502179055505b50565b600060019054906101000a900460ff1680610ffc575060008054906101000a900460ff16155b61103b576040517f08c379a000000000000000000000000000000000000000000000000000000000815260040161103290611a9c565b60405180910390fd5b60008060019054906101000a900460ff16159050801561108b576001600060016101000a81548160ff02191690831515021790555060016000806101000a81548160ff0219169083151502179055505b80156110ac5760008060016101000a81548160ff0219169083151502179055505b50565b600060019054906101000a900460ff16806110d5575060008054906101000a900460ff16155b611114576040517f08c379a000000000000000000000000000000000000000000000000000000000815260040161110b90611a9c565b60405180910390fd5b60008060019054906101000a900460ff161590508015611164576001600060016101000a81548160ff02191690831515021790555060016000806101000a81548160ff0219169083151502179055505b61117461116f610e1f565b610e27565b80156111955760008060016101000a81548160ff0219169083151502179055505b50565b60006111ab6111a684611c64565b611c33565b905080838252602082019050828560208602820111156111ca57600080fd5b60005b858110156111fa57816111e0888261136f565b8452602084019350602083019250506001810190506111cd565b5050509392505050565b600061121761121284611c90565b611c33565b9050808382526020820190508285602086028201111561123657600080fd5b60005b85811015611266578161124c8882611384565b845260208401935060208301925050600181019050611239565b5050509392505050565b600061128361127e84611cbc565b611c33565b905080838252602082019050828560208602820111156112a257600080fd5b60005b858110156112d257816112b88882611399565b8452602084019350602083019250506001810190506112a5565b5050509392505050565b6000813590506112eb81611e62565b92915050565b600082601f83011261130257600080fd5b8135611312848260208601611198565b91505092915050565b600082601f83011261132c57600080fd5b813561133c848260208601611204565b91505092915050565b600082601f83011261135657600080fd5b8135611366848260208601611270565b91505092915050565b60008135905061137e81611e79565b92915050565b60008135905061139381611e90565b92915050565b6000813590506113a881611ea7565b92915050565b6000602082840312156113c057600080fd5b60006113ce848285016112dc565b91505092915050565b6000806000606084860312156113ec57600080fd5b600084013567ffffffffffffffff81111561140657600080fd5b611412868287016112f1565b935050602084013567ffffffffffffffff81111561142f57600080fd5b61143b868287016112f1565b925050604084013567ffffffffffffffff81111561145857600080fd5b6114648682870161131b565b9150509250925092565b6000806040838503121561148157600080fd5b600061148f8582860161136f565b92505060206114a08582860161136f565b9150509250929050565b6000806000606084860312156114bf57600080fd5b60006114cd8682870161136f565b93505060206114de8682870161136f565b92505060406114ef86828701611384565b9150509250925092565b600080600080600060a0868803121561151157600080fd5b600061151f8882890161136f565b95505060206115308882890161136f565b945050604061154188828901611384565b935050606086013567ffffffffffffffff81111561155e57600080fd5b61156a8882890161131b565b925050608086013567ffffffffffffffff81111561158757600080fd5b61159388828901611345565b9150509295509295909350565b600080600080608085870312156115b657600080fd5b60006115c48782880161136f565b94505060206115d58782880161136f565b93505060406115e687828801611399565b92505060606115f7878288016112dc565b91505092959194509250565b600061160f83836119b0565b60208301905092915050565b600061162783836119dd565b60208301905092915050565b61163c81611d6b565b82525050565b600061164d82611d08565b6116578185611d38565b935061166283611ce8565b8060005b8381101561169357815161167a8882611603565b975061168583611d1e565b925050600181019050611666565b5085935050505092915050565b60006116ab82611d13565b6116b58185611d49565b93506116c083611cf8565b8060005b838110156116f15781516116d8888261161b565b97506116e383611d2b565b9250506001810190506116c4565b5085935050505092915050565b61170781611d7d565b82525050565b61171e61171982611d7d565b611dfa565b82525050565b61172d81611dbe565b82525050565b6000611740602683611d5a565b91507f4f776e61626c653a206e6577206f776e657220697320746865207a65726f206160008301527f64647265737300000000000000000000000000000000000000000000000000006020830152604082019050919050565b60006117a6602583611d5a565b91507f47726f7570733a2063616c6c6572206973206e6f74207468652067726f75702060008301527f61646d696e0000000000000000000000000000000000000000000000000000006020830152604082019050919050565b600061180c602e83611d5a565b91507f496e697469616c697a61626c653a20636f6e747261637420697320616c72656160008301527f647920696e697469616c697a65640000000000000000000000000000000000006020830152604082019050919050565b6000611872603683611d5a565b91507f47726f7570733a20706172616d6574657273206c6973747320646f6573206e6f60008301527f742068617665207468652073616d65206c656e677468000000000000000000006020830152604082019050919050565b60006118d8602083611d5a565b91507f4f776e61626c653a2063616c6c6572206973206e6f7420746865206f776e65726000830152602082019050919050565b6000611918601c83611d5a565b91507f47726f7570733a2067726f757020616c726561647920657869737473000000006000830152602082019050919050565b6000611958601c83611d5a565b91507f47726f7570733a2067726f757020646f6573206e6f74206578697374000000006000830152602082019050919050565b8082525050565b61199b81611da7565b82525050565b6119aa81611da7565b82525050565b6119b981611da7565b82525050565b6119c881611db1565b82525050565b6119d781611db1565b82525050565b6119e681611db1565b82525050565b60006119f8828561170d565b602082019150611a08828461170d565b6020820191508190509392505050565b6000602082019050611a2d6000830184611633565b92915050565b6000604082019050611a4860008301856116fe565b611a5560208301846119bf565b9392505050565b60006020820190508181036000830152611a7581611733565b9050919050565b60006020820190508181036000830152611a9581611799565b9050919050565b60006020820190508181036000830152611ab5816117ff565b9050919050565b60006020820190508181036000830152611ad581611865565b9050919050565b60006020820190508181036000830152611af5816118cb565b9050919050565b60006020820190508181036000830152611b158161190b565b9050919050565b60006020820190508181036000830152611b358161194b565b9050919050565b6000604082019050611b51600083018561198b565b611b5e60208301846119a1565b9392505050565b6000608082019050611b7a600083018761198b565b611b8760208301866119a1565b8181036040830152611b998185611642565b90508181036060830152611bad81846116a0565b905095945050505050565b6000606082019050611bcd600083018661198b565b611bda60208301856119ce565b611be76040830184611724565b949350505050565b6000602082019050611c046000830184611992565b92915050565b6000604082019050611c1f6000830185611992565b611c2c6020830184611992565b9392505050565b6000604051905081810181811067ffffffffffffffff82111715611c5a57611c59611e33565b5b8060405250919050565b600067ffffffffffffffff821115611c7f57611c7e611e33565b5b602082029050602081019050919050565b600067ffffffffffffffff821115611cab57611caa611e33565b5b602082029050602081019050919050565b600067ffffffffffffffff821115611cd757611cd6611e33565b5b602082029050602081019050919050565b6000819050602082019050919050565b6000819050602082019050919050565b600081519050919050565b600081519050919050565b6000602082019050919050565b6000602082019050919050565b600082825260208201905092915050565b600082825260208201905092915050565b600082825260208201905092915050565b6000611d7682611d87565b9050919050565b6000819050919050565b600073ffffffffffffffffffffffffffffffffffffffff82169050919050565b6000819050919050565b600060ff82169050919050565b6000611dc982611da7565b9050919050565b6000611ddb82611db1565b915060ff821415611def57611dee611e04565b5b600182019050919050565b6000819050919050565b7f4e487b7100000000000000000000000000000000000000000000000000000000600052601160045260246000fd5b7f4e487b7100000000000000000000000000000000000000000000000000000000600052604160045260246000fd5b611e6b81611d6b565b8114611e7657600080fd5b50565b611e8281611d7d565b8114611e8d57600080fd5b50565b611e9981611da7565b8114611ea457600080fd5b50565b611eb081611db1565b8114611ebb57600080fd5b5056fea2646970667358221220b3d28aea2b6dcd466a0a16ccfed3b18f216c566984fb4e53366d6751c7d0bd1264736f6c63430008000033",
  "linkReferences": {
    "contracts/IncrementalTree.sol": {
      "IncrementalTree": [
        {
          "length": 20,
          "start": 849
        },
        {
          "length": 20,
          "start": 2500
        },
        {
          "length": 20,
          "start": 3157
        }
      ]
    }
  },
  "deployedLinkReferences": {
    "contracts/IncrementalTree.sol": {
      "IncrementalTree": [
        {
          "length": 20,
          "start": 817
        },
        {
          "length": 20,
          "start": 2468
        },
        {
          "length": 20,
          "start": 3125
        }
      ]
    }
  }
}