{
  "_format": "hh-sol-artifact-1",
  "contractName": "Interep",
  "sourceName": "contracts/Interep.sol",
  "abi": [
    {
      "inputs": [
        {
          "internalType": "uint8[]",
          "name": "depths",
          "type": "uint8[]"
        },
        {
          "internalType": "address[]",
          "name": "verifierAddresses",
          "type": "address[]"
        }
      ],
      "stateMutability": "nonpayable",
      "type": "constructor"
    },
    {
      "anonymous": false,
      "inputs": [
        {
          "indexed": true,
          "internalType": "uint256",
          "name": "groupId",
          "type": "uint256"
        },
        {
          "indexed": false,
          "internalType": "uint8",
          "name": "depth",
          "type": "uint8"
        }
      ],
      "name": "GroupAdded",
      "type": "event"
    },
    {
      "anonymous": false,
      "inputs": [
        {
          "indexed": true,
          "internalType": "uint256",
          "name": "groupId",
          "type": "uint256"
        },
        {
          "indexed": false,
          "internalType": "uint256",
          "name": "identityCommitment",
          "type": "uint256"
        },
        {
          "indexed": false,
          "internalType": "uint256",
          "name": "root",
          "type": "uint256"
        }
      ],
      "name": "MemberAdded",
      "type": "event"
    },
    {
      "anonymous": false,
      "inputs": [
        {
          "indexed": true,
          "internalType": "uint256",
          "name": "groupId",
          "type": "uint256"
        },
        {
          "indexed": false,
          "internalType": "uint256",
          "name": "identityCommitment",
          "type": "uint256"
        },
        {
          "indexed": false,
          "internalType": "uint256",
          "name": "root",
          "type": "uint256"
        }
      ],
      "name": "MemberRemoved",
      "type": "event"
    },
    {
      "anonymous": false,
      "inputs": [
        {
          "indexed": false,
          "internalType": "uint256",
          "name": "nullifierHash",
          "type": "uint256"
        }
      ],
      "name": "NullifierHashAdded",
      "type": "event"
    },
    {
      "anonymous": false,
      "inputs": [
        {
          "indexed": true,
          "internalType": "uint256",
          "name": "groupId",
          "type": "uint256"
        },
        {
          "indexed": false,
          "internalType": "uint256",
          "name": "root",
          "type": "uint256"
        },
        {
          "indexed": false,
          "internalType": "uint8",
          "name": "depth",
          "type": "uint8"
        }
      ],
      "name": "OffchainGroupAdded",
      "type": "event"
    },
    {
      "anonymous": false,
      "inputs": [
        {
          "indexed": true,
          "internalType": "address",
          "name": "previousOwner",
          "type": "address"
        },
        {
          "indexed": true,
          "internalType": "address",
          "name": "newOwner",
          "type": "address"
        }
      ],
      "name": "OwnershipTransferred",
      "type": "event"
    },
    {
      "anonymous": false,
      "inputs": [
        {
          "indexed": true,
          "internalType": "uint256",
          "name": "groupId",
          "type": "uint256"
        },
        {
          "indexed": false,
          "internalType": "string",
          "name": "signal",
          "type": "string"
        }
      ],
      "name": "ProofVerified",
      "type": "event"
    },
    {
      "inputs": [
        {
          "internalType": "uint256",
          "name": "groupId",
          "type": "uint256"
        },
        {
          "internalType": "uint256",
          "name": "identityCommitment",
          "type": "uint256"
        }
      ],
      "name": "addMember",
      "outputs": [],
      "stateMutability": "nonpayable",
      "type": "function"
    },
    {
      "inputs": [
        {
          "internalType": "uint256[]",
          "name": "groupIds",
          "type": "uint256[]"
        },
        {
          "components": [
            {
              "internalType": "uint256",
              "name": "root",
              "type": "uint256"
            },
            {
              "internalType": "uint8",
              "name": "depth",
              "type": "uint8"
            }
          ],
          "internalType": "struct IInterepGroups.OffchainGroup[]",
          "name": "groups",
          "type": "tuple[]"
        }
      ],
      "name": "addOffchainGroups",
      "outputs": [],
      "stateMutability": "nonpayable",
      "type": "function"
    },
    {
      "inputs": [
        {
          "internalType": "bytes32",
          "name": "c__0x44e47f75",
          "type": "bytes32"
        }
      ],
      "name": "c_0x44e47f75",
      "outputs": [],
      "stateMutability": "pure",
      "type": "function"
    },
    {
      "inputs": [
        {
          "internalType": "bytes32",
          "name": "c__0x53230576",
          "type": "bytes32"
        }
      ],
      "name": "c_0x53230576",
      "outputs": [],
      "stateMutability": "pure",
      "type": "function"
    },
    {
      "inputs": [
        {
          "internalType": "uint256",
          "name": "groupId",
          "type": "uint256"
        },
        {
          "internalType": "uint8",
          "name": "depth",
          "type": "uint8"
        },
        {
          "internalType": "address",
          "name": "admin",
          "type": "address"
        }
      ],
      "name": "createGroup",
      "outputs": [],
      "stateMutability": "nonpayable",
      "type": "function"
    },
    {
      "inputs": [
        {
          "internalType": "uint256",
          "name": "groupId",
          "type": "uint256"
        }
      ],
      "name": "getDepth",
      "outputs": [
        {
          "internalType": "uint8",
          "name": "",
          "type": "uint8"
        }
      ],
      "stateMutability": "view",
      "type": "function"
    },
    {
      "inputs": [
        {
          "internalType": "uint256",
          "name": "groupId",
          "type": "uint256"
        }
      ],
      "name": "getOffchainDepth",
      "outputs": [
        {
          "internalType": "uint8",
          "name": "",
          "type": "uint8"
        }
      ],
      "stateMutability": "view",
      "type": "function"
    },
    {
      "inputs": [
        {
          "internalType": "uint256",
          "name": "groupId",
          "type": "uint256"
        }
      ],
      "name": "getOffchainRoot",
      "outputs": [
        {
          "internalType": "uint256",
          "name": "",
          "type": "uint256"
        }
      ],
      "stateMutability": "view",
      "type": "function"
    },
    {
      "inputs": [
        {
          "internalType": "uint256",
          "name": "groupId",
          "type": "uint256"
        }
      ],
      "name": "getRoot",
      "outputs": [
        {
          "internalType": "uint256",
          "name": "",
          "type": "uint256"
        }
      ],
      "stateMutability": "view",
      "type": "function"
    },
    {
      "inputs": [
        {
          "internalType": "uint256",
          "name": "groupId",
          "type": "uint256"
        }
      ],
      "name": "getSize",
      "outputs": [
        {
          "internalType": "uint256",
          "name": "",
          "type": "uint256"
        }
      ],
      "stateMutability": "view",
      "type": "function"
    },
    {
      "inputs": [
        {
          "internalType": "uint256",
          "name": "",
          "type": "uint256"
        }
      ],
      "name": "groupAdmins",
      "outputs": [
        {
          "internalType": "address",
          "name": "",
          "type": "address"
        }
      ],
      "stateMutability": "view",
      "type": "function"
    },
    {
      "inputs": [
        {
          "internalType": "uint256",
          "name": "",
          "type": "uint256"
        }
      ],
      "name": "offchainGroups",
      "outputs": [
        {
          "internalType": "uint256",
          "name": "root",
          "type": "uint256"
        },
        {
          "internalType": "uint8",
          "name": "depth",
          "type": "uint8"
        }
      ],
      "stateMutability": "view",
      "type": "function"
    },
    {
      "inputs": [],
      "name": "owner",
      "outputs": [
        {
          "internalType": "address",
          "name": "",
          "type": "address"
        }
      ],
      "stateMutability": "view",
      "type": "function"
    },
    {
      "inputs": [
        {
          "internalType": "uint256",
          "name": "groupId",
          "type": "uint256"
        },
        {
          "internalType": "uint256",
          "name": "identityCommitment",
          "type": "uint256"
        },
        {
          "internalType": "uint256[]",
          "name": "proofSiblings",
          "type": "uint256[]"
        },
        {
          "internalType": "uint8[]",
          "name": "proofPathIndices",
          "type": "uint8[]"
        }
      ],
      "name": "removeMember",
      "outputs": [],
      "stateMutability": "nonpayable",
      "type": "function"
    },
    {
      "inputs": [],
      "name": "renounceOwnership",
      "outputs": [],
      "stateMutability": "nonpayable",
      "type": "function"
    },
    {
      "inputs": [
        {
          "internalType": "address",
          "name": "newOwner",
          "type": "address"
        }
      ],
      "name": "transferOwnership",
      "outputs": [],
      "stateMutability": "nonpayable",
      "type": "function"
    },
    {
      "inputs": [
        {
          "internalType": "uint8",
          "name": "",
          "type": "uint8"
        }
      ],
      "name": "verifiers",
      "outputs": [
        {
          "internalType": "contract IVerifier",
          "name": "",
          "type": "address"
        }
      ],
      "stateMutability": "view",
      "type": "function"
    },
    {
      "inputs": [
        {
          "internalType": "uint256",
          "name": "groupId",
          "type": "uint256"
        },
        {
          "internalType": "string",
          "name": "signal",
          "type": "string"
        },
        {
          "internalType": "uint256",
          "name": "nullifierHash",
          "type": "uint256"
        },
        {
          "internalType": "uint256",
          "name": "externalNullifier",
          "type": "uint256"
        },
        {
          "internalType": "uint256[8]",
          "name": "proof",
          "type": "uint256[8]"
        }
      ],
      "name": "verifyProof",
      "outputs": [],
      "stateMutability": "nonpayable",
      "type": "function"
    }
  ],
  "bytecode": "0x60806040523480156200001157600080fd5b5060405162003dfa38038062003dfa8339818101604052810190620000379190620005c4565b620000576200004b6200038160201b60201c565b6200038960201b60201c565b6200008b7f4ff535fd09e8c0483a19bb7dbe06a18135bafb1235ce81af7ba6eb34a57854ab60001b6200044f60201b60201c565b620000bf7fcda6f0ec5e16be631dc9071463130752f7ed52978b24702f044d5173dd93ab9f60001b6200044f60201b60201c565b620000f37f8610462950eb533a023b742906c33f86061d7116c3cf85d32fb1bd751d887c0c60001b6200044f60201b60201c565b620001277fb8c808c9eb8a4e40c78069c26a6da157bc9fae13a60c8d4ddb5befb8119256c060001b6200044f60201b60201c565b80518251146200016e576040517f08c379a000000000000000000000000000000000000000000000000000000000815260040162000165906200065e565b60405180910390fd5b620001a27fd28507024e297e436467d72961d1d54df0ecfe3db802dc2f1593f70d793486ee60001b6200044f60201b60201c565b620001d67fd69731e987bc7e9d507fb67c9074e6e8f6481c5ccb5f6243b62dc97cdab4549d60001b6200044f60201b60201c565b6200020a7f4249c19ed45ee6e5d538958161e53319c13a1e669e07fd897b9e284b4d9a15d960001b6200044f60201b60201c565b60005b82518160ff16101562000378576200024e7f1fe837de4cbc70c682b1b47f2536c600b0b4753b4133e3ef1f8e91807cb7b33f60001b6200044f60201b60201c565b620002827fa80a92a803f4444a1802e166b1574431d4a44ba6b0373a8ad6a57525bd0022c960001b6200044f60201b60201c565b818160ff1681518110620002bf577f4e487b7100000000000000000000000000000000000000000000000000000000600052603260045260246000fd5b602002602001015160066000858460ff168151811062000308577f4e487b7100000000000000000000000000000000000000000000000000000000600052603260045260246000fd5b602002602001015160ff1660ff16815260200190815260200160002060006101000a81548173ffffffffffffffffffffffffffffffffffffffff021916908373ffffffffffffffffffffffffffffffffffffffff16021790555080806200036f906200078f565b9150506200020d565b505050620008b0565b600033905090565b6000600160009054906101000a900473ffffffffffffffffffffffffffffffffffffffff16905081600160006101000a81548173ffffffffffffffffffffffffffffffffffffffff021916908373ffffffffffffffffffffffffffffffffffffffff1602179055508173ffffffffffffffffffffffffffffffffffffffff168173ffffffffffffffffffffffffffffffffffffffff167f8be0079c531659141344cd1fd0a4f28419497f9722a3daafe3b4186f6b6457e060405160405180910390a35050565b50565b6000620004696200046384620006a9565b62000680565b905080838252602082019050828560208602820111156200048957600080fd5b60005b85811015620004bd5781620004a288826200053c565b8452602084019350602083019250506001810190506200048c565b5050509392505050565b6000620004de620004d884620006d8565b62000680565b90508083825260208201905082856020860282011115620004fe57600080fd5b60005b85811015620005325781620005178882620005ad565b84526020840193506020830192505060018101905062000501565b5050509392505050565b6000815190506200054d816200087c565b92915050565b600082601f8301126200056557600080fd5b81516200057784826020860162000452565b91505092915050565b600082601f8301126200059257600080fd5b8151620005a4848260208601620004c7565b91505092915050565b600081519050620005be8162000896565b92915050565b60008060408385031215620005d857600080fd5b600083015167ffffffffffffffff811115620005f357600080fd5b620006018582860162000580565b925050602083015167ffffffffffffffff8111156200061f57600080fd5b6200062d8582860162000553565b9150509250929050565b60006200064660378362000707565b915062000653826200082d565b604082019050919050565b60006020820190508181036000830152620006798162000637565b9050919050565b60006200068c6200069f565b90506200069a828262000759565b919050565b6000604051905090565b600067ffffffffffffffff821115620006c757620006c6620007ed565b5b602082029050602081019050919050565b600067ffffffffffffffff821115620006f657620006f5620007ed565b5b602082029050602081019050919050565b600082825260208201905092915050565b600062000725826200072c565b9050919050565b600073ffffffffffffffffffffffffffffffffffffffff82169050919050565b600060ff82169050919050565b62000764826200081c565b810181811067ffffffffffffffff82111715620007865762000785620007ed565b5b80604052505050565b60006200079c826200074c565b915060ff821415620007b357620007b2620007be565b5b600182019050919050565b7f4e487b7100000000000000000000000000000000000000000000000000000000600052601160045260246000fd5b7f4e487b7100000000000000000000000000000000000000000000000000000000600052604160045260246000fd5b6000601f19601f8301169050919050565b7f496e74657265703a20706172616d6574657273206c6973747320646f6573206e60008201527f6f742068617665207468652073616d65206c656e677468000000000000000000602082015250565b620008878162000718565b81146200089357600080fd5b50565b620008a1816200074c565b8114620008ad57600080fd5b50565b61353a80620008c06000396000f3fe608060405234801561001057600080fd5b50600436106101165760003560e01c806361bcf78f116100a25780639b24b3b0116100715780639b24b3b0146102f05780639b7b2eb014610320578063ac28eacd1461033c578063c156f4c31461036c578063f2fde38b1461038857610116565b806361bcf78f14610268578063715018a61461029857806375e618c9146102a25780638da5cb5b146102d257610116565b80632d69be98116100e95780632d69be98146101b457806343989f85146101e4578063444eedda146102005780635db6815a1461021c57806361b785e51461023857610116565b8063023c23db1461011b57806304f820d31461014b578063114433f1146101675780631783efc314610198575b600080fd5b610135600480360381019061013091906123d0565b6103a4565b6040516101429190612d4c565b60405180910390f35b610165600480360381019061016091906123f9565b6103c4565b005b610181600480360381019061017c91906123d0565b6109c8565b60405161018f929190612d90565b60405180910390f35b6101b260048036038101906101ad919061248c565b6109f9565b005b6101ce60048036038101906101c991906125b2565b610be3565b6040516101db9190612b16565b60405180910390f35b6101fe60048036038101906101f991906124c8565b610c16565b005b61021a600480360381019061021591906123a7565b610e08565b005b610236600480360381019061023191906123a7565b610e0b565b005b610252600480360381019061024d91906123d0565b610e0e565b60405161025f9190612d4c565b60405180910390f35b610282600480360381019061027d91906123d0565b610eb2565b60405161028f9190612db9565b60405180910390f35b6102a0610f63565b005b6102bc60048036038101906102b791906123d0565b610feb565b6040516102c99190612db9565b60405180910390f35b6102da611018565b6040516102e79190612ab4565b60405180910390f35b61030a600480360381019061030591906123d0565b611042565b6040516103179190612d4c565b60405180910390f35b61033a60048036038101906103359190612309565b611062565b005b610356600480360381019061035191906123d0565b61162f565b6040516103639190612ab4565b60405180910390f35b61038660048036038101906103819190612563565b611662565b005b6103a2600480360381019061039d91906122e0565b61179f565b005b600060026000838152602001908152602001600020600201549050919050565b6103f07fe2ce3dce89a72f50fc156e08770b9621c68e3e5844b30a23a3eaab1f34bc74f860001b610e08565b61041c7f5d431a1bbc5b963e5523b8764da77070de2b5b1011c28799d2dc17b19df4cb3160001b610e08565b6104487fc7543fcfe174804875dccae9b9260fa59a43ce1beed6951a644218762a6be7aa60001b610e08565b600061045387611042565b90506104817f1d3a629d9a39810ffdbaf01abee6248ddc89fc2af3d84cde5e1767ab79f538e060001b610e08565b6104ad7f09783e4ee34e2c8560371c7025774d19e7d685fca568047f342787a1b0f52a7360001b610e08565b60006104b888610feb565b90506104e67fbbb7ac59476c1b26a531d1c7ab98abbbd64c3ad077c3c5499c9227da0be331d560001b610e08565b6105127fd0d051a85f853a40ade0574fc6709f1285f3d96e5c0552fed44896c74b6eaaf360001b610e08565b6000821415610612576105477fcd59447ee545834463af40fc206ff4ec35826f313068954ab71395c6414b694160001b610e08565b6105737f0bc5ee3f1800873f9395852c6195534560deed438441de968a5a60a0bb7c494560001b610e08565b61059f7f5a52302ce10784ff25fe17c2acefc602b6ce7df88e7faefb5176bf1dbf33364a60001b610e08565b6105a888610e0e565b91506105d67f107bd3b29ffede66894ffc64e1db0ee5a78ae22570efc05a83c3e12dbb0b731960001b610e08565b6106027fb4bbc5837b9c59d3bc1a01ef1f4d954aee6050c9b0805cdf1b70b56f4b7dcb4060001b610e08565b61060b88610eb2565b905061063f565b61063e7f78bbd97235934015b8f283861730ad72e6b7dbb309e7f46fe070959f0833df0c60001b610e08565b5b61066b7f998418a7c878084a060720b759fd9e3a9659c82c0764b884b9014575ea4b0acf60001b610e08565b6106977ff5d393091fbf064adde64e2b3130801c3d04b4eb33efaec8cad8258b0969e9d260001b610e08565b6106c37f71f163a1ffdb9a61ad706392d4505e292051e675d6735162f94209afd8997ff060001b610e08565b60008160ff16141561070a576040517f08c379a000000000000000000000000000000000000000000000000000000000815260040161070190612b95565b60405180910390fd5b6107367f556a2e9d2455f7db33c4cfa178eb01838f0664c09f48f3ba0b9cfa8235d5cd1e60001b610e08565b6107627fd7aec06727138670c4dc002d8e725983846fa753e3a4bb6ec101ac6344b803bc60001b610e08565b61078e7f666ea41757ead25674f7ec4ea8d26ef7e45da31365724957781a299ec7b525e860001b610e08565b6000600660008360ff1660ff16815260200190815260200160002060009054906101000a900473ffffffffffffffffffffffffffffffffffffffff1690506107f87f0efa060e92aa589ddc84b6cb6631a3af8d9c8e919b2b491be2a88fcae7205ba160001b610e08565b6108247f26a084644a5b85c80fda86ed9c2d345f3b35de8e2b819527c7fe932b82bf87f060001b610e08565b6108507fb1c088ca195df9bc5f6c81d1e1c4f5f1d0b47961f4e861c572d02c38f6da490560001b610e08565b61085f88888589898987611897565b61089e576040517f08c379a000000000000000000000000000000000000000000000000000000000815260040161089590612c55565b60405180910390fd5b6108ca7f1447ef1526d7f094d5240eead38773d843427a5cc3c4c004d10b2b5c848c5fd260001b610e08565b6108f67f726bcf1932eaef7ccb469c4889a62dd70b3aff57fd62e0353e5a3237baa33df160001b610e08565b6109227f1d56beecffe7f57f1f94a40886d3b3d59174b750dc0cb5e3dfeed5819b88c30d60001b610e08565b61092b86611c1e565b6109577f95f9b478f79be4e8347c02b9ce39b4ebbaae3f5361d83ac0f0ebdcd04ffe615c60001b610e08565b6109837fba26d7c21a342197109be78a55c4e793dd560d3b370a8721a15da1f64cd2121860001b610e08565b887f6ab1c9e4ef72052f6a58fbc8e7346e50c98e29f670385ed3ca5b6135fe25690889896040516109b5929190612b31565b60405180910390a2505050505050505050565b60046020528060005260406000206000915090508060000154908060010160009054906101000a900460ff16905082565b610a257f804988a882a2d81bb48402dfc26dcd94243bfd0af943f80d723c024a62e98bfd60001b610e0b565b610a517f64b69ea49b4803fdb67ecca175b757b2e25715df45e23c2e793eb63b04b505f160001b610e0b565b610a7d7fd3b5bee959ffcd7d5200384d7e6559c4c856ab29f4b630843352ba62434cb7b160001b610e0b565b610aa97ff86f764e619a09172f9944b40f42777794d7eeba9477fa5bd909caeaa45b3d5b60001b610e0b565b610ab1611c4c565b73ffffffffffffffffffffffffffffffffffffffff166005600084815260200190815260200160002060009054906101000a900473ffffffffffffffffffffffffffffffffffffffff1673ffffffffffffffffffffffffffffffffffffffff1614610b51576040517f08c379a0000000000000000000000000000000000000000000000000000000008152600401610b4890612bd5565b60405180910390fd5b610b7d7fab437540bf5a05dd3951ee03a137240efe00f3b3f704f6eb880ae579e740866f60001b610e0b565b610ba97fed41ef04fa1f2395424c5425c6c860cadd0b33da87c6875f47b095cbdd5f559f60001b610e0b565b610bd57f441485673b1436154aae978be2a9c90855a77191e63ede5ee60ac7feec4b0c0060001b610e0b565b610bdf8282611c54565b5050565b60066020528060005260406000206000915054906101000a900473ffffffffffffffffffffffffffffffffffffffff1681565b610c427f5d501c09f0faeab713b6007978f54edc88e82c2c2bb73b3ad09ffa17fb19748260001b610e0b565b610c6e7fe07ca52779b110681d906b9d40a8d3f95c8fabcb99086c37432893b85d78fb1360001b610e0b565b610c9a7f6c0ff93cec806db6d1514ed4da7e255a11499b92909af4aaae0facfba1626b7b60001b610e0b565b610cc67f621171169a8811a356c856bbc9fd6f2ea232bec9acccdf4f87895c7167f1c8d260001b610e0b565b610cce611c4c565b73ffffffffffffffffffffffffffffffffffffffff166005600088815260200190815260200160002060009054906101000a900473ffffffffffffffffffffffffffffffffffffffff1673ffffffffffffffffffffffffffffffffffffffff1614610d6e576040517f08c379a0000000000000000000000000000000000000000000000000000000008152600401610d6590612bd5565b60405180910390fd5b610d9a7f88644e5f2193d046c9ae3227fcd3f70e93736eb661fe8ec99e49c5cbdc2a12ac60001b610e0b565b610dc67f8ca22747ea96bffc882bdf6c0ccbafa3674addd514a74f75a95560576785c8c460001b610e0b565b610df27fab4dca915309929c55923142340988cc235d895356575d72196fccf80c59fd9b60001b610e0b565b610e00868686868686611d84565b505050505050565b50565b50565b6000610e3c7fb2517c54583f8fa1029e3ac1b97438573dc9f16814083fca24e25434bdbe62ed60001b610e0b565b610e687f1e0ebd6b57c6b05ebf3bd4889ae4284e3d6bec3fe90b8f514e25cf2b2d5ae9bb60001b610e0b565b610e947f4ad75ae5447da7f034d7372565532388a8fca32548bba49cb004db54e5ee5fdf60001b610e0b565b60046000838152602001908152602001600020600001549050919050565b6000610ee07f8d4a73af0702c96c0a80ae3f4d3528c625b32c116d889a875b97da1741f2324060001b610e0b565b610f0c7f5a2829de68beacdbe8e5e02da9746c181abbcc361dba188bb48c93f7c715a6b860001b610e0b565b610f387f926157c9fc03b3dbaabafb57237155b476c89d78115e09f162301b7a85e460b160001b610e0b565b6004600083815260200190815260200160002060010160009054906101000a900460ff169050919050565b610f6b611c4c565b73ffffffffffffffffffffffffffffffffffffffff16610f89611018565b73ffffffffffffffffffffffffffffffffffffffff1614610fdf576040517f08c379a0000000000000000000000000000000000000000000000000000000008152600401610fd690612c35565b60405180910390fd5b610fe96000611ed6565b565b60006002600083815260200190815260200160002060000160009054906101000a900460ff169050919050565b6000600160009054906101000a900473ffffffffffffffffffffffffffffffffffffffff16905090565b600060026000838152602001908152602001600020600101549050919050565b61106a611c4c565b73ffffffffffffffffffffffffffffffffffffffff16611088611018565b73ffffffffffffffffffffffffffffffffffffffff16146110de576040517f08c379a00000000000000000000000000000000000000000000000000000000081526004016110d590612c35565b60405180910390fd5b61110a7f9fa0c71150723afba95155aa75d51b0ac91e1daff5b745794b3cb075b0763a0560001b610e0b565b6111367f1791426c936cdd001dee2641794edf5cbf5742bdea316204278d3aba275ee59360001b610e0b565b6111627fa85e577591388f35edc47d84d655ab1fd8104ff20882eb050bb7ffb77e57e30860001b610e0b565b61118e7faa3fdb526224589c61edb121ac06196dae0005115c26e18c6b04d60fad45194e60001b610e0b565b8181905084849050146111d6576040517f08c379a00000000000000000000000000000000000000000000000000000000081526004016111cd90612c75565b60405180910390fd5b6112027f2c5156817ad90fa8f0eb5c6c43cb05c3bfec09e02e5b9719b2891d01ef6effc560001b610e0b565b61122e7fe39ddb9b79f554996fe27b054cf5042aa15a73fd7f6edf698972be2d7f37624d60001b610e0b565b61125a7f08885e9b5964f1398f54e0024fb57dcb980f13d8607742bf476dc5e0b80cf72160001b610e0b565b60005b848490508160ff161015611628576112977f5692a7674549aeaad9011fa47fc019ba353bfc51ef153adab3aeac88ed27327860001b610e0b565b6112c37f20e659c94302ff9e314cfd3b27c6ccb6049b031d84a47bcb0d25bedb7773aa3360001b610e0b565b6112ef7f1ed367f965e9c1453eaa64d97503487b9690aaede4184ef90ae30353a9e40d1560001b610e0b565b600061133c86868460ff16818110611330577f4e487b7100000000000000000000000000000000000000000000000000000000600052603260045260246000fd5b90506020020135610feb565b60ff161461137f576040517f08c379a000000000000000000000000000000000000000000000000000000000815260040161137690612bf5565b60405180910390fd5b6113ab7fa96b36d2bab4c3f1abc1e9b5b02ea9eab1c73cddc7ab8602f501a8523f6cd80160001b610e0b565b6113d77f22cb9d63e4957cccfe6d2f7230dd33f482bffd81332c0895bfa713b7bb61b1c660001b610e0b565b6114037f1d96df612e095b71f741026bd8ea96db77ac4d701081f319a49977d507b8bcb260001b610e0b565b82828260ff1681811061143f577f4e487b7100000000000000000000000000000000000000000000000000000000600052603260045260246000fd5b9050604002016004600087878560ff16818110611485577f4e487b7100000000000000000000000000000000000000000000000000000000600052603260045260246000fd5b90506020020135815260200190815260200160002081816114a6919061343d565b9050506114d57f5515ed9758c46b415281e1e7379881ded2e40ec037786d9ef09410d154cccf9660001b610e0b565b6115017fc100cf3c4331dab2a275e3097c93173a6841303b0bf71b0eadefbef4f86ee1ac60001b610e0b565b84848260ff1681811061153d577f4e487b7100000000000000000000000000000000000000000000000000000000600052603260045260246000fd5b905060200201357f69b70c6ced65d2c03e25d918bbd548c0f92104ec6330e066febcb8a362b2847084848460ff168181106115a1577f4e487b7100000000000000000000000000000000000000000000000000000000600052603260045260246000fd5b9050604002016000013585858560ff168181106115e7577f4e487b7100000000000000000000000000000000000000000000000000000000600052603260045260246000fd5b90506040020160200160208101906115ff91906125b2565b60405161160d929190612d90565b60405180910390a2808061162090612fce565b91505061125d565b5050505050565b60056020528060005260406000206000915054906101000a900473ffffffffffffffffffffffffffffffffffffffff1681565b61168e7ff129c1dceb06517af9de43eb0790b8c5cbafd1cea3c61f11000efc67fecd2f1460001b610e0b565b6116ba7fa39ef752c88474ccc5151c52a0b6e849fb1d165bc447c6cebff2fc321b645df360001b610e0b565b6116e67f909156309dd05db316187c77744853c88295961e1ea3457f6d1d308d6591c1a360001b610e0b565b6116f08383611f9c565b61171c7f93b707ae0b84098638c1dcb6fc7fd79837d1fd234adc3d73057e9cfe05e31ccb60001b610e0b565b6117487fb4f5a1956692f82bb8ba4f09fd4c6d189a4974a65f57c8660efc5027babcf9b660001b610e0b565b806005600085815260200190815260200160002060006101000a81548173ffffffffffffffffffffffffffffffffffffffff021916908373ffffffffffffffffffffffffffffffffffffffff160217905550505050565b6117a7611c4c565b73ffffffffffffffffffffffffffffffffffffffff166117c5611018565b73ffffffffffffffffffffffffffffffffffffffff161461181b576040517f08c379a000000000000000000000000000000000000000000000000000000000815260040161181290612c35565b60405180910390fd5b600073ffffffffffffffffffffffffffffffffffffffff168173ffffffffffffffffffffffffffffffffffffffff16141561188b576040517f08c379a000000000000000000000000000000000000000000000000000000000815260040161188290612b75565b60405180910390fd5b61189481611ed6565b50565b600080600086815260200190815260200160002060009054906101000a900460ff16156118f9576040517f08c379a00000000000000000000000000000000000000000000000000000000081526004016118f090612b55565b60405180910390fd5b600061190589896120f7565b9050600060405180608001604052808981526020018881526020018381526020018781525090508373ffffffffffffffffffffffffffffffffffffffff16635fe8c13b60405180604001604052808860006008811061198d577f4e487b7100000000000000000000000000000000000000000000000000000000600052603260045260246000fd5b60200201358152602001886001600881106119d1577f4e487b7100000000000000000000000000000000000000000000000000000000600052603260045260246000fd5b6020020135815250604051806040016040528060405180604001604052808b600260088110611a29577f4e487b7100000000000000000000000000000000000000000000000000000000600052603260045260246000fd5b602002013581526020018b600360088110611a6d577f4e487b7100000000000000000000000000000000000000000000000000000000600052603260045260246000fd5b6020020135815250815260200160405180604001604052808b600460088110611abf577f4e487b7100000000000000000000000000000000000000000000000000000000600052603260045260246000fd5b602002013581526020018b600560088110611b03577f4e487b7100000000000000000000000000000000000000000000000000000000600052603260045260246000fd5b602002013581525081525060405180604001604052808a600660088110611b53577f4e487b7100000000000000000000000000000000000000000000000000000000600052603260045260246000fd5b602002013581526020018a600760088110611b97577f4e487b7100000000000000000000000000000000000000000000000000000000600052603260045260246000fd5b6020020135815250856040518563ffffffff1660e01b8152600401611bbf9493929190612acf565b60206040518083038186803b158015611bd757600080fd5b505afa158015611beb573d6000803e3d6000fd5b505050506040513d601f19601f82011682018060405250810190611c0f919061237e565b92505050979650505050505050565b600160008083815260200190815260200160002060006101000a81548160ff02191690831515021790555050565b600033905090565b6000611c5f83610feb565b60ff161415611ca3576040517f08c379a0000000000000000000000000000000000000000000000000000000008152600401611c9a90612c15565b60405180910390fd5b6002600083815260200190815260200160002073__$4c0484323457fe1a856f46a4759b553fe4$__63168703fa9091836040518363ffffffff1660e01b8152600401611cf0929190612c95565b60006040518083038186803b158015611d0857600080fd5b505af4158015611d1c573d6000803e3d6000fd5b505050506000611d2b83611042565b9050826003600083815260200190815260200160002081905550827f03fd27265b7dd1f55558bedc22a58fa3b10afb1be776e614bd5a7ba7b94994068383604051611d77929190612d67565b60405180910390a2505050565b6000611d8f87610feb565b60ff161415611dd3576040517f08c379a0000000000000000000000000000000000000000000000000000000008152600401611dca90612c15565b60405180910390fd5b6002600087815260200190815260200160002073__$4c0484323457fe1a856f46a4759b553fe4$__630629596f909187878787876040518763ffffffff1660e01b8152600401611e2896959493929190612cbe565b60006040518083038186803b158015611e4057600080fd5b505af4158015611e54573d6000803e3d6000fd5b505050506000611e6387611042565b9050866003600083815260200190815260200160002081905550867fe270325ded177064d7bda473e6519ef40a291058c41286f71a6e4872f1e9ab5c87600260008b815260200190815260200160002060010154604051611ec5929190612d67565b60405180910390a250505050505050565b6000600160009054906101000a900473ffffffffffffffffffffffffffffffffffffffff16905081600160006101000a81548173ffffffffffffffffffffffffffffffffffffffff021916908373ffffffffffffffffffffffffffffffffffffffff1602179055508173ffffffffffffffffffffffffffffffffffffffff168173ffffffffffffffffffffffffffffffffffffffff167f8be0079c531659141344cd1fd0a4f28419497f9722a3daafe3b4186f6b6457e060405160405180910390a35050565b6000611fa783610feb565b60ff1614611fea576040517f08c379a0000000000000000000000000000000000000000000000000000000008152600401611fe190612bb5565b60405180910390fd5b6002600083815260200190815260200160002073__$4c0484323457fe1a856f46a4759b553fe4$__63b4bdd1179091837f30644e72e131a029b85045b68181585d2833e84879b9709143e1f593f000000160405160200161204a90612a9f565b6040516020818303038152906040528051906020012060001c61206d9190612ff8565b6040518463ffffffff1660e01b815260040161208b93929190612d15565b60006040518083038186803b1580156120a357600080fd5b505af41580156120b7573d6000803e3d6000fd5b50505050817f6e41c6ac154b547a2112d36281cc5de1cdfa7d7f260d4edf74f3ef59f9df0c59826040516120eb9190612db9565b60405180910390a25050565b60006008838360405160200161210e929190612a86565b6040516020818303038152906040528051906020012060001c901c905092915050565b60008135905061214081613491565b92915050565b60008083601f84011261215857600080fd5b8235905067ffffffffffffffff81111561217157600080fd5b60208301915083604082028301111561218957600080fd5b9250929050565b6000819050826020600802820111156121a857600080fd5b92915050565b60008083601f8401126121c057600080fd5b8235905067ffffffffffffffff8111156121d957600080fd5b6020830191508360208202830111156121f157600080fd5b9250929050565b60008083601f84011261220a57600080fd5b8235905067ffffffffffffffff81111561222357600080fd5b60208301915083602082028301111561223b57600080fd5b9250929050565b600081519050612251816134a8565b92915050565b600081359050612266816134bf565b92915050565b60008083601f84011261227e57600080fd5b8235905067ffffffffffffffff81111561229757600080fd5b6020830191508360018202830111156122af57600080fd5b9250929050565b6000813590506122c5816134d6565b92915050565b6000813590506122da816134ed565b92915050565b6000602082840312156122f257600080fd5b600061230084828501612131565b91505092915050565b6000806000806040858703121561231f57600080fd5b600085013567ffffffffffffffff81111561233957600080fd5b612345878288016121ae565b9450945050602085013567ffffffffffffffff81111561236457600080fd5b61237087828801612146565b925092505092959194509250565b60006020828403121561239057600080fd5b600061239e84828501612242565b91505092915050565b6000602082840312156123b957600080fd5b60006123c784828501612257565b91505092915050565b6000602082840312156123e257600080fd5b60006123f0848285016122b6565b91505092915050565b600080600080600080610180878903121561241357600080fd5b600061242189828a016122b6565b965050602087013567ffffffffffffffff81111561243e57600080fd5b61244a89828a0161226c565b9550955050604061245d89828a016122b6565b935050606061246e89828a016122b6565b925050608061247f89828a01612190565b9150509295509295509295565b6000806040838503121561249f57600080fd5b60006124ad858286016122b6565b92505060206124be858286016122b6565b9150509250929050565b600080600080600080608087890312156124e157600080fd5b60006124ef89828a016122b6565b965050602061250089828a016122b6565b955050604087013567ffffffffffffffff81111561251d57600080fd5b61252989828a016121ae565b9450945050606087013567ffffffffffffffff81111561254857600080fd5b61255489828a016121f8565b92509250509295509295509295565b60008060006060848603121561257857600080fd5b6000612586868287016122b6565b9350506020612597868287016122cb565b92505060406125a886828701612131565b9150509250925092565b6000602082840312156125c457600080fd5b60006125d2848285016122cb565b91505092915050565b60006125e78383612689565b60408301905092915050565b60006125ff8383612a2c565b60208301905092915050565b60006126178383612a77565b60208301905092915050565b61262c81612ed2565b82525050565b61263b81612dfc565b6126458184612e51565b925061265082612dd4565b8060005b8381101561268157815161266887826125db565b965061267383612e1d565b925050600181019050612654565b505050505050565b61269281612e07565b61269c8184612e5c565b92506126a782612dde565b8060005b838110156126d85781516126bf87826125f3565b96506126ca83612e2a565b9250506001810190506126ab565b505050505050565b6126e981612e07565b6126f38184612e67565b92506126fe82612dde565b8060005b8381101561272f57815161271687826125f3565b965061272183612e2a565b925050600181019050612702565b505050505050565b61274081612e12565b61274a8184612e72565b925061275582612de8565b8060005b8381101561278657815161276d87826125f3565b965061277883612e37565b925050600181019050612759565b505050505050565b600061279a8385612e7d565b93507f07ffffffffffffffffffffffffffffffffffffffffffffffffffffffffffffff8311156127c957600080fd5b6020830292506127da838584612f79565b82840190509392505050565b60006127f28385612e8e565b93506127fd82612df2565b8060005b85811015612836576128138284612ebb565b61281d888261260b565b975061282883612e44565b925050600181019050612801565b5085925050509392505050565b61284c81612f31565b82525050565b600061285e8385612e9f565b935061286b838584612f79565b612874836130c7565b840190509392505050565b600061288b8385612eb0565b9350612898838584612f79565b82840190509392505050565b60006128b1603683612e9f565b91506128bc826130e5565b604082019050919050565b60006128d4602683612e9f565b91506128df82613134565b604082019050919050565b60006128f7602183612e9f565b915061290282613183565b604082019050919050565b600061291a602583612e9f565b9150612925826131d2565b604082019050919050565b600061293d602c83612e9f565b915061294882613221565b604082019050919050565b6000612960600983612eb0565b915061296b82613270565b600982019050919050565b6000612983602e83612e9f565b915061298e82613299565b604082019050919050565b60006129a6602583612e9f565b91506129b1826132e8565b604082019050919050565b60006129c9602083612e9f565b91506129d482613337565b602082019050919050565b60006129ec601f83612e9f565b91506129f782613360565b602082019050919050565b6000612a0f603d83612e9f565b9150612a1a82613389565b604082019050919050565b8082525050565b612a3581612f1a565b82525050565b612a4481612f1a565b82525050565b612a5381612f1a565b82525050565b612a6281612f24565b82525050565b612a7181612f24565b82525050565b612a8081612f24565b82525050565b6000612a9382848661287f565b91508190509392505050565b6000612aaa82612953565b9150819050919050565b6000602082019050612ac96000830184612623565b92915050565b600061018082019050612ae560008301876126e0565b612af26040830186612632565b612aff60c08301856126e0565b612b0d610100830184612737565b95945050505050565b6000602082019050612b2b6000830184612843565b92915050565b60006020820190508181036000830152612b4c818486612852565b90509392505050565b60006020820190508181036000830152612b6e816128a4565b9050919050565b60006020820190508181036000830152612b8e816128c7565b9050919050565b60006020820190508181036000830152612bae816128ea565b9050919050565b60006020820190508181036000830152612bce8161290d565b9050919050565b60006020820190508181036000830152612bee81612930565b9050919050565b60006020820190508181036000830152612c0e81612976565b9050919050565b60006020820190508181036000830152612c2e81612999565b9050919050565b60006020820190508181036000830152612c4e816129bc565b9050919050565b60006020820190508181036000830152612c6e816129df565b9050919050565b60006020820190508181036000830152612c8e81612a02565b9050919050565b6000604082019050612caa6000830185612a25565b612cb76020830184612a4a565b9392505050565b6000608082019050612cd36000830189612a25565b612ce06020830188612a4a565b8181036040830152612cf381868861278e565b90508181036060830152612d088184866127e6565b9050979650505050505050565b6000606082019050612d2a6000830186612a25565b612d376020830185612a68565b612d446040830184612a4a565b949350505050565b6000602082019050612d616000830184612a3b565b92915050565b6000604082019050612d7c6000830185612a3b565b612d896020830184612a3b565b9392505050565b6000604082019050612da56000830185612a3b565b612db26020830184612a59565b9392505050565b6000602082019050612dce6000830184612a59565b92915050565b6000819050919050565b6000819050919050565b6000819050919050565b6000819050919050565b600060029050919050565b600060029050919050565b600060049050919050565b6000602082019050919050565b6000602082019050919050565b6000602082019050919050565b6000602082019050919050565b600081905092915050565b600081905092915050565b600081905092915050565b600081905092915050565b600082825260208201905092915050565b600082825260208201905092915050565b600082825260208201905092915050565b600081905092915050565b6000612eca60208401846122cb565b905092915050565b6000612edd82612efa565b9050919050565b60008115159050919050565b6000819050919050565b600073ffffffffffffffffffffffffffffffffffffffff82169050919050565b6000819050919050565b600060ff82169050919050565b6000612f3c82612f43565b9050919050565b6000612f4e82612efa565b9050919050565b6000612f6082612f1a565b9050919050565b6000612f7282612f24565b9050919050565b82818337600083830152505050565b600081016000830180612f9a8161309b565b9050612fa6818461344b565b505050600181016020830180612fbb816130b1565b9050612fc7818461346e565b5050505050565b6000612fd982612f24565b915060ff821415612fed57612fec613029565b5b600182019050919050565b600061300382612f1a565b915061300e83612f1a565b92508261301e5761301d613058565b5b828206905092915050565b7f4e487b7100000000000000000000000000000000000000000000000000000000600052601160045260246000fd5b7f4e487b7100000000000000000000000000000000000000000000000000000000600052601260045260246000fd5b6000819050919050565b6000819050919050565b600081356130a8816134d6565b80915050919050565b600081356130be816134ed565b80915050919050565b6000601f19601f8301169050919050565b60008160001b9050919050565b7f53656d6170686f7265436f72653a20796f752063616e6e6f742075736520746860008201527f652073616d65206e756c6c696669657220747769636500000000000000000000602082015250565b7f4f776e61626c653a206e6577206f776e657220697320746865207a65726f206160008201527f6464726573730000000000000000000000000000000000000000000000000000602082015250565b7f496e74657265703a207468652067726f757020646f6573206e6f74206578697360008201527f7400000000000000000000000000000000000000000000000000000000000000602082015250565b7f53656d6170686f726547726f7570733a2067726f757020616c7265616479206560008201527f7869737473000000000000000000000000000000000000000000000000000000602082015250565b7f496e746572657047726f7570733a2063616c6c6572206973206e6f742074686560008201527f2067726f75702061646d696e0000000000000000000000000000000000000000602082015250565b7f53656d6170686f72650000000000000000000000000000000000000000000000600082015250565b7f496e746572657047726f7570733a2067726f757020696420616c72656164792060008201527f657869737473206f6e636861696e000000000000000000000000000000000000602082015250565b7f53656d6170686f726547726f7570733a2067726f757020646f6573206e6f742060008201527f6578697374000000000000000000000000000000000000000000000000000000602082015250565b7f4f776e61626c653a2063616c6c6572206973206e6f7420746865206f776e6572600082015250565b7f496e74657265703a207468652070726f6f66206973206e6f742076616c696400600082015250565b7f496e746572657047726f7570733a20706172616d6574657273206c697374732060008201527f646f6573206e6f742068617665207468652073616d65206c656e677468000000602082015250565b600060ff6133e5846130d8565b9350801983169250808416831791505092915050565b60007fffffffffffffffffffffffffffffffffffffffffffffffffffffffffffffffff613427846130d8565b9350801983169250808416831791505092915050565b6134478282612f88565b5050565b61345482612f55565b61346761346082613087565b83546133fb565b8255505050565b61347782612f67565b61348a61348382613091565b83546133d8565b8255505050565b61349a81612ed2565b81146134a557600080fd5b50565b6134b181612ee4565b81146134bc57600080fd5b50565b6134c881612ef0565b81146134d357600080fd5b50565b6134df81612f1a565b81146134ea57600080fd5b50565b6134f681612f24565b811461350157600080fd5b5056fea264697066735822122068825fc9525c665a14c3322993c51f80d0773478ea647b66037aa591822c04f064736f6c63430008040033",
  "linkReferences": {
    "@zk-kit/incremental-merkle-tree.sol/contracts/IncrementalBinaryTree.sol": {
      "IncrementalBinaryTree": [
        {
          "length": 20,
          "start": 9592
        },
        {
          "length": 20,
          "start": 9896
        },
        {
          "length": 20,
          "start": 10431
        }
      ]
    }
  },
  "deployedLinkReferences": {
    "@zk-kit/incremental-merkle-tree.sol/contracts/IncrementalBinaryTree.sol": {
      "IncrementalBinaryTree": [
        {
          "length": 20,
          "start": 7352
        },
        {
          "length": 20,
          "start": 7656
        },
        {
          "length": 20,
          "start": 8191
        }
      ]
    }
  }
}