{
  "_format": "hh-sol-artifact-1",
  "contractName": "Interep",
  "sourceName": "contracts/Interep.sol",
  "abi": [
    {
      "inputs": [
        {
          "internalType": "uint8[]",
          "name": "depths",
          "type": "uint8[]"
        },
        {
          "internalType": "address[]",
          "name": "verifierAddresses",
          "type": "address[]"
        }
      ],
      "stateMutability": "nonpayable",
      "type": "constructor"
    },
    {
      "anonymous": false,
      "inputs": [
        {
          "indexed": true,
          "internalType": "uint256",
          "name": "groupId",
          "type": "uint256"
        },
        {
          "indexed": true,
          "internalType": "address",
          "name": "oldAdmin",
          "type": "address"
        },
        {
          "indexed": true,
          "internalType": "address",
          "name": "newAdmin",
          "type": "address"
        }
      ],
      "name": "GroupAdminUpdated",
      "type": "event"
    },
    {
      "anonymous": false,
      "inputs": [
        {
          "indexed": true,
          "internalType": "uint256",
          "name": "groupId",
          "type": "uint256"
        },
        {
          "indexed": false,
          "internalType": "uint8",
          "name": "depth",
          "type": "uint8"
        },
        {
          "indexed": false,
          "internalType": "uint256",
          "name": "zeroValue",
          "type": "uint256"
        }
      ],
      "name": "GroupCreated",
      "type": "event"
    },
    {
      "anonymous": false,
      "inputs": [
        {
          "indexed": true,
          "internalType": "uint256",
          "name": "groupId",
          "type": "uint256"
        },
        {
          "indexed": false,
          "internalType": "uint256",
          "name": "identityCommitment",
          "type": "uint256"
        },
        {
          "indexed": false,
          "internalType": "uint256",
          "name": "root",
          "type": "uint256"
        }
      ],
      "name": "MemberAdded",
      "type": "event"
    },
    {
      "anonymous": false,
      "inputs": [
        {
          "indexed": true,
          "internalType": "uint256",
          "name": "groupId",
          "type": "uint256"
        },
        {
          "indexed": false,
          "internalType": "uint256",
          "name": "identityCommitment",
          "type": "uint256"
        },
        {
          "indexed": false,
          "internalType": "uint256",
          "name": "root",
          "type": "uint256"
        }
      ],
      "name": "MemberRemoved",
      "type": "event"
    },
    {
      "anonymous": false,
      "inputs": [
        {
          "indexed": false,
          "internalType": "uint256",
          "name": "nullifierHash",
          "type": "uint256"
        }
      ],
      "name": "NullifierHashAdded",
      "type": "event"
    },
    {
      "anonymous": false,
      "inputs": [
        {
          "indexed": true,
          "internalType": "uint256",
          "name": "groupId",
          "type": "uint256"
        },
        {
          "indexed": false,
          "internalType": "uint256",
          "name": "root",
          "type": "uint256"
        },
        {
          "indexed": true,
          "internalType": "uint8",
          "name": "depth",
          "type": "uint8"
        }
      ],
      "name": "OffchainGroupUpdated",
      "type": "event"
    },
    {
      "anonymous": false,
      "inputs": [
        {
          "indexed": true,
          "internalType": "address",
          "name": "previousOwner",
          "type": "address"
        },
        {
          "indexed": true,
          "internalType": "address",
          "name": "newOwner",
          "type": "address"
        }
      ],
      "name": "OwnershipTransferred",
      "type": "event"
    },
    {
      "anonymous": false,
      "inputs": [
        {
          "indexed": true,
          "internalType": "uint256",
          "name": "groupId",
          "type": "uint256"
        },
        {
          "indexed": false,
          "internalType": "string",
          "name": "signal",
          "type": "string"
        }
      ],
      "name": "ProofVerified",
      "type": "event"
    },
    {
      "inputs": [
        {
          "internalType": "uint256",
          "name": "groupId",
          "type": "uint256"
        },
        {
          "internalType": "uint256",
          "name": "identityCommitment",
          "type": "uint256"
        }
      ],
      "name": "addMember",
      "outputs": [],
      "stateMutability": "nonpayable",
      "type": "function"
    },
    {
      "inputs": [
        {
          "internalType": "bytes32",
          "name": "c__0x53230576",
          "type": "bytes32"
        }
      ],
      "name": "c_0x53230576",
      "outputs": [],
      "stateMutability": "pure",
      "type": "function"
    },
    {
      "inputs": [
        {
          "internalType": "uint256",
          "name": "groupId",
          "type": "uint256"
        },
        {
          "internalType": "uint8",
          "name": "depth",
          "type": "uint8"
        },
        {
          "internalType": "address",
          "name": "admin",
          "type": "address"
        }
      ],
      "name": "createGroup",
      "outputs": [],
      "stateMutability": "nonpayable",
      "type": "function"
    },
    {
      "inputs": [
        {
          "internalType": "uint256",
          "name": "groupId",
          "type": "uint256"
        }
      ],
      "name": "getDepth",
      "outputs": [
        {
          "internalType": "uint8",
          "name": "",
          "type": "uint8"
        }
      ],
      "stateMutability": "view",
      "type": "function"
    },
    {
      "inputs": [
        {
          "internalType": "uint256",
          "name": "groupId",
          "type": "uint256"
        }
      ],
      "name": "getOffchainDepth",
      "outputs": [
        {
          "internalType": "uint8",
          "name": "",
          "type": "uint8"
        }
      ],
      "stateMutability": "view",
      "type": "function"
    },
    {
      "inputs": [
        {
          "internalType": "uint256",
          "name": "groupId",
          "type": "uint256"
        }
      ],
      "name": "getOffchainRoot",
      "outputs": [
        {
          "internalType": "uint256",
          "name": "",
          "type": "uint256"
        }
      ],
      "stateMutability": "view",
      "type": "function"
    },
    {
      "inputs": [
        {
          "internalType": "uint256",
          "name": "groupId",
          "type": "uint256"
        }
      ],
      "name": "getRoot",
      "outputs": [
        {
          "internalType": "uint256",
          "name": "",
          "type": "uint256"
        }
      ],
      "stateMutability": "view",
      "type": "function"
    },
    {
      "inputs": [
        {
          "internalType": "uint256",
          "name": "groupId",
          "type": "uint256"
        }
      ],
      "name": "getSize",
      "outputs": [
        {
          "internalType": "uint256",
          "name": "",
          "type": "uint256"
        }
      ],
      "stateMutability": "view",
      "type": "function"
    },
    {
      "inputs": [
        {
          "internalType": "uint256",
          "name": "",
          "type": "uint256"
        }
      ],
      "name": "groupAdmins",
      "outputs": [
        {
          "internalType": "address",
          "name": "",
          "type": "address"
        }
      ],
      "stateMutability": "view",
      "type": "function"
    },
    {
      "inputs": [
        {
          "internalType": "uint256",
          "name": "",
          "type": "uint256"
        }
      ],
      "name": "offchainGroups",
      "outputs": [
        {
          "internalType": "uint256",
          "name": "root",
          "type": "uint256"
        },
        {
          "internalType": "uint8",
          "name": "depth",
          "type": "uint8"
        }
      ],
      "stateMutability": "view",
      "type": "function"
    },
    {
      "inputs": [],
      "name": "owner",
      "outputs": [
        {
          "internalType": "address",
          "name": "",
          "type": "address"
        }
      ],
      "stateMutability": "view",
      "type": "function"
    },
    {
      "inputs": [
        {
          "internalType": "uint256",
          "name": "groupId",
          "type": "uint256"
        },
        {
          "internalType": "uint256",
          "name": "identityCommitment",
          "type": "uint256"
        },
        {
          "internalType": "uint256[]",
          "name": "proofSiblings",
          "type": "uint256[]"
        },
        {
          "internalType": "uint8[]",
          "name": "proofPathIndices",
          "type": "uint8[]"
        }
      ],
      "name": "removeMember",
      "outputs": [],
      "stateMutability": "nonpayable",
      "type": "function"
    },
    {
      "inputs": [],
      "name": "renounceOwnership",
      "outputs": [],
      "stateMutability": "nonpayable",
      "type": "function"
    },
    {
      "inputs": [
        {
          "internalType": "address",
          "name": "newOwner",
          "type": "address"
        }
      ],
      "name": "transferOwnership",
      "outputs": [],
      "stateMutability": "nonpayable",
      "type": "function"
    },
    {
      "inputs": [
        {
          "internalType": "uint256",
          "name": "groupId",
          "type": "uint256"
        },
        {
          "internalType": "address",
          "name": "newAdmin",
          "type": "address"
        }
      ],
      "name": "updateGroupAdmin",
      "outputs": [],
      "stateMutability": "nonpayable",
      "type": "function"
    },
    {
      "inputs": [
        {
          "internalType": "uint256[]",
          "name": "groupIds",
          "type": "uint256[]"
        },
        {
          "components": [
            {
              "internalType": "uint256",
              "name": "root",
              "type": "uint256"
            },
            {
              "internalType": "uint8",
              "name": "depth",
              "type": "uint8"
            }
          ],
          "internalType": "struct IInterep.OffchainGroup[]",
          "name": "groups",
          "type": "tuple[]"
        }
      ],
      "name": "updateOffchainGroups",
      "outputs": [],
      "stateMutability": "nonpayable",
      "type": "function"
    },
    {
      "inputs": [
        {
          "internalType": "uint8",
          "name": "",
          "type": "uint8"
        }
      ],
      "name": "verifiers",
      "outputs": [
        {
          "internalType": "contract IVerifier",
          "name": "",
          "type": "address"
        }
      ],
      "stateMutability": "view",
      "type": "function"
    },
    {
      "inputs": [
        {
          "internalType": "uint256",
          "name": "groupId",
          "type": "uint256"
        },
        {
          "internalType": "string",
          "name": "signal",
          "type": "string"
        },
        {
          "internalType": "uint256",
          "name": "nullifierHash",
          "type": "uint256"
        },
        {
          "internalType": "uint256",
          "name": "externalNullifier",
          "type": "uint256"
        },
        {
          "internalType": "uint256[8]",
          "name": "proof",
          "type": "uint256[8]"
        }
      ],
      "name": "verifyProof",
      "outputs": [],
      "stateMutability": "nonpayable",
      "type": "function"
    }
  ],
  "bytecode": "0x60806040523480156200001157600080fd5b5060405162004590380380620045908339818101604052810190620000379190620005c2565b620000576200004b6200038160201b60201c565b6200038960201b60201c565b6200008b7fbd59c63e6b75d1db6248cfd2c14acf88ea6baa9af0b77ece44e9ee978455414b60001b6200044d60201b60201c565b620000bf7f3138556c795242d731b1b98f9117ee9b64196952a381813ef45088e985f2a32060001b6200044d60201b60201c565b620000f37f7f4accd0dd6c0b236c4d3ee4afb414f1f250476932a213007db3096a83692bda60001b6200044d60201b60201c565b620001277f06720a3eb6cdae734ae311a92ccfb22231cac79bdbc421e7962756669e08019d60001b6200044d60201b60201c565b80518251146200016e576040517f08c379a000000000000000000000000000000000000000000000000000000000815260040162000165906200065c565b60405180910390fd5b620001a27f69f3880480ba123833be1daa95aa12d7b8d3784f11443a74c18eb1fa392cfbc560001b6200044d60201b60201c565b620001d67fb09f9d4841936343fcef579943a17dda6960d44ec1a4f883d02e7918cff66b5460001b6200044d60201b60201c565b6200020a7f807263f3399e4e060c66b9b24663ee3db4d64670359ac316329d2ccc66da198360001b6200044d60201b60201c565b60005b82518160ff16101562000378576200024e7fd085e9ebf817bafccce3b535c98cbb3cc2faf4db503cd4b3715ae35558d7cece60001b6200044d60201b60201c565b620002827f2ac62665f832318885d06cb6a03a4a50bab11574d45048437b59f98a219df74a60001b6200044d60201b60201c565b818160ff1681518110620002bf577f4e487b7100000000000000000000000000000000000000000000000000000000600052603260045260246000fd5b602002602001015160046000858460ff168151811062000308577f4e487b7100000000000000000000000000000000000000000000000000000000600052603260045260246000fd5b602002602001015160ff1660ff16815260200190815260200160002060006101000a81548173ffffffffffffffffffffffffffffffffffffffff021916908373ffffffffffffffffffffffffffffffffffffffff16021790555080806200036f906200078d565b9150506200020d565b505050620008ae565b600033905090565b60008060009054906101000a900473ffffffffffffffffffffffffffffffffffffffff169050816000806101000a81548173ffffffffffffffffffffffffffffffffffffffff021916908373ffffffffffffffffffffffffffffffffffffffff1602179055508173ffffffffffffffffffffffffffffffffffffffff168173ffffffffffffffffffffffffffffffffffffffff167f8be0079c531659141344cd1fd0a4f28419497f9722a3daafe3b4186f6b6457e060405160405180910390a35050565b50565b6000620004676200046184620006a7565b6200067e565b905080838252602082019050828560208602820111156200048757600080fd5b60005b85811015620004bb5781620004a088826200053a565b8452602084019350602083019250506001810190506200048a565b5050509392505050565b6000620004dc620004d684620006d6565b6200067e565b90508083825260208201905082856020860282011115620004fc57600080fd5b60005b85811015620005305781620005158882620005ab565b845260208401935060208301925050600181019050620004ff565b5050509392505050565b6000815190506200054b816200087a565b92915050565b600082601f8301126200056357600080fd5b81516200057584826020860162000450565b91505092915050565b600082601f8301126200059057600080fd5b8151620005a2848260208601620004c5565b91505092915050565b600081519050620005bc8162000894565b92915050565b60008060408385031215620005d657600080fd5b600083015167ffffffffffffffff811115620005f157600080fd5b620005ff858286016200057e565b925050602083015167ffffffffffffffff8111156200061d57600080fd5b6200062b8582860162000551565b9150509250929050565b60006200064460378362000705565b915062000651826200082b565b604082019050919050565b60006020820190508181036000830152620006778162000635565b9050919050565b60006200068a6200069d565b905062000698828262000757565b919050565b6000604051905090565b600067ffffffffffffffff821115620006c557620006c4620007eb565b5b602082029050602081019050919050565b600067ffffffffffffffff821115620006f457620006f3620007eb565b5b602082029050602081019050919050565b600082825260208201905092915050565b600062000723826200072a565b9050919050565b600073ffffffffffffffffffffffffffffffffffffffff82169050919050565b600060ff82169050919050565b62000762826200081a565b810181811067ffffffffffffffff82111715620007845762000783620007eb565b5b80604052505050565b60006200079a826200074a565b915060ff821415620007b157620007b0620007bc565b5b600182019050919050565b7f4e487b7100000000000000000000000000000000000000000000000000000000600052601160045260246000fd5b7f4e487b7100000000000000000000000000000000000000000000000000000000600052604160045260246000fd5b6000601f19601f8301169050919050565b7f496e74657265703a20706172616d6574657273206c6973747320646f6573206e60008201527f6f742068617665207468652073616d65206c656e677468000000000000000000602082015250565b620008858162000716565b81146200089157600080fd5b50565b6200089f816200074a565b8114620008ab57600080fd5b50565b613cd280620008be6000396000f3fe608060405234801561001057600080fd5b50600436106101165760003560e01c806361bcf78f116100a25780639b24b3b0116100715780639b24b3b0146102f0578063ac28eacd14610320578063c156f4c314610350578063e23b3d791461036c578063f2fde38b1461038857610116565b806361bcf78f14610268578063715018a61461029857806375e618c9146102a25780638da5cb5b146102d257610116565b80632d69be98116100e95780632d69be98146101b457806343989f85146101e4578063444eedda14610200578063568ee8261461021c57806361b785e51461023857610116565b8063023c23db1461011b57806304f820d31461014b578063114433f1146101675780631783efc314610198575b600080fd5b61013560048036038101906101309190612b32565b6103a4565b60405161014291906134f5565b60405180910390f35b61016560048036038101906101609190612b97565b6103c4565b005b610181600480360381019061017c9190612b32565b6109c8565b60405161018f929190613539565b60405180910390f35b6101b260048036038101906101ad9190612c2a565b6109f9565b005b6101ce60048036038101906101c99190612d50565b610c3d565b6040516101db919061329f565b60405180910390f35b6101fe60048036038101906101f99190612c66565b610c70565b005b61021a60048036038101906102159190612b09565b610ebc565b005b61023660048036038101906102319190612b5b565b610ebf565b005b610252600480360381019061024d9190612b32565b611205565b60405161025f91906134f5565b60405180910390f35b610282600480360381019061027d9190612b32565b6112a9565b60405161028f9190613562565b60405180910390f35b6102a061135a565b005b6102bc60048036038101906102b79190612b32565b6113e2565b6040516102c99190613562565b60405180910390f35b6102da61140f565b6040516102e7919061323d565b60405180910390f35b61030a60048036038101906103059190612b32565b611438565b60405161031791906134f5565b60405180910390f35b61033a60048036038101906103359190612b32565b611458565b604051610347919061323d565b60405180910390f35b61036a60048036038101906103659190612d01565b61148b565b005b61038660048036038101906103819190612a6b565b611831565b005b6103a2600480360381019061039d9190612a42565b611b39565b005b600060026000838152602001908152602001600020600201549050919050565b6103f07f7cc28a19cf6c7f2ba350809eaaedd1d2674845cb35b2b9f5c16d3844d968b8a160001b610ebc565b61041c7fb5c0d4e3225e8cfeb0778f22da7694b9c3efb6fbfd8770a5acafa235d100597c60001b610ebc565b6104487f831df6e184f0340e95257c001468aea137717ec1fb0ee48702adb28fc26578fd60001b610ebc565b600061045387611438565b90506104817fb3be52e6a611e510643e01cf990fa85dc35536c7605d4816ac58edf26e3c96a860001b610ebc565b6104ad7fe22fe145cdc21285176efd4fa10eaeb686afa9d520cfe9c0f1b1bd0170fddbb860001b610ebc565b60006104b8886113e2565b90506104e67f4ce22c12a80dc3e29fc211097383984fb24d2e9f736f24339511a4b21b9f793d60001b610ebc565b6105127f63d81df8f0cf758221125f441c0ce61f366dda9e13ccff5e27151a431eb288e560001b610ebc565b6000821415610612576105477f872f1e92abe4b9a36a2a1c60f262ddfe25e82be76fe03d66e69e69574a2aafec60001b610ebc565b6105737f7ddd1514b7c9137d83452069016f318be776ea82e8689516c64531a2a319d3ad60001b610ebc565b61059f7fef36a270dc19cb0237c43f5f065dd50fdb22b6827762207487863217874dd67e60001b610ebc565b6105a888611205565b91506105d67fb9febe03993c3880e68c887cb1a84ae34759a3ae02de6496c217c70a5992d57460001b610ebc565b6106027f3887820029467e5ddee8ad70fbbb03e57093fa92514ab6c3d99b27aca2aff78260001b610ebc565b61060b886112a9565b905061063f565b61063e7f4991c4d1a24a49a34d48c101cc0bc995bf5233d1a4981d9fa85383a895171ee460001b610ebc565b5b61066b7f961538a1cb9c91c91cc17f2978f91938c759ffaf33679a85b26561347a7c41f660001b610ebc565b6106977f354f3fba8078c232c6b55934acc05b536d6e92506d1f08295f7a640387ae720760001b610ebc565b6106c37ff6c76f95ff6305e497e75fd12efd8e562a72eb5d1d225320de0763648f865c3160001b610ebc565b60008160ff16141561070a576040517f08c379a00000000000000000000000000000000000000000000000000000000081526004016107019061331e565b60405180910390fd5b6107367fd97386e193612f4569453fe4e5e9ff461b9303024b9ee8b775a06faa68e33fe960001b610ebc565b6107627f252883e111a3a73bf4a1785e02cccb558dcb924f0b7a37241397d72c5c053e9360001b610ebc565b61078e7f5c3c13a3de67e2cbe0d39b7465f9e77314bc142639f2a9dd4010afe388a3831560001b610ebc565b6000600460008360ff1660ff16815260200190815260200160002060009054906101000a900473ffffffffffffffffffffffffffffffffffffffff1690506107f87f8071a6d8060b624a5bbef7bb1bbc13ba9d62372eb6dd6c7d8ed86b818e7b341660001b610ebc565b6108247f27f99f0c0dddc6721497ae32e46fdef9dd5b67674353170fad437026613ef55c60001b610ebc565b6108507f1b8e82140a1bb5ad45a3165e97e5216e7a5eaac3afc3032ca9ada3e18bbdcbbd60001b610ebc565b61085f88888589898987611c31565b61089e576040517f08c379a0000000000000000000000000000000000000000000000000000000008152600401610895906133be565b60405180910390fd5b6108ca7fa9ed6a01d8fc62bfc4134335d57318f139b65d84c37920cd620f7939911639f060001b610ebc565b6108f67f7c9c2674c737066c43ddc8b3a8c294eff45e3ce92959bfd2c4dccc78deb7d88d60001b610ebc565b6109227f67197f41d9bd55d0157cc64875cad079fd96922e7bf2b884387cd6aaba97aa5560001b610ebc565b61092b86611fb9565b6109577f2c4bc2d708b55c2231e776ed6ab4d1bb7f0823d9906db37bfc572c9f6a27daac60001b610ebc565b6109837f5e136658d6c1fa6f748a3b6503cfeb68f24f2603d1a727fe87f3791f5f5360cb60001b610ebc565b887f6ab1c9e4ef72052f6a58fbc8e7346e50c98e29f670385ed3ca5b6135fe25690889896040516109b59291906132ba565b60405180910390a2505050505050505050565b60056020528060005260406000206000915090508060000154908060010160009054906101000a900460ff16905082565b81610a267fdc4289ce017ec479b57061f96eca8395fb50d750bcddb8c661a91a278a3d978160001b610ebc565b610a527f7f1295eabfb864ae25e3b08d7dff78502d1a376af8670fb07cb67a9a93d511f660001b610ebc565b610a7e7f4110844c981de1244a71b269cf82510aab3eb6d1de7980c29bcae28d2f5362b260001b610ebc565b610aaa7ff364f0f0f82438deb8513c3411481e79e75dea625991bdd4f14e85c6445b9b3e60001b610ebc565b610ab2611fe7565b73ffffffffffffffffffffffffffffffffffffffff166006600083815260200190815260200160002060009054906101000a900473ffffffffffffffffffffffffffffffffffffffff1673ffffffffffffffffffffffffffffffffffffffff1614610b52576040517f08c379a0000000000000000000000000000000000000000000000000000000008152600401610b49906133de565b60405180910390fd5b610b7e7ff5e28dc261b16903271dc78e9a1ad5daa4fe3bfa55b89ea02c3902df8b0b8da560001b610ebc565b610baa7fcb5e05ccaff54e6eb528e0a4b99988c31f1b2882b1d1796b69eddd9d41baf28160001b610ebc565b610bd67fd0d051a85f853a40ade0574fc6709f1285f3d96e5c0552fed44896c74b6eaaf360001b610ebc565b610c027fcd59447ee545834463af40fc206ff4ec35826f313068954ab71395c6414b694160001b610ebc565b610c2e7f0bc5ee3f1800873f9395852c6195534560deed438441de968a5a60a0bb7c494560001b610ebc565b610c388383611fef565b505050565b60046020528060005260406000206000915054906101000a900473ffffffffffffffffffffffffffffffffffffffff1681565b85610c9d7fdc4289ce017ec479b57061f96eca8395fb50d750bcddb8c661a91a278a3d978160001b610ebc565b610cc97f7f1295eabfb864ae25e3b08d7dff78502d1a376af8670fb07cb67a9a93d511f660001b610ebc565b610cf57f4110844c981de1244a71b269cf82510aab3eb6d1de7980c29bcae28d2f5362b260001b610ebc565b610d217ff364f0f0f82438deb8513c3411481e79e75dea625991bdd4f14e85c6445b9b3e60001b610ebc565b610d29611fe7565b73ffffffffffffffffffffffffffffffffffffffff166006600083815260200190815260200160002060009054906101000a900473ffffffffffffffffffffffffffffffffffffffff1673ffffffffffffffffffffffffffffffffffffffff1614610dc9576040517f08c379a0000000000000000000000000000000000000000000000000000000008152600401610dc0906133de565b60405180910390fd5b610df57ff5e28dc261b16903271dc78e9a1ad5daa4fe3bfa55b89ea02c3902df8b0b8da560001b610ebc565b610e217fcb5e05ccaff54e6eb528e0a4b99988c31f1b2882b1d1796b69eddd9d41baf28160001b610ebc565b610e4d7f5a52302ce10784ff25fe17c2acefc602b6ce7df88e7faefb5176bf1dbf33364a60001b610ebc565b610e797f107bd3b29ffede66894ffc64e1db0ee5a78ae22570efc05a83c3e12dbb0b731960001b610ebc565b610ea57fb4bbc5837b9c59d3bc1a01ef1f4d954aee6050c9b0805cdf1b70b56f4b7dcb4060001b610ebc565b610eb387878787878761211f565b50505050505050565b50565b81610eec7fdc4289ce017ec479b57061f96eca8395fb50d750bcddb8c661a91a278a3d978160001b610ebc565b610f187f7f1295eabfb864ae25e3b08d7dff78502d1a376af8670fb07cb67a9a93d511f660001b610ebc565b610f447f4110844c981de1244a71b269cf82510aab3eb6d1de7980c29bcae28d2f5362b260001b610ebc565b610f707ff364f0f0f82438deb8513c3411481e79e75dea625991bdd4f14e85c6445b9b3e60001b610ebc565b610f78611fe7565b73ffffffffffffffffffffffffffffffffffffffff166006600083815260200190815260200160002060009054906101000a900473ffffffffffffffffffffffffffffffffffffffff1673ffffffffffffffffffffffffffffffffffffffff1614611018576040517f08c379a000000000000000000000000000000000000000000000000000000000815260040161100f906133de565b60405180910390fd5b6110447ff5e28dc261b16903271dc78e9a1ad5daa4fe3bfa55b89ea02c3902df8b0b8da560001b610ebc565b6110707fcb5e05ccaff54e6eb528e0a4b99988c31f1b2882b1d1796b69eddd9d41baf28160001b610ebc565b61109c7f5d431a1bbc5b963e5523b8764da77070de2b5b1011c28799d2dc17b19df4cb3160001b610ebc565b6110c87fc7543fcfe174804875dccae9b9260fa59a43ce1beed6951a644218762a6be7aa60001b610ebc565b6110f47f1d3a629d9a39810ffdbaf01abee6248ddc89fc2af3d84cde5e1767ab79f538e060001b610ebc565b816006600085815260200190815260200160002060006101000a81548173ffffffffffffffffffffffffffffffffffffffff021916908373ffffffffffffffffffffffffffffffffffffffff1602179055506111727f09783e4ee34e2c8560371c7025774d19e7d685fca568047f342787a1b0f52a7360001b610ebc565b61119e7fbbb7ac59476c1b26a531d1c7ab98abbbd64c3ad077c3c5499c9227da0be331d560001b610ebc565b8173ffffffffffffffffffffffffffffffffffffffff166111bd611fe7565b73ffffffffffffffffffffffffffffffffffffffff16847f0ba83579a0e79193ef649b9f5a8759d35af086ba62a3e207b52e4a8ae30d49e360405160405180910390a4505050565b60006112337f78bbd97235934015b8f283861730ad72e6b7dbb309e7f46fe070959f0833df0c60001b610ebc565b61125f7f998418a7c878084a060720b759fd9e3a9659c82c0764b884b9014575ea4b0acf60001b610ebc565b61128b7ff5d393091fbf064adde64e2b3130801c3d04b4eb33efaec8cad8258b0969e9d260001b610ebc565b60056000838152602001908152602001600020600001549050919050565b60006112d77f71f163a1ffdb9a61ad706392d4505e292051e675d6735162f94209afd8997ff060001b610ebc565b6113037f556a2e9d2455f7db33c4cfa178eb01838f0664c09f48f3ba0b9cfa8235d5cd1e60001b610ebc565b61132f7fd7aec06727138670c4dc002d8e725983846fa753e3a4bb6ec101ac6344b803bc60001b610ebc565b6005600083815260200190815260200160002060010160009054906101000a900460ff169050919050565b611362611fe7565b73ffffffffffffffffffffffffffffffffffffffff1661138061140f565b73ffffffffffffffffffffffffffffffffffffffff16146113d6576040517f08c379a00000000000000000000000000000000000000000000000000000000081526004016113cd9061337e565b60405180910390fd5b6113e06000612271565b565b60006002600083815260200190815260200160002060000160009054906101000a900460ff169050919050565b60008060009054906101000a900473ffffffffffffffffffffffffffffffffffffffff16905090565b600060026000838152602001908152602001600020600101549050919050565b60066020528060005260406000206000915054906101000a900473ffffffffffffffffffffffffffffffffffffffff1681565b816114b87f912761e2cf8fba036905777f59583edae32d826d667612f2b0c33d9f30063d8960001b610ebc565b6114e47f375b5cf30231e62ade5f94a1f60b1b157fe9856c5357c2e60f7e6ab79a83ef6a60001b610ebc565b6115107fb19a98dc00097bf03342ceac9a3f9f476cf0752d410d27ba08019fe9f4171fff60001b610ebc565b61153c7f870a130c37d85a164eb1dd1ab1168fe753437e60cfff5cc46b97860e0fc73c2a60001b610ebc565b600073ffffffffffffffffffffffffffffffffffffffff16600460008360ff1660ff16815260200190815260200160002060009054906101000a900473ffffffffffffffffffffffffffffffffffffffff1673ffffffffffffffffffffffffffffffffffffffff1614156115e5576040517f08c379a00000000000000000000000000000000000000000000000000000000081526004016115dc906133fe565b60405180910390fd5b6116117fd96e2a023133cce91e9e8cca397a2fc0e0f17308e9498ccf47e8d2c03784489b60001b610ebc565b61163d7fb650cc747420fb5b89bc79ea57c03d2bdca157b1e5506ba9877febea20c4b8ea60001b610ebc565b6116697fb8c808c9eb8a4e40c78069c26a6da157bc9fae13a60c8d4ddb5befb8119256c060001b610ebc565b6116957fd28507024e297e436467d72961d1d54df0ecfe3db802dc2f1593f70d793486ee60001b610ebc565b6116c17fd69731e987bc7e9d507fb67c9074e6e8f6481c5ccb5f6243b62dc97cdab4549d60001b610ebc565b6116cd84846000612335565b6116f97f4249c19ed45ee6e5d538958161e53319c13a1e669e07fd897b9e284b4d9a15d960001b610ebc565b6117257f1fe837de4cbc70c682b1b47f2536c600b0b4753b4133e3ef1f8e91807cb7b33f60001b610ebc565b816006600086815260200190815260200160002060006101000a81548173ffffffffffffffffffffffffffffffffffffffff021916908373ffffffffffffffffffffffffffffffffffffffff1602179055506117a37fa80a92a803f4444a1802e166b1574431d4a44ba6b0373a8ad6a57525bd0022c960001b610ebc565b6117cf7fe2ce3dce89a72f50fc156e08770b9621c68e3e5844b30a23a3eaab1f34bc74f860001b610ebc565b8173ffffffffffffffffffffffffffffffffffffffff16600073ffffffffffffffffffffffffffffffffffffffff16857f0ba83579a0e79193ef649b9f5a8759d35af086ba62a3e207b52e4a8ae30d49e360405160405180910390a450505050565b611839611fe7565b73ffffffffffffffffffffffffffffffffffffffff1661185761140f565b73ffffffffffffffffffffffffffffffffffffffff16146118ad576040517f08c379a00000000000000000000000000000000000000000000000000000000081526004016118a49061337e565b60405180910390fd5b6118d97fcebd7ed08981eaa129271c51c95f8113cee61cb99c0eaaaa98a89c6d8ac6897a60001b610ebc565b6119057fc202ea846aa97f73121d0f61af00351fcb2714b0f05dcabd7a577129af4d591360001b610ebc565b6119317fada3fe90f1ff73a3a0a0d983a44ac0ae5c1c568829cecc2b2174d6489d5ad45460001b610ebc565b61195d7f48e685d2a1a3ee8196d1d14a63e3502c560ebd03ad2b38dd55c3d975a20f40dd60001b610ebc565b8181905084849050146119a5576040517f08c379a000000000000000000000000000000000000000000000000000000000815260040161199c9061341e565b60405180910390fd5b6119d17f53111abcbb8177b017993ab3b145665ac564cc10b5025c547404e3e2851538ac60001b610ebc565b6119fd7f376e5bd463a05a37b02c266124ebf9e21f99693712a2c1d66bb158c1f0d2eadc60001b610ebc565b611a297f4ff535fd09e8c0483a19bb7dbe06a18135bafb1235ce81af7ba6eb34a57854ab60001b610ebc565b60005b848490508160ff161015611b3257611a667fcda6f0ec5e16be631dc9071463130752f7ed52978b24702f044d5173dd93ab9f60001b610ebc565b611a927f8610462950eb533a023b742906c33f86061d7116c3cf85d32fb1bd751d887c0c60001b610ebc565b611b1f85858360ff16818110611ad1577f4e487b7100000000000000000000000000000000000000000000000000000000600052603260045260246000fd5b9050602002013584848460ff16818110611b14577f4e487b7100000000000000000000000000000000000000000000000000000000600052603260045260246000fd5b905060400201612441565b8080611b2a906137a0565b915050611a2c565b5050505050565b611b41611fe7565b73ffffffffffffffffffffffffffffffffffffffff16611b5f61140f565b73ffffffffffffffffffffffffffffffffffffffff1614611bb5576040517f08c379a0000000000000000000000000000000000000000000000000000000008152600401611bac9061337e565b60405180910390fd5b600073ffffffffffffffffffffffffffffffffffffffff168173ffffffffffffffffffffffffffffffffffffffff161415611c25576040517f08c379a0000000000000000000000000000000000000000000000000000000008152600401611c1c906132fe565b60405180910390fd5b611c2e81612271565b50565b60006001600086815260200190815260200160002060009054906101000a900460ff1615611c94576040517f08c379a0000000000000000000000000000000000000000000000000000000008152600401611c8b906132de565b60405180910390fd5b6000611ca08989612859565b9050600060405180608001604052808981526020018881526020018381526020018781525090508373ffffffffffffffffffffffffffffffffffffffff16635fe8c13b604051806040016040528088600060088110611d28577f4e487b7100000000000000000000000000000000000000000000000000000000600052603260045260246000fd5b6020020135815260200188600160088110611d6c577f4e487b7100000000000000000000000000000000000000000000000000000000600052603260045260246000fd5b6020020135815250604051806040016040528060405180604001604052808b600260088110611dc4577f4e487b7100000000000000000000000000000000000000000000000000000000600052603260045260246000fd5b602002013581526020018b600360088110611e08577f4e487b7100000000000000000000000000000000000000000000000000000000600052603260045260246000fd5b6020020135815250815260200160405180604001604052808b600460088110611e5a577f4e487b7100000000000000000000000000000000000000000000000000000000600052603260045260246000fd5b602002013581526020018b600560088110611e9e577f4e487b7100000000000000000000000000000000000000000000000000000000600052603260045260246000fd5b602002013581525081525060405180604001604052808a600660088110611eee577f4e487b7100000000000000000000000000000000000000000000000000000000600052603260045260246000fd5b602002013581526020018a600760088110611f32577f4e487b7100000000000000000000000000000000000000000000000000000000600052603260045260246000fd5b6020020135815250856040518563ffffffff1660e01b8152600401611f5a9493929190613258565b60206040518083038186803b158015611f7257600080fd5b505afa158015611f86573d6000803e3d6000fd5b505050506040513d601f19601f82011682018060405250810190611faa9190612ae0565b92505050979650505050505050565b600180600083815260200190815260200160002060006101000a81548160ff02191690831515021790555050565b600033905090565b6000611ffa836113e2565b60ff16141561203e576040517f08c379a00000000000000000000000000000000000000000000000000000000081526004016120359061335e565b60405180910390fd5b6002600083815260200190815260200160002073__$4c0484323457fe1a856f46a4759b553fe4$__63168703fa9091836040518363ffffffff1660e01b815260040161208b92919061343e565b60006040518083038186803b1580156120a357600080fd5b505af41580156120b7573d6000803e3d6000fd5b5050505060006120c683611438565b9050826003600083815260200190815260200160002081905550827f03fd27265b7dd1f55558bedc22a58fa3b10afb1be776e614bd5a7ba7b94994068383604051612112929190613510565b60405180910390a2505050565b600061212a876113e2565b60ff16141561216e576040517f08c379a00000000000000000000000000000000000000000000000000000000081526004016121659061335e565b60405180910390fd5b6002600087815260200190815260200160002073__$4c0484323457fe1a856f46a4759b553fe4$__630629596f909187878787876040518763ffffffff1660e01b81526004016121c396959493929190613467565b60006040518083038186803b1580156121db57600080fd5b505af41580156121ef573d6000803e3d6000fd5b5050505060006121fe87611438565b9050866003600083815260200190815260200160002081905550867fe270325ded177064d7bda473e6519ef40a291058c41286f71a6e4872f1e9ab5c87600260008b815260200190815260200160002060010154604051612260929190613510565b60405180910390a250505050505050565b60008060009054906101000a900473ffffffffffffffffffffffffffffffffffffffff169050816000806101000a81548173ffffffffffffffffffffffffffffffffffffffff021916908373ffffffffffffffffffffffffffffffffffffffff1602179055508173ffffffffffffffffffffffffffffffffffffffff168173ffffffffffffffffffffffffffffffffffffffff167f8be0079c531659141344cd1fd0a4f28419497f9722a3daafe3b4186f6b6457e060405160405180910390a35050565b6000612340846113e2565b60ff1614612383576040517f08c379a000000000000000000000000000000000000000000000000000000000815260040161237a9061333e565b60405180910390fd5b6002600084815260200190815260200160002073__$4c0484323457fe1a856f46a4759b553fe4$__63b4bdd117909184846040518463ffffffff1660e01b81526004016123d2939291906134be565b60006040518083038186803b1580156123ea57600080fd5b505af41580156123fe573d6000803e3d6000fd5b50505050827fc3082aa494e9088c2c9f0fb62a0b6bd46e6699acb94cfba35be29b95a93f68c8838360405161243492919061357d565b60405180910390a2505050565b8060200160208101906124549190612d50565b6124807f912761e2cf8fba036905777f59583edae32d826d667612f2b0c33d9f30063d8960001b610ebc565b6124ac7f375b5cf30231e62ade5f94a1f60b1b157fe9856c5357c2e60f7e6ab79a83ef6a60001b610ebc565b6124d87fb19a98dc00097bf03342ceac9a3f9f476cf0752d410d27ba08019fe9f4171fff60001b610ebc565b6125047f870a130c37d85a164eb1dd1ab1168fe753437e60cfff5cc46b97860e0fc73c2a60001b610ebc565b600073ffffffffffffffffffffffffffffffffffffffff16600460008360ff1660ff16815260200190815260200160002060009054906101000a900473ffffffffffffffffffffffffffffffffffffffff1673ffffffffffffffffffffffffffffffffffffffff1614156125ad576040517f08c379a00000000000000000000000000000000000000000000000000000000081526004016125a4906133fe565b60405180910390fd5b6125d97fd96e2a023133cce91e9e8cca397a2fc0e0f17308e9498ccf47e8d2c03784489b60001b610ebc565b6126057fb650cc747420fb5b89bc79ea57c03d2bdca157b1e5506ba9877febea20c4b8ea60001b610ebc565b6126317f666ea41757ead25674f7ec4ea8d26ef7e45da31365724957781a299ec7b525e860001b610ebc565b61265d7f0efa060e92aa589ddc84b6cb6631a3af8d9c8e919b2b491be2a88fcae7205ba160001b610ebc565b6126897f26a084644a5b85c80fda86ed9c2d345f3b35de8e2b819527c7fe932b82bf87f060001b610ebc565b6126b57fb1c088ca195df9bc5f6c81d1e1c4f5f1d0b47961f4e861c572d02c38f6da490560001b610ebc565b60006126c0846113e2565b60ff1614612703576040517f08c379a00000000000000000000000000000000000000000000000000000000081526004016126fa9061339e565b60405180910390fd5b61272f7f1447ef1526d7f094d5240eead38773d843427a5cc3c4c004d10b2b5c848c5fd260001b610ebc565b61275b7f726bcf1932eaef7ccb469c4889a62dd70b3aff57fd62e0353e5a3237baa33df160001b610ebc565b6127877f1d56beecffe7f57f1f94a40886d3b3d59174b750dc0cb5e3dfeed5819b88c30d60001b610ebc565b816005600085815260200190815260200160002081816127a79190613bd5565b9050506127d67f95f9b478f79be4e8347c02b9ce39b4ebbaae3f5361d83ac0f0ebdcd04ffe615c60001b610ebc565b6128027fba26d7c21a342197109be78a55c4e793dd560d3b370a8721a15da1f64cd2121860001b610ebc565b8160200160208101906128159190612d50565b60ff16837f49cb92a2303fa8949dfad0dd3708425241f0ed1e84db31da0c81af2965a6b112846000013560405161284c91906134f5565b60405180910390a3505050565b600060088383604051602001612870929190613224565b6040516020818303038152906040528051906020012060001c901c905092915050565b6000813590506128a281613c29565b92915050565b60008083601f8401126128ba57600080fd5b8235905067ffffffffffffffff8111156128d357600080fd5b6020830191508360408202830111156128eb57600080fd5b9250929050565b60008190508260206008028201111561290a57600080fd5b92915050565b60008083601f84011261292257600080fd5b8235905067ffffffffffffffff81111561293b57600080fd5b60208301915083602082028301111561295357600080fd5b9250929050565b60008083601f84011261296c57600080fd5b8235905067ffffffffffffffff81111561298557600080fd5b60208301915083602082028301111561299d57600080fd5b9250929050565b6000815190506129b381613c40565b92915050565b6000813590506129c881613c57565b92915050565b60008083601f8401126129e057600080fd5b8235905067ffffffffffffffff8111156129f957600080fd5b602083019150836001820283011115612a1157600080fd5b9250929050565b600081359050612a2781613c6e565b92915050565b600081359050612a3c81613c85565b92915050565b600060208284031215612a5457600080fd5b6000612a6284828501612893565b91505092915050565b60008060008060408587031215612a8157600080fd5b600085013567ffffffffffffffff811115612a9b57600080fd5b612aa787828801612910565b9450945050602085013567ffffffffffffffff811115612ac657600080fd5b612ad2878288016128a8565b925092505092959194509250565b600060208284031215612af257600080fd5b6000612b00848285016129a4565b91505092915050565b600060208284031215612b1b57600080fd5b6000612b29848285016129b9565b91505092915050565b600060208284031215612b4457600080fd5b6000612b5284828501612a18565b91505092915050565b60008060408385031215612b6e57600080fd5b6000612b7c85828601612a18565b9250506020612b8d85828601612893565b9150509250929050565b6000806000806000806101808789031215612bb157600080fd5b6000612bbf89828a01612a18565b965050602087013567ffffffffffffffff811115612bdc57600080fd5b612be889828a016129ce565b95509550506040612bfb89828a01612a18565b9350506060612c0c89828a01612a18565b9250506080612c1d89828a016128f2565b9150509295509295509295565b60008060408385031215612c3d57600080fd5b6000612c4b85828601612a18565b9250506020612c5c85828601612a18565b9150509250929050565b60008060008060008060808789031215612c7f57600080fd5b6000612c8d89828a01612a18565b9650506020612c9e89828a01612a18565b955050604087013567ffffffffffffffff811115612cbb57600080fd5b612cc789828a01612910565b9450945050606087013567ffffffffffffffff811115612ce657600080fd5b612cf289828a0161295a565b92509250509295509295509295565b600080600060608486031215612d1657600080fd5b6000612d2486828701612a18565b9350506020612d3586828701612a2d565b9250506040612d4686828701612893565b9150509250925092565b600060208284031215612d6257600080fd5b6000612d7084828501612a2d565b91505092915050565b6000612d858383612e27565b60408301905092915050565b6000612d9d83836131ca565b60208301905092915050565b6000612db58383613215565b60208301905092915050565b612dca816136a4565b82525050565b612dd9816135ce565b612de38184613623565b9250612dee826135a6565b8060005b83811015612e1f578151612e068782612d79565b9650612e11836135ef565b925050600181019050612df2565b505050505050565b612e30816135d9565b612e3a818461362e565b9250612e45826135b0565b8060005b83811015612e76578151612e5d8782612d91565b9650612e68836135fc565b925050600181019050612e49565b505050505050565b612e87816135d9565b612e918184613639565b9250612e9c826135b0565b8060005b83811015612ecd578151612eb48782612d91565b9650612ebf836135fc565b925050600181019050612ea0565b505050505050565b612ede816135e4565b612ee88184613644565b9250612ef3826135ba565b8060005b83811015612f24578151612f0b8782612d91565b9650612f1683613609565b925050600181019050612ef7565b505050505050565b6000612f38838561364f565b93507f07ffffffffffffffffffffffffffffffffffffffffffffffffffffffffffffff831115612f6757600080fd5b602083029250612f7883858461374b565b82840190509392505050565b6000612f908385613660565b9350612f9b826135c4565b8060005b85811015612fd457612fb1828461368d565b612fbb8882612da9565b9750612fc683613616565b925050600181019050612f9f565b5085925050509392505050565b612fea81613703565b82525050565b6000612ffc8385613671565b935061300983858461374b565b61301283613839565b840190509392505050565b60006130298385613682565b935061303683858461374b565b82840190509392505050565b600061304f603683613671565b915061305a82613857565b604082019050919050565b6000613072602683613671565b915061307d826138a6565b604082019050919050565b6000613095602183613671565b91506130a0826138f5565b604082019050919050565b60006130b8602583613671565b91506130c382613944565b604082019050919050565b60006130db602583613671565b91506130e682613993565b604082019050919050565b60006130fe602083613671565b9150613109826139e2565b602082019050919050565b6000613121602883613671565b915061312c82613a0b565b604082019050919050565b6000613144601f83613671565b915061314f82613a5a565b602082019050919050565b6000613167602683613671565b915061317282613a83565b604082019050919050565b600061318a602483613671565b915061319582613ad2565b604082019050919050565b60006131ad603783613671565b91506131b882613b21565b604082019050919050565b8082525050565b6131d3816136ec565b82525050565b6131e2816136ec565b82525050565b6131f1816136ec565b82525050565b613200816136f6565b82525050565b61320f816136f6565b82525050565b61321e816136f6565b82525050565b600061323182848661301d565b91508190509392505050565b60006020820190506132526000830184612dc1565b92915050565b60006101808201905061326e6000830187612e7e565b61327b6040830186612dd0565b61328860c0830185612e7e565b613296610100830184612ed5565b95945050505050565b60006020820190506132b46000830184612fe1565b92915050565b600060208201905081810360008301526132d5818486612ff0565b90509392505050565b600060208201905081810360008301526132f781613042565b9050919050565b6000602082019050818103600083015261331781613065565b9050919050565b6000602082019050818103600083015261333781613088565b9050919050565b60006020820190508181036000830152613357816130ab565b9050919050565b60006020820190508181036000830152613377816130ce565b9050919050565b60006020820190508181036000830152613397816130f1565b9050919050565b600060208201905081810360008301526133b781613114565b9050919050565b600060208201905081810360008301526133d781613137565b9050919050565b600060208201905081810360008301526133f78161315a565b9050919050565b600060208201905081810360008301526134178161317d565b9050919050565b60006020820190508181036000830152613437816131a0565b9050919050565b600060408201905061345360008301856131c3565b61346060208301846131e8565b9392505050565b600060808201905061347c60008301896131c3565b61348960208301886131e8565b818103604083015261349c818688612f2c565b905081810360608301526134b1818486612f84565b9050979650505050505050565b60006060820190506134d360008301866131c3565b6134e06020830185613206565b6134ed60408301846131e8565b949350505050565b600060208201905061350a60008301846131d9565b92915050565b600060408201905061352560008301856131d9565b61353260208301846131d9565b9392505050565b600060408201905061354e60008301856131d9565b61355b60208301846131f7565b9392505050565b600060208201905061357760008301846131f7565b92915050565b600060408201905061359260008301856131f7565b61359f60208301846131d9565b9392505050565b6000819050919050565b6000819050919050565b6000819050919050565b6000819050919050565b600060029050919050565b600060029050919050565b600060049050919050565b6000602082019050919050565b6000602082019050919050565b6000602082019050919050565b6000602082019050919050565b600081905092915050565b600081905092915050565b600081905092915050565b600081905092915050565b600082825260208201905092915050565b600082825260208201905092915050565b600082825260208201905092915050565b600081905092915050565b600061369c6020840184612a2d565b905092915050565b60006136af826136cc565b9050919050565b60008115159050919050565b6000819050919050565b600073ffffffffffffffffffffffffffffffffffffffff82169050919050565b6000819050919050565b600060ff82169050919050565b600061370e82613715565b9050919050565b6000613720826136cc565b9050919050565b6000613732826136ec565b9050919050565b6000613744826136f6565b9050919050565b82818337600083830152505050565b60008101600083018061376c8161380d565b90506137788184613be3565b50505060018101602083018061378d81613823565b90506137998184613c06565b5050505050565b60006137ab826136f6565b915060ff8214156137bf576137be6137ca565b5b600182019050919050565b7f4e487b7100000000000000000000000000000000000000000000000000000000600052601160045260246000fd5b6000819050919050565b6000819050919050565b6000813561381a81613c6e565b80915050919050565b6000813561383081613c85565b80915050919050565b6000601f19601f8301169050919050565b60008160001b9050919050565b7f53656d6170686f7265436f72653a20796f752063616e6e6f742075736520746860008201527f652073616d65206e756c6c696669657220747769636500000000000000000000602082015250565b7f4f776e61626c653a206e6577206f776e657220697320746865207a65726f206160008201527f6464726573730000000000000000000000000000000000000000000000000000602082015250565b7f496e74657265703a207468652067726f757020646f6573206e6f74206578697360008201527f7400000000000000000000000000000000000000000000000000000000000000602082015250565b7f53656d6170686f726547726f7570733a2067726f757020616c7265616479206560008201527f7869737473000000000000000000000000000000000000000000000000000000602082015250565b7f53656d6170686f726547726f7570733a2067726f757020646f6573206e6f742060008201527f6578697374000000000000000000000000000000000000000000000000000000602082015250565b7f4f776e61626c653a2063616c6c6572206973206e6f7420746865206f776e6572600082015250565b7f496e74657265703a2067726f757020696420616c72656164792065786973747360008201527f206f6e636861696e000000000000000000000000000000000000000000000000602082015250565b7f496e74657265703a207468652070726f6f66206973206e6f742076616c696400600082015250565b7f496e74657265703a2063616c6c6572206973206e6f74207468652067726f757060008201527f2061646d696e0000000000000000000000000000000000000000000000000000602082015250565b7f496e74657265703a2074726565206465707468206973206e6f7420737570706f60008201527f7274656400000000000000000000000000000000000000000000000000000000602082015250565b7f496e74657265703a20706172616d6574657273206c6973747320646f6573206e60008201527f6f742068617665207468652073616d65206c656e677468000000000000000000602082015250565b600060ff613b7d8461384a565b9350801983169250808416831791505092915050565b60007fffffffffffffffffffffffffffffffffffffffffffffffffffffffffffffffff613bbf8461384a565b9350801983169250808416831791505092915050565b613bdf828261375a565b5050565b613bec82613727565b613bff613bf8826137f9565b8354613b93565b8255505050565b613c0f82613739565b613c22613c1b82613803565b8354613b70565b8255505050565b613c32816136a4565b8114613c3d57600080fd5b50565b613c49816136b6565b8114613c5457600080fd5b50565b613c60816136c2565b8114613c6b57600080fd5b50565b613c77816136ec565b8114613c8257600080fd5b50565b613c8e816136f6565b8114613c9957600080fd5b5056fea2646970667358221220e6786da92b128f932a4e5c48504874af812d447f1b78d42f3bc57838dd35981964736f6c63430008040033",
  "linkReferences": {
    "@zk-kit/incremental-merkle-tree.sol/contracts/IncrementalBinaryTree.sol": {
      "IncrementalBinaryTree": [
        {
          "length": 20,
          "start": 10513
        },
        {
          "length": 20,
          "start": 10817
        },
        {
          "length": 20,
          "start": 11350
        }
      ]
    }
  },
  "deployedLinkReferences": {
    "@zk-kit/incremental-merkle-tree.sol/contracts/IncrementalBinaryTree.sol": {
      "IncrementalBinaryTree": [
        {
          "length": 20,
          "start": 8275
        },
        {
          "length": 20,
          "start": 8579
        },
        {
          "length": 20,
          "start": 9112
        }
      ]
    }
  }
}