{
  "_format": "hh-sol-artifact-1",
  "contractName": "Interep",
  "sourceName": "contracts/Interep.sol",
  "abi": [
    {
      "inputs": [
        {
          "internalType": "uint8[]",
          "name": "depths",
          "type": "uint8[]"
        },
        {
          "internalType": "address[]",
          "name": "verifierAddresses",
          "type": "address[]"
        }
      ],
      "stateMutability": "nonpayable",
      "type": "constructor"
    },
    {
      "anonymous": false,
      "inputs": [
        {
          "indexed": true,
          "internalType": "uint256",
          "name": "groupId",
          "type": "uint256"
        },
        {
          "indexed": true,
          "internalType": "address",
          "name": "oldAdmin",
          "type": "address"
        },
        {
          "indexed": true,
          "internalType": "address",
          "name": "newAdmin",
          "type": "address"
        }
      ],
      "name": "GroupAdminUpdated",
      "type": "event"
    },
    {
      "anonymous": false,
      "inputs": [
        {
          "indexed": true,
          "internalType": "uint256",
          "name": "groupId",
          "type": "uint256"
        },
        {
          "indexed": false,
          "internalType": "uint8",
          "name": "depth",
          "type": "uint8"
        },
        {
          "indexed": false,
          "internalType": "uint256",
          "name": "zeroValue",
          "type": "uint256"
        }
      ],
      "name": "GroupCreated",
      "type": "event"
    },
    {
      "anonymous": false,
      "inputs": [
        {
          "indexed": true,
          "internalType": "uint256",
          "name": "groupId",
          "type": "uint256"
        },
        {
          "indexed": false,
          "internalType": "uint256",
          "name": "identityCommitment",
          "type": "uint256"
        },
        {
          "indexed": false,
          "internalType": "uint256",
          "name": "root",
          "type": "uint256"
        }
      ],
      "name": "MemberAdded",
      "type": "event"
    },
    {
      "anonymous": false,
      "inputs": [
        {
          "indexed": true,
          "internalType": "uint256",
          "name": "groupId",
          "type": "uint256"
        },
        {
          "indexed": false,
          "internalType": "uint256",
          "name": "identityCommitment",
          "type": "uint256"
        },
        {
          "indexed": false,
          "internalType": "uint256",
          "name": "root",
          "type": "uint256"
        }
      ],
      "name": "MemberRemoved",
      "type": "event"
    },
    {
      "anonymous": false,
      "inputs": [
        {
          "indexed": false,
          "internalType": "uint256",
          "name": "nullifierHash",
          "type": "uint256"
        }
      ],
      "name": "NullifierHashAdded",
      "type": "event"
    },
    {
      "anonymous": false,
      "inputs": [
        {
          "indexed": false,
          "internalType": "uint256",
          "name": "groupId",
          "type": "uint256"
        },
        {
          "indexed": true,
          "internalType": "bytes32",
          "name": "provider",
          "type": "bytes32"
        },
        {
          "indexed": true,
          "internalType": "bytes32",
          "name": "name",
          "type": "bytes32"
        },
        {
          "indexed": false,
          "internalType": "uint256",
          "name": "root",
          "type": "uint256"
        },
        {
          "indexed": true,
          "internalType": "uint8",
          "name": "depth",
          "type": "uint8"
        }
      ],
      "name": "OffchainGroupUpdated",
      "type": "event"
    },
    {
      "anonymous": false,
      "inputs": [
        {
          "indexed": true,
          "internalType": "address",
          "name": "previousOwner",
          "type": "address"
        },
        {
          "indexed": true,
          "internalType": "address",
          "name": "newOwner",
          "type": "address"
        }
      ],
      "name": "OwnershipTransferred",
      "type": "event"
    },
    {
      "anonymous": false,
      "inputs": [
        {
          "indexed": true,
          "internalType": "uint256",
          "name": "groupId",
          "type": "uint256"
        },
        {
          "indexed": false,
          "internalType": "bytes32",
          "name": "signal",
          "type": "bytes32"
        }
      ],
      "name": "ProofVerified",
      "type": "event"
    },
    {
      "inputs": [
        {
          "internalType": "uint256",
          "name": "groupId",
          "type": "uint256"
        },
        {
          "internalType": "uint256",
          "name": "identityCommitment",
          "type": "uint256"
        }
      ],
      "name": "addMember",
      "outputs": [],
      "stateMutability": "nonpayable",
      "type": "function"
    },
    {
      "inputs": [
        {
          "internalType": "uint256",
          "name": "groupId",
          "type": "uint256"
        },
        {
          "internalType": "uint8",
          "name": "depth",
          "type": "uint8"
        },
        {
          "internalType": "address",
          "name": "admin",
          "type": "address"
        }
      ],
      "name": "createGroup",
      "outputs": [],
      "stateMutability": "nonpayable",
      "type": "function"
    },
    {
      "inputs": [
        {
          "internalType": "uint256",
          "name": "groupId",
          "type": "uint256"
        }
      ],
      "name": "getDepth",
      "outputs": [
        {
          "internalType": "uint8",
          "name": "",
          "type": "uint8"
        }
      ],
      "stateMutability": "view",
      "type": "function"
    },
    {
      "inputs": [
        {
          "internalType": "uint256",
          "name": "groupId",
          "type": "uint256"
        }
      ],
      "name": "getNumberOfLeaves",
      "outputs": [
        {
          "internalType": "uint256",
          "name": "",
          "type": "uint256"
        }
      ],
      "stateMutability": "view",
      "type": "function"
    },
    {
      "inputs": [
        {
          "internalType": "uint256",
          "name": "groupId",
          "type": "uint256"
        }
      ],
      "name": "getOffchainDepth",
      "outputs": [
        {
          "internalType": "uint8",
          "name": "",
          "type": "uint8"
        }
      ],
      "stateMutability": "view",
      "type": "function"
    },
    {
      "inputs": [
        {
          "internalType": "uint256",
          "name": "groupId",
          "type": "uint256"
        }
      ],
      "name": "getOffchainRoot",
      "outputs": [
        {
          "internalType": "uint256",
          "name": "",
          "type": "uint256"
        }
      ],
      "stateMutability": "view",
      "type": "function"
    },
    {
      "inputs": [
        {
          "internalType": "uint256",
          "name": "groupId",
          "type": "uint256"
        }
      ],
      "name": "getRoot",
      "outputs": [
        {
          "internalType": "uint256",
          "name": "",
          "type": "uint256"
        }
      ],
      "stateMutability": "view",
      "type": "function"
    },
    {
      "inputs": [
        {
          "internalType": "uint256",
          "name": "",
          "type": "uint256"
        }
      ],
      "name": "groupAdmins",
      "outputs": [
        {
          "internalType": "address",
          "name": "",
          "type": "address"
        }
      ],
      "stateMutability": "view",
      "type": "function"
    },
    {
      "inputs": [
        {
          "internalType": "uint256",
          "name": "",
          "type": "uint256"
        }
      ],
      "name": "offchainGroups",
      "outputs": [
        {
          "internalType": "bytes32",
          "name": "provider",
          "type": "bytes32"
        },
        {
          "internalType": "bytes32",
          "name": "name",
          "type": "bytes32"
        },
        {
          "internalType": "uint256",
          "name": "root",
          "type": "uint256"
        },
        {
          "internalType": "uint8",
          "name": "depth",
          "type": "uint8"
        }
      ],
      "stateMutability": "view",
      "type": "function"
    },
    {
      "inputs": [],
      "name": "owner",
      "outputs": [
        {
          "internalType": "address",
          "name": "",
          "type": "address"
        }
      ],
      "stateMutability": "view",
      "type": "function"
    },
    {
      "inputs": [
        {
          "internalType": "uint256",
          "name": "groupId",
          "type": "uint256"
        },
        {
          "internalType": "uint256",
          "name": "identityCommitment",
          "type": "uint256"
        },
        {
          "internalType": "uint256[]",
          "name": "proofSiblings",
          "type": "uint256[]"
        },
        {
          "internalType": "uint8[]",
          "name": "proofPathIndices",
          "type": "uint8[]"
        }
      ],
      "name": "removeMember",
      "outputs": [],
      "stateMutability": "nonpayable",
      "type": "function"
    },
    {
      "inputs": [],
      "name": "renounceOwnership",
      "outputs": [],
      "stateMutability": "nonpayable",
      "type": "function"
    },
    {
      "inputs": [
        {
          "internalType": "address",
          "name": "newOwner",
          "type": "address"
        }
      ],
      "name": "transferOwnership",
      "outputs": [],
      "stateMutability": "nonpayable",
      "type": "function"
    },
    {
      "inputs": [
        {
          "internalType": "uint256",
          "name": "groupId",
          "type": "uint256"
        },
        {
          "internalType": "address",
          "name": "newAdmin",
          "type": "address"
        }
      ],
      "name": "updateGroupAdmin",
      "outputs": [],
      "stateMutability": "nonpayable",
      "type": "function"
    },
    {
      "inputs": [
        {
          "components": [
            {
              "internalType": "bytes32",
              "name": "provider",
              "type": "bytes32"
            },
            {
              "internalType": "bytes32",
              "name": "name",
              "type": "bytes32"
            },
            {
              "internalType": "uint256",
              "name": "root",
              "type": "uint256"
            },
            {
              "internalType": "uint8",
              "name": "depth",
              "type": "uint8"
            }
          ],
          "internalType": "struct IInterep.OffchainGroup[]",
          "name": "groups",
          "type": "tuple[]"
        }
      ],
      "name": "updateOffchainGroups",
      "outputs": [],
      "stateMutability": "nonpayable",
      "type": "function"
    },
    {
      "inputs": [
        {
          "internalType": "uint8",
          "name": "",
          "type": "uint8"
        }
      ],
      "name": "verifiers",
      "outputs": [
        {
          "internalType": "contract IVerifier",
          "name": "",
          "type": "address"
        }
      ],
      "stateMutability": "view",
      "type": "function"
    },
    {
      "inputs": [
        {
          "internalType": "uint256",
          "name": "groupId",
          "type": "uint256"
        },
        {
          "internalType": "bytes32",
          "name": "signal",
          "type": "bytes32"
        },
        {
          "internalType": "uint256",
          "name": "nullifierHash",
          "type": "uint256"
        },
        {
          "internalType": "uint256",
          "name": "externalNullifier",
          "type": "uint256"
        },
        {
          "internalType": "uint256[8]",
          "name": "proof",
          "type": "uint256[8]"
        }
      ],
      "name": "verifyProof",
      "outputs": [],
      "stateMutability": "nonpayable",
      "type": "function"
    }
  ],
  "bytecode": "0x60806040523480156200001157600080fd5b506040516200321e3803806200321e8339818101604052810190620000379190620003eb565b620000576200004b620001ad60201b60201c565b620001b560201b60201c565b80518251146200009e576040517f08c379a0000000000000000000000000000000000000000000000000000000008152600401620000959062000485565b60405180910390fd5b60005b82518160ff161015620001a457818160ff1681518110620000eb577f4e487b7100000000000000000000000000000000000000000000000000000000600052603260045260246000fd5b602002602001015160046000858460ff168151811062000134577f4e487b7100000000000000000000000000000000000000000000000000000000600052603260045260246000fd5b602002602001015160ff1660ff16815260200190815260200160002060006101000a81548173ffffffffffffffffffffffffffffffffffffffff021916908373ffffffffffffffffffffffffffffffffffffffff16021790555080806200019b90620005b6565b915050620000a1565b505050620006d7565b600033905090565b60008060009054906101000a900473ffffffffffffffffffffffffffffffffffffffff169050816000806101000a81548173ffffffffffffffffffffffffffffffffffffffff021916908373ffffffffffffffffffffffffffffffffffffffff1602179055508173ffffffffffffffffffffffffffffffffffffffff168173ffffffffffffffffffffffffffffffffffffffff167f8be0079c531659141344cd1fd0a4f28419497f9722a3daafe3b4186f6b6457e060405160405180910390a35050565b6000620002906200028a84620004d0565b620004a7565b90508083825260208201905082856020860282011115620002b057600080fd5b60005b85811015620002e45781620002c9888262000363565b845260208401935060208301925050600181019050620002b3565b5050509392505050565b600062000305620002ff84620004ff565b620004a7565b905080838252602082019050828560208602820111156200032557600080fd5b60005b858110156200035957816200033e8882620003d4565b84526020840193506020830192505060018101905062000328565b5050509392505050565b6000815190506200037481620006a3565b92915050565b600082601f8301126200038c57600080fd5b81516200039e84826020860162000279565b91505092915050565b600082601f830112620003b957600080fd5b8151620003cb848260208601620002ee565b91505092915050565b600081519050620003e581620006bd565b92915050565b60008060408385031215620003ff57600080fd5b600083015167ffffffffffffffff8111156200041a57600080fd5b6200042885828601620003a7565b925050602083015167ffffffffffffffff8111156200044657600080fd5b62000454858286016200037a565b9150509250929050565b60006200046d6037836200052e565b91506200047a8262000654565b604082019050919050565b60006020820190508181036000830152620004a0816200045e565b9050919050565b6000620004b3620004c6565b9050620004c1828262000580565b919050565b6000604051905090565b600067ffffffffffffffff821115620004ee57620004ed62000614565b5b602082029050602081019050919050565b600067ffffffffffffffff8211156200051d576200051c62000614565b5b602082029050602081019050919050565b600082825260208201905092915050565b60006200054c8262000553565b9050919050565b600073ffffffffffffffffffffffffffffffffffffffff82169050919050565b600060ff82169050919050565b6200058b8262000643565b810181811067ffffffffffffffff82111715620005ad57620005ac62000614565b5b80604052505050565b6000620005c38262000573565b915060ff821415620005da57620005d9620005e5565b5b600182019050919050565b7f4e487b7100000000000000000000000000000000000000000000000000000000600052601160045260246000fd5b7f4e487b7100000000000000000000000000000000000000000000000000000000600052604160045260246000fd5b6000601f19601f8301169050919050565b7f496e74657265703a20706172616d6574657273206c6973747320646f6573206e60008201527f6f742068617665207468652073616d65206c656e677468000000000000000000602082015250565b620006ae816200053f565b8114620006ba57600080fd5b50565b620006c88162000573565b8114620006d457600080fd5b50565b612b3780620006e76000396000f3fe608060405234801561001057600080fd5b506004361061010b5760003560e01c80636673e849116100a25780639b24b3b0116100715780639b24b3b0146102b7578063ac28eacd146102e7578063b9c78c2b14610317578063c156f4c314610347578063f2fde38b146103635761010b565b80636673e84914610243578063715018a61461025f57806375e618c9146102695780638da5cb5b146102995761010b565b806343989f85116100de57806343989f85146101ab578063568ee826146101c757806361b785e5146101e357806361bcf78f146102135761010b565b8063114433f11461011057806316a25afe146101435780631783efc31461015f5780632d69be981461017b575b600080fd5b61012a60048036038101906101259190611995565b61037f565b60405161013a94939291906120e1565b60405180910390f35b61015d60048036038101906101589190611927565b6103bc565b005b61017960048036038101906101749190611a72565b610567565b005b61019560048036038101906101909190611b98565b61061f565b6040516101a29190612126565b60405180910390f35b6101c560048036038101906101c09190611aae565b610652565b005b6101e160048036038101906101dc91906119be565b610712565b005b6101fd60048036038101906101f89190611995565b610874565b60405161020a9190612338565b60405180910390f35b61022d60048036038101906102289190611995565b610894565b60405161023a919061237c565b60405180910390f35b61025d600480360381019061025891906119fa565b6108c1565b005b610267610a18565b005b610283600480360381019061027e9190611995565b610aa0565b604051610290919061237c565b60405180910390f35b6102a1610acd565b6040516102ae9190612064565b60405180910390f35b6102d160048036038101906102cc9190611995565b610af6565b6040516102de9190612338565b60405180910390f35b61030160048036038101906102fc9190611995565b610b16565b60405161030e9190612064565b60405180910390f35b610331600480360381019061032c9190611995565b610b49565b60405161033e9190612338565b60405180910390f35b610361600480360381019061035c9190611b49565b610b69565b005b61037d600480360381019061037891906118fe565b610cd3565b005b60056020528060005260406000206000915090508060000154908060010154908060020154908060030160009054906101000a900460ff16905084565b6103c4610dcb565b73ffffffffffffffffffffffffffffffffffffffff166103e2610acd565b73ffffffffffffffffffffffffffffffffffffffff1614610438576040517f08c379a000000000000000000000000000000000000000000000000000000000815260040161042f906121e1565b60405180910390fd5b60005b828290508160ff16101561056257600083838360ff16818110610487577f4e487b7100000000000000000000000000000000000000000000000000000000600052603260045260246000fd5b9050608002016000013584848460ff168181106104cd577f4e487b7100000000000000000000000000000000000000000000000000000000600052603260045260246000fd5b905060800201602001356040516020016104e8929190612038565b6040516020818303038152906040528051906020012060001c905061054e8185858560ff16818110610543577f4e487b7100000000000000000000000000000000000000000000000000000000600052603260045260246000fd5b905060800201610dd3565b50808061055a90612603565b91505061043b565b505050565b81610570610dcb565b73ffffffffffffffffffffffffffffffffffffffff166006600083815260200190815260200160002060009054906101000a900473ffffffffffffffffffffffffffffffffffffffff1673ffffffffffffffffffffffffffffffffffffffff1614610610576040517f08c379a000000000000000000000000000000000000000000000000000000000815260040161060790612241565b60405180910390fd5b61061a8383610f62565b505050565b60046020528060005260406000206000915054906101000a900473ffffffffffffffffffffffffffffffffffffffff1681565b8561065b610dcb565b73ffffffffffffffffffffffffffffffffffffffff166006600083815260200190815260200160002060009054906101000a900473ffffffffffffffffffffffffffffffffffffffff1673ffffffffffffffffffffffffffffffffffffffff16146106fb576040517f08c379a00000000000000000000000000000000000000000000000000000000081526004016106f290612241565b60405180910390fd5b610709878787878787611092565b50505050505050565b8161071b610dcb565b73ffffffffffffffffffffffffffffffffffffffff166006600083815260200190815260200160002060009054906101000a900473ffffffffffffffffffffffffffffffffffffffff1673ffffffffffffffffffffffffffffffffffffffff16146107bb576040517f08c379a00000000000000000000000000000000000000000000000000000000081526004016107b290612241565b60405180910390fd5b816006600085815260200190815260200160002060006101000a81548173ffffffffffffffffffffffffffffffffffffffff021916908373ffffffffffffffffffffffffffffffffffffffff1602179055508173ffffffffffffffffffffffffffffffffffffffff1661082c610dcb565b73ffffffffffffffffffffffffffffffffffffffff16847f0ba83579a0e79193ef649b9f5a8759d35af086ba62a3e207b52e4a8ae30d49e360405160405180910390a4505050565b600060056000838152602001908152602001600020600201549050919050565b60006005600083815260200190815260200160002060030160009054906101000a900460ff169050919050565b60006108cc86610af6565b905060006108d987610aa0565b905060008214156108fb576108ed87610874565b91506108f887610894565b90505b60008160ff161415610942576040517f08c379a000000000000000000000000000000000000000000000000000000000815260040161093990612181565b60405180910390fd5b6000600460008360ff1660ff16815260200190815260200160002060009054906101000a900473ffffffffffffffffffffffffffffffffffffffff16905061098e8784888888866111e4565b6109cd576040517f08c379a00000000000000000000000000000000000000000000000000000000081526004016109c490612221565b60405180910390fd5b6109d686611564565b877f102229041138505f4cecdadc8e3ac1cd92c55870c17371050fc00bdb0888980188604051610a0691906120c6565b60405180910390a25050505050505050565b610a20610dcb565b73ffffffffffffffffffffffffffffffffffffffff16610a3e610acd565b73ffffffffffffffffffffffffffffffffffffffff1614610a94576040517f08c379a0000000000000000000000000000000000000000000000000000000008152600401610a8b906121e1565b60405180910390fd5b610a9e6000611592565b565b60006002600083815260200190815260200160002060000160009054906101000a900460ff169050919050565b60008060009054906101000a900473ffffffffffffffffffffffffffffffffffffffff16905090565b600060026000838152602001908152602001600020600101549050919050565b60066020528060005260406000206000915054906101000a900473ffffffffffffffffffffffffffffffffffffffff1681565b600060026000838152602001908152602001600020600201549050919050565b81600073ffffffffffffffffffffffffffffffffffffffff16600460008360ff1660ff16815260200190815260200160002060009054906101000a900473ffffffffffffffffffffffffffffffffffffffff1673ffffffffffffffffffffffffffffffffffffffff161415610c13576040517f08c379a0000000000000000000000000000000000000000000000000000000008152600401610c0a90612261565b60405180910390fd5b610c1f84846000611656565b816006600086815260200190815260200160002060006101000a81548173ffffffffffffffffffffffffffffffffffffffff021916908373ffffffffffffffffffffffffffffffffffffffff1602179055508173ffffffffffffffffffffffffffffffffffffffff16600073ffffffffffffffffffffffffffffffffffffffff16857f0ba83579a0e79193ef649b9f5a8759d35af086ba62a3e207b52e4a8ae30d49e360405160405180910390a450505050565b610cdb610dcb565b73ffffffffffffffffffffffffffffffffffffffff16610cf9610acd565b73ffffffffffffffffffffffffffffffffffffffff1614610d4f576040517f08c379a0000000000000000000000000000000000000000000000000000000008152600401610d46906121e1565b60405180910390fd5b600073ffffffffffffffffffffffffffffffffffffffff168173ffffffffffffffffffffffffffffffffffffffff161415610dbf576040517f08c379a0000000000000000000000000000000000000000000000000000000008152600401610db690612161565b60405180910390fd5b610dc881611592565b50565b600033905090565b806060016020810190610de69190611b98565b600073ffffffffffffffffffffffffffffffffffffffff16600460008360ff1660ff16815260200190815260200160002060009054906101000a900473ffffffffffffffffffffffffffffffffffffffff1673ffffffffffffffffffffffffffffffffffffffff161415610e8f576040517f08c379a0000000000000000000000000000000000000000000000000000000008152600401610e8690612261565b60405180910390fd5b6000610e9a84610aa0565b60ff1614610edd576040517f08c379a0000000000000000000000000000000000000000000000000000000008152600401610ed490612201565b60405180910390fd5b81600560008581526020019081526020016000208181610efd9190612a3a565b905050816060016020810190610f139190611b98565b60ff16826020013583600001357f4226f2c117471a2b1562608bbef94529747341ee99f3fc90553a397705ff6ee4868660400135604051610f55929190612353565b60405180910390a4505050565b6000610f6d83610aa0565b60ff161415610fb1576040517f08c379a0000000000000000000000000000000000000000000000000000000008152600401610fa8906121c1565b60405180910390fd5b6002600083815260200190815260200160002073__$4c0484323457fe1a856f46a4759b553fe4$__63168703fa9091836040518363ffffffff1660e01b8152600401610ffe929190612281565b60006040518083038186803b15801561101657600080fd5b505af415801561102a573d6000803e3d6000fd5b50505050600061103983610af6565b9050826003600083815260200190815260200160002081905550827f03fd27265b7dd1f55558bedc22a58fa3b10afb1be776e614bd5a7ba7b94994068383604051611085929190612353565b60405180910390a2505050565b600061109d87610aa0565b60ff1614156110e1576040517f08c379a00000000000000000000000000000000000000000000000000000000081526004016110d8906121c1565b60405180910390fd5b6002600087815260200190815260200160002073__$4c0484323457fe1a856f46a4759b553fe4$__630629596f909187878787876040518763ffffffff1660e01b8152600401611136969594939291906122aa565b60006040518083038186803b15801561114e57600080fd5b505af4158015611162573d6000803e3d6000fd5b50505050600061117187610af6565b9050866003600083815260200190815260200160002081905550867fe270325ded177064d7bda473e6519ef40a291058c41286f71a6e4872f1e9ab5c87600260008b8152602001908152602001600020600101546040516111d3929190612353565b60405180910390a250505050505050565b60006001600086815260200190815260200160002060009054906101000a900460ff1615611247576040517f08c379a000000000000000000000000000000000000000000000000000000000815260040161123e90612141565b60405180910390fd5b600061125288611762565b90508273ffffffffffffffffffffffffffffffffffffffff16635fe8c13b6040518060400160405280876000600881106112b5577f4e487b7100000000000000000000000000000000000000000000000000000000600052603260045260246000fd5b60200201358152602001876001600881106112f9577f4e487b7100000000000000000000000000000000000000000000000000000000600052603260045260246000fd5b6020020135815250604051806040016040528060405180604001604052808a600260088110611351577f4e487b7100000000000000000000000000000000000000000000000000000000600052603260045260246000fd5b602002013581526020018a600360088110611395577f4e487b7100000000000000000000000000000000000000000000000000000000600052603260045260246000fd5b6020020135815250815260200160405180604001604052808a6004600881106113e7577f4e487b7100000000000000000000000000000000000000000000000000000000600052603260045260246000fd5b602002013581526020018a60056008811061142b577f4e487b7100000000000000000000000000000000000000000000000000000000600052603260045260246000fd5b602002013581525081525060405180604001604052808960066008811061147b577f4e487b7100000000000000000000000000000000000000000000000000000000600052603260045260246000fd5b60200201358152602001896007600881106114bf577f4e487b7100000000000000000000000000000000000000000000000000000000600052603260045260246000fd5b602002013581525060405180608001604052808d81526020018c81526020018781526020018b8152506040518563ffffffff1660e01b8152600401611507949392919061207f565b60206040518083038186803b15801561151f57600080fd5b505afa158015611533573d6000803e3d6000fd5b505050506040513d601f19601f82011682018060405250810190611557919061196c565b9150509695505050505050565b600180600083815260200190815260200160002060006101000a81548160ff02191690831515021790555050565b60008060009054906101000a900473ffffffffffffffffffffffffffffffffffffffff169050816000806101000a81548173ffffffffffffffffffffffffffffffffffffffff021916908373ffffffffffffffffffffffffffffffffffffffff1602179055508173ffffffffffffffffffffffffffffffffffffffff168173ffffffffffffffffffffffffffffffffffffffff167f8be0079c531659141344cd1fd0a4f28419497f9722a3daafe3b4186f6b6457e060405160405180910390a35050565b600061166184610aa0565b60ff16146116a4576040517f08c379a000000000000000000000000000000000000000000000000000000000815260040161169b906121a1565b60405180910390fd5b6002600084815260200190815260200160002073__$4c0484323457fe1a856f46a4759b553fe4$__63b4bdd117909184846040518463ffffffff1660e01b81526004016116f393929190612301565b60006040518083038186803b15801561170b57600080fd5b505af415801561171f573d6000803e3d6000fd5b50505050827fc3082aa494e9088c2c9f0fb62a0b6bd46e6699acb94cfba35be29b95a93f68c88383604051611755929190612397565b60405180910390a2505050565b6000600882604051602001611777919061201d565b6040516020818303038152906040528051906020012060001c901c9050919050565b6000813590506117a881612a8e565b92915050565b60008083601f8401126117c057600080fd5b8235905067ffffffffffffffff8111156117d957600080fd5b6020830191508360808202830111156117f157600080fd5b9250929050565b60008190508260206008028201111561181057600080fd5b92915050565b60008083601f84011261182857600080fd5b8235905067ffffffffffffffff81111561184157600080fd5b60208301915083602082028301111561185957600080fd5b9250929050565b60008083601f84011261187257600080fd5b8235905067ffffffffffffffff81111561188b57600080fd5b6020830191508360208202830111156118a357600080fd5b9250929050565b6000815190506118b981612aa5565b92915050565b6000813590506118ce81612abc565b92915050565b6000813590506118e381612ad3565b92915050565b6000813590506118f881612aea565b92915050565b60006020828403121561191057600080fd5b600061191e84828501611799565b91505092915050565b6000806020838503121561193a57600080fd5b600083013567ffffffffffffffff81111561195457600080fd5b611960858286016117ae565b92509250509250929050565b60006020828403121561197e57600080fd5b600061198c848285016118aa565b91505092915050565b6000602082840312156119a757600080fd5b60006119b5848285016118d4565b91505092915050565b600080604083850312156119d157600080fd5b60006119df858286016118d4565b92505060206119f085828601611799565b9150509250929050565b60008060008060006101808688031215611a1357600080fd5b6000611a21888289016118d4565b9550506020611a32888289016118bf565b9450506040611a43888289016118d4565b9350506060611a54888289016118d4565b9250506080611a65888289016117f8565b9150509295509295909350565b60008060408385031215611a8557600080fd5b6000611a93858286016118d4565b9250506020611aa4858286016118d4565b9150509250929050565b60008060008060008060808789031215611ac757600080fd5b6000611ad589828a016118d4565b9650506020611ae689828a016118d4565b955050604087013567ffffffffffffffff811115611b0357600080fd5b611b0f89828a01611816565b9450945050606087013567ffffffffffffffff811115611b2e57600080fd5b611b3a89828a01611860565b92509250509295509295509295565b600080600060608486031215611b5e57600080fd5b6000611b6c868287016118d4565b9350506020611b7d868287016118e9565b9250506040611b8e86828701611799565b9150509250925092565b600060208284031215611baa57600080fd5b6000611bb8848285016118e9565b91505092915050565b6000611bcd8383611c6f565b60408301905092915050565b6000611be58383611fc3565b60208301905092915050565b6000611bfd838361200e565b60208301905092915050565b611c12816124b3565b82525050565b611c21816123e8565b611c2b818461243d565b9250611c36826123c0565b8060005b83811015611c67578151611c4e8782611bc1565b9650611c5983612409565b925050600181019050611c3a565b505050505050565b611c78816123f3565b611c828184612448565b9250611c8d826123ca565b8060005b83811015611cbe578151611ca58782611bd9565b9650611cb083612416565b925050600181019050611c91565b505050505050565b611ccf816123f3565b611cd98184612453565b9250611ce4826123ca565b8060005b83811015611d15578151611cfc8782611bd9565b9650611d0783612416565b925050600181019050611ce8565b505050505050565b611d26816123fe565b611d30818461245e565b9250611d3b826123d4565b8060005b83811015611d6c578151611d538782611bd9565b9650611d5e83612423565b925050600181019050611d3f565b505050505050565b6000611d808385612469565b93507f07ffffffffffffffffffffffffffffffffffffffffffffffffffffffffffffff831115611daf57600080fd5b602083029250611dc083858461256c565b82840190509392505050565b6000611dd8838561247a565b9350611de3826123de565b8060005b85811015611e1c57611df9828461249c565b611e038882611bf1565b9750611e0e83612430565b925050600181019050611de7565b5085925050509392505050565b611e32816124d1565b82525050565b611e49611e44826124d1565b61262d565b82525050565b611e5881612524565b82525050565b6000611e6b60368361248b565b9150611e76826126e8565b604082019050919050565b6000611e8e60268361248b565b9150611e9982612737565b604082019050919050565b6000611eb160218361248b565b9150611ebc82612786565b604082019050919050565b6000611ed460258361248b565b9150611edf826127d5565b604082019050919050565b6000611ef760258361248b565b9150611f0282612824565b604082019050919050565b6000611f1a60208361248b565b9150611f2582612873565b602082019050919050565b6000611f3d60288361248b565b9150611f488261289c565b604082019050919050565b6000611f60601f8361248b565b9150611f6b826128eb565b602082019050919050565b6000611f8360268361248b565b9150611f8e82612914565b604082019050919050565b6000611fa660248361248b565b9150611fb182612963565b604082019050919050565b8082525050565b611fcc816124fb565b82525050565b611fdb816124fb565b82525050565b611fea816124fb565b82525050565b611ff981612505565b82525050565b61200881612505565b82525050565b61201781612505565b82525050565b60006120298284611e38565b60208201915081905092915050565b60006120448285611e38565b6020820191506120548284611e38565b6020820191508190509392505050565b60006020820190506120796000830184611c09565b92915050565b6000610180820190506120956000830187611cc6565b6120a26040830186611c18565b6120af60c0830185611cc6565b6120bd610100830184611d1d565b95945050505050565b60006020820190506120db6000830184611e29565b92915050565b60006080820190506120f66000830187611e29565b6121036020830186611e29565b6121106040830185611fd2565b61211d6060830184611ff0565b95945050505050565b600060208201905061213b6000830184611e4f565b92915050565b6000602082019050818103600083015261215a81611e5e565b9050919050565b6000602082019050818103600083015261217a81611e81565b9050919050565b6000602082019050818103600083015261219a81611ea4565b9050919050565b600060208201905081810360008301526121ba81611ec7565b9050919050565b600060208201905081810360008301526121da81611eea565b9050919050565b600060208201905081810360008301526121fa81611f0d565b9050919050565b6000602082019050818103600083015261221a81611f30565b9050919050565b6000602082019050818103600083015261223a81611f53565b9050919050565b6000602082019050818103600083015261225a81611f76565b9050919050565b6000602082019050818103600083015261227a81611f99565b9050919050565b60006040820190506122966000830185611fbc565b6122a36020830184611fe1565b9392505050565b60006080820190506122bf6000830189611fbc565b6122cc6020830188611fe1565b81810360408301526122df818688611d74565b905081810360608301526122f4818486611dcc565b9050979650505050505050565b60006060820190506123166000830186611fbc565b6123236020830185611fff565b6123306040830184611fe1565b949350505050565b600060208201905061234d6000830184611fd2565b92915050565b60006040820190506123686000830185611fd2565b6123756020830184611fd2565b9392505050565b60006020820190506123916000830184611ff0565b92915050565b60006040820190506123ac6000830185611ff0565b6123b96020830184611fd2565b9392505050565b6000819050919050565b6000819050919050565b6000819050919050565b6000819050919050565b600060029050919050565b600060029050919050565b600060049050919050565b6000602082019050919050565b6000602082019050919050565b6000602082019050919050565b6000602082019050919050565b600081905092915050565b600081905092915050565b600081905092915050565b600081905092915050565b600082825260208201905092915050565b600082825260208201905092915050565b600082825260208201905092915050565b60006124ab60208401846118e9565b905092915050565b60006124be826124db565b9050919050565b60008115159050919050565b6000819050919050565b600073ffffffffffffffffffffffffffffffffffffffff82169050919050565b6000819050919050565b600060ff82169050919050565b600061251d826124d1565b9050919050565b600061252f82612536565b9050919050565b6000612541826124db565b9050919050565b6000612553826124fb565b9050919050565b600061256582612505565b9050919050565b82818337600083830152505050565b60008101600083018061258d8161268c565b90506125998184612a17565b5050506001810160208301806125ae8161268c565b90506125ba8184612a17565b5050506002810160408301806125cf816126a2565b90506125db8184612a48565b5050506003810160608301806125f0816126b8565b90506125fc8184612a6b565b5050505050565b600061260e82612505565b915060ff82141561262257612621612637565b5b600182019050919050565b6000819050919050565b7f4e487b7100000000000000000000000000000000000000000000000000000000600052601160045260246000fd5b6000612671826126db565b9050919050565b6000819050919050565b6000819050919050565b6000813561269981612abc565b80915050919050565b600081356126af81612ad3565b80915050919050565b600081356126c581612aea565b80915050919050565b60008160001b9050919050565b60008160001c9050919050565b7f53656d6170686f7265436f72653a20796f752063616e6e6f742075736520746860008201527f652073616d65206e756c6c696669657220747769636500000000000000000000602082015250565b7f4f776e61626c653a206e6577206f776e657220697320746865207a65726f206160008201527f6464726573730000000000000000000000000000000000000000000000000000602082015250565b7f496e74657265703a207468652067726f757020646f6573206e6f74206578697360008201527f7400000000000000000000000000000000000000000000000000000000000000602082015250565b7f53656d6170686f726547726f7570733a2067726f757020616c7265616479206560008201527f7869737473000000000000000000000000000000000000000000000000000000602082015250565b7f53656d6170686f726547726f7570733a2067726f757020646f6573206e6f742060008201527f6578697374000000000000000000000000000000000000000000000000000000602082015250565b7f4f776e61626c653a2063616c6c6572206973206e6f7420746865206f776e6572600082015250565b7f496e74657265703a2067726f757020696420616c72656164792065786973747360008201527f206f6e636861696e000000000000000000000000000000000000000000000000602082015250565b7f496e74657265703a207468652070726f6f66206973206e6f742076616c696400600082015250565b7f496e74657265703a2063616c6c6572206973206e6f74207468652067726f757060008201527f2061646d696e0000000000000000000000000000000000000000000000000000602082015250565b7f496e74657265703a2074726565206465707468206973206e6f7420737570706f60008201527f7274656400000000000000000000000000000000000000000000000000000000602082015250565b600060ff6129bf846126ce565b9350801983169250808416831791505092915050565b60007fffffffffffffffffffffffffffffffffffffffffffffffffffffffffffffffff612a01846126ce565b9350801983169250808416831791505092915050565b612a2082612512565b612a33612a2c82612666565b83546129d5565b8255505050565b612a44828261257b565b5050565b612a5182612548565b612a64612a5d82612678565b83546129d5565b8255505050565b612a748261255a565b612a87612a8082612682565b83546129b2565b8255505050565b612a97816124b3565b8114612aa257600080fd5b50565b612aae816124c5565b8114612ab957600080fd5b50565b612ac5816124d1565b8114612ad057600080fd5b50565b612adc816124fb565b8114612ae757600080fd5b50565b612af381612505565b8114612afe57600080fd5b5056fea2646970667358221220a07ce48e3bc6472e4434cdb58dd80f37024c7e6ddd09dcbb4f0ff0daa9446b6564736f6c63430008040033",
  "linkReferences": {
    "@zk-kit/incremental-merkle-tree.sol/contracts/IncrementalBinaryTree.sol": {
      "IncrementalBinaryTree": [
        {
          "length": 20,
          "start": 5805
        },
        {
          "length": 20,
          "start": 6109
        },
        {
          "length": 20,
          "start": 7584
        }
      ]
    }
  },
  "deployedLinkReferences": {
    "@zk-kit/incremental-merkle-tree.sol/contracts/IncrementalBinaryTree.sol": {
      "IncrementalBinaryTree": [
        {
          "length": 20,
          "start": 4038
        },
        {
          "length": 20,
          "start": 4342
        },
        {
          "length": 20,
          "start": 5817
        }
      ]
    }
  }
}